:020000040800F2
:100000001804002005010008270A0008C10900089B
:10001000250A00089D010008830A0008000000006E
:100020000000000000000000000000002B0A000893
:100030009F01000800000000290A00082D0A00089E
:100040001F0100081F0100081F0100081F01000810
:100050001F0100081F0100081F0100081F01000800
:100060001F0100081F0100081F0100081F010008F0
:100070001F0100081F0100081F0100081F010008E0
:100080001F0100081F0100081F0100081F010008D0
:100090001F0100081F0100081F0100081F010008C0
:1000A0001F0100081F0100081F0100081F010008B0
:1000B0001F0100081F0100081F0100081F010008A0
:1000C0001F0100081F0100081F0100081F01000890
:1000D0001F0100081F0100081F0100081F01000880
:1000E0001F0100081F0100081F010008DFF810D0E1
:1000F00000F042F800480047ED0C0008AFF3008024
:10010000180400200648804706480047FEE7FEE73F
:10011000FEE7FEE7FEE7FEE7FEE7FEE7FEE7FEE7B7
:10012000810A0008ED000008D2B201E000F8012BBE
:10013000491EFBD270470022F6E710B513460A4667
:1001400004461946FFF7F0FF204610BD30B50B46B8
:10015000014600202022012409E021FA02F59D42F7
:1001600005D303FA02F5491B04FA02F52844151ECB
:10017000A2F10102F1DC30BD064C074D06E0E0685B
:1001800040F0010394E8070098471034AC42F6D3DE
:10019000FFF7B0FF5C0D00087C0D0008FEE770471C
:1001A00070B5044600F00CF90546601C02D0044806
:1001B0000078044400F004F9401BA042FAD370BD5B
:1001C000040000202DE9F84FDFF8B891002409F170
:1001D000040A0AF1040B23460F270BF1040EC9E0B1
:1001E0000125A5402A40AA427DD1674ED1F804C01E
:1001F000ACEB0608B44532D014DCBCF1030F3AD0A6
:1002000009DCBCF1000F2AD0BCF1010F1CD0BCF1FD
:10021000020F31D11DE0BCF1110F17D0BCF1120F4C
:100220002AD119E0B8F5881F19D006DCB8F5803F4F
:1002300015D0B8F5801F1FD111E0B8F5001F0ED002
:10024000B8F5041F18D10AE0CB6815E0CB681B1D78
:1002500012E0CB6808330FE0CB680C330CE08B68FE
:100260002BB1012B4FF0080303D0456104E00423B8
:1002700002E0056100E00023FF2A01D8064601E004
:1002800000F104064FEA840501D9A5F12005D6F84E
:10029000008007FA05FC28EA0C0803FA05F548EA8D
:1002A0000508C6F800804D68ED0062D5374DAE698F
:1002B00046F00106AE61AD6924F0030605F00105C4
:1002C0000095334D06EB050CDCF80850A607360FF9
:1002D00007FA06F825EA0805DFF8B880404503D19B
:1002E0004FF0000817E044E0DFF8AC80404502D151
:1002F0004FF001080FE0DFF8A480404502D14FF035
:10030000020808E0DFF89880404502D14FF003086A
:1003100001E04FF0040808FA06F848EA0508CCF8AE
:1003200008804D68D9F80060ED034D4601D51643AD
:1003300000E096432E604D68DAF80060AD03554644
:1003400001D5164300E096432E604D68DBF800604F
:10035000ED025D4601D5164300E096432E604D68E0
:10036000DEF80060AD02754601D5164300E0964305
:100370002E60641C0D682A46E5407FF431AFBDE86D
:10038000F88F00000004014000001110001002402E
:100390000000014000080140000C01400010014035
:1003A00000140140C26821EA02030A4043EA024104
:1003B000016170470AB1016170470904FBE7000061
:1003C00001488068704700000400002002488168EE
:1003D000027811448160704704000020074810B57E
:1003E000016841F010010160032000F067F80F2060
:1003F00000F006F800F024F8002010BD00200240B4
:1004000070B50D4D04464FF47A712878B1FBF0F0C9
:100410000A490968B1FBF0F000F0BEFA48B9102CA7
:1004200007D200222146501E00F028F800206C6000
:1004300070BD012070BD00000400002010000020ED
:100440000C4808B5816941F001018161816901F0C1
:1004500001010091C16941F08051C161C06900F0A2
:10046000805000900448416821F0E06141F0007143
:10047000416008BD0010024000000140F0B40E4B86
:100480001B680C46C3F30223C3F10705042D00D9F2
:100490000425191D072901D2002300E0DB1E0126D7
:1004A00006FA05F1491E214099409E40761E1640ED
:1004B0003143F0BC00F00ABB0CED00E0064900F04F
:1004C000070208684FF6FF03184040EA0220034A7B
:1004D00010430860704700000CED00E00000FA05D2
:1004E0002DE9F0470F46050061D0434E306800F01B
:1004F0000700B84209D2306820F007003843306066
:10050000306800F00700B84251D128683B4C8107A1
:1005100012D5400703D5606840F4E0606060287839
:10052000000703D5606840F4605060606068A968A7
:1005300020F0F000084360602878C00728D0686881
:10054000012810D02168022810D0890700292EDA4E
:10055000616821F0030101436160FFF731FF8046CC
:1005600041F288390DE021688903EFE78901EDE761
:10057000FFF726FFA0EB0801494502D90320BDE89B
:10058000F0876068696800F00C00B0EB810FEFD174
:10059000306800F00700B8420BD9306820F007003F
:1005A00038433060306800F00700B84201D00120C5
:1005B000E5E72878400705D56068E96820F4E06041
:1005C000084360602878000706D56068296920F430
:1005D000605040EAC100606000F018F86168084AA5
:1005E000C1F30311515CC840064908600648006821
:1005F000FFF706FF0020C2E7002002400010024083
:100600004C0D0008100000200800002012A185B049
:100610000FC98DE80F0014A0144A006804905168B7
:10062000134801F00C03042B10D0082B0ED1C1F39A
:100630008343C9031DF803000AD5516804AAC1F316
:100640004041515C0A4A5043B0FBF1F005B070479D
:1006500008494843FAE700000203040506070809B1
:100660000A0B0C0D0E0F10100102000000100240CA
:1006700000127A0000093D002DE9F84F040070D007
:100680002078C04DC00749D06868C0F381000128B8
:1006900007D06868C0F38100022809D16868C003E8
:1006A00006D52868800339D560680028E7D035E092
:1006B0006068B0F5803F0BD010B1B0F5A02F11D01D
:1006C000286820F480302860286820F4802002E028
:1006D000286840F480302860606890B1FFF770FEB1
:1006E00006460AE0286840F480202860F0E700BF52
:1006F000FFF766FE801B642873D828688003F7D54F
:100700000CE0FFF75DFE064605E000BFFFF758FE70
:10071000801B6428F0D828688003F7D420789A4E8C
:1007200080074FF001094FF0000839D5686810F0D4
:100730000C0F07D06868C0F38100022809D16868EF
:10074000C00306D42868800714D52069012808D181
:1007500010E02069B0B1C6F80090FFF731FE0746FF
:1007600005E00AE1FFF72CFEC01B0228C4D8286868
:100770008007F7D52868616920F0F80040EAC100D9
:1007800028600DE0C6F80080FFF71AFE074604E077
:10079000FFF716FEC01B022823D828688007F7D46D
:1007A000207800072CD57948A169D9B1C0F800900C
:1007B000FFF706FE074604E0FFF702FEC01B022813
:1007C0000FD8686A8007F7D571484FF4FA5100686E
:1007D000B0FBF1F0009000BF0098411E0091FAD2EA
:1007E0000EE080E0C0F80080FFF7EAFD074604E075
:1007F000FFF7E6FDC01B022875D8686A8007F7D4AA
:100800002078400760D5E8690027C00008D4E8696F
:1008100040F08050E861E869012700F080500090C6
:100820005C480168C90513D40168834641F48071AE
:100830000160FFF7C5FD824606E000BFFFF7C0FD7F
:10084000A0EB0A0064284ED8DBF80000C005F5D5FF
:10085000E06801280AD008B1052813D0286A20F0E2
:1008600001002862286A20F0040002E0286A40F0B3
:1008700001002862E06841F2883B98B1FFF7A0FDD3
:1008800082460BE0286A40F004002862EEE700BFD1
:10089000FFF796FDA0EB0A0159455AD8286A800750
:1008A000F6D50CE0FFF78CFD824605E0FFF788FDEA
:1008B000A0EB0A0159454CD8286A8007F6D41FB12D
:1008C000E86920F08050E861E06988B36968C1F3A5
:1008D0008101022944D00228C6F8608004D0FFF7C5
:1008E0006FFD044638E034E0FFF76AFD074604E098
:1008F000FFF766FDC01B02282BD828688001F7D4BB
:10090000206AB0F5803F05D16868A16820F4003006
:1009100008436860D4E908010843696821F4741148
:1009200008436860C6F86090FFF74AFD044606E099
:1009300025E000BFFFF744FD001B022809D8286806
:100940008001F7D51BE000BFFFF73AFD001B02282E
:1009500002D90320BDE8F88F28688001F4D40EE0A6
:100960000128F7D06868226A00F48031914204D1EE
:10097000616A00F47010884201D00120EAE700208B
:10098000E8E70000001002400000424280044242BA
:10099000100000200070004010B5401EB0F1807FB4
:1009A00001D3012010BD4FF0E02460610F216017DA
:1009B00000F08CF80020A06107202061002010BD0D
:1009C000FEE7000030B585B000241448009401947F
:1009D00002940394816941F008018161816901F009
:1009E00008010491816941F00401816180690C4D25
:1009F00000F004000490002204212846FFF7DAFCEE
:100A0000042000900120CDE90104022003906946F2
:100A10002846FFF7D7FB05B030BD000000100240AC
:100A2000000C0140FEE7FEE770477047FFF7CEBCC1
:100A300010B590B028216846FFF77DFB14210AA865
:100A4000FFF779FB02200090012004901020002481
:100A5000059007946846FFF70FFE08B172B6FEE7EF
:100A60000F20CDE90A040C940D9400210AA80E94DD
:100A7000FFF736FD002801D072B6FEE710B010BDBA
:100A80007047FEE70FB4054B10B503A9044A02985E
:100A900000F03CF810BC5DF814FB0000D10C00081D
:100AA000000000200FB4084B10B504A902AA039857
:100AB00000F02CF8044602A9002000F003F92046BB
:100AC00010BC5DF814FB0000C50C00080907090EF6
:100AD000002804DB00F1E02080F80014704700F0EB
:100AE0000F0000F1E02080F8141D704702E008C8F4
:100AF000121F08C1002AFAD170477047002001E098
:100B000001C1121F002AFBD1704700002DE9FF4FE1
:100B10008BB09A460F460546002606E025280BD0E6
:100B200052460D9990476D1C761C28780028F5D107
:100B30000FB03046BDE8F08F0024A0460122604986
:100B400000E0044315F8013F203B02FA03F008429D
:100B5000F7D128782E2817D115F8010F44F0040496
:100B60002A280ED06FF02F022878A0F13001092931
:100B70000AD808EB880102EB410100EB01086D1C6B
:100B8000F2E757F8048B6D1C287869283ED006DC04
:100B90000028CDD063280BD0642804D136E0732818
:100BA00010D075284BD052460D999047761C85E0A1
:100BB00017F8040B8DF8000000208DF80100E946BD
:100BC000012003E057F8049B4FF0FF3061074FF01E
:100BD000000401D40AE0641C44450DDA8442FADBC7
:100BE00019F804100029F6D106E0641C8442FCDBED
:100BF00019F804100029F8D1264404E019F8010B73
:100C000052460D999047641EF8D257E001CF4FF03D
:100C10000A0B002802DA40422D2102E0210504D50A
:100C20002B218DF82410012103E0E10705D02021BC
:100C3000F7E70DF1200908910CE00021F9E701CF59
:100C40004FF00A0BF9E75946FFF780FA01F130023D
:100C500009F8012D0028F6D1ADEB090000F1200BB9
:100C6000600701D44FF00108D84502DDA8EB0B0066
:100C700000E000208046002406E009A85246005DFE
:100C80000D999047641C761C08988442F5DB04E0BB
:100C9000302052460D999047761CB8F10001A8F11A
:100CA0000108F5DC05E019F8010B52460D99904753
:100CB000761CBBF10001ABF1010BF4DC6D1C34E7D9
:100CC000092801000A68531C0B601070704700006F
:100CD00005490968C90105D54FF060410A68002A35
:100CE000FCD0087070470000FCED00E088B0FFF712
:100CF00075FBFFF79DFEFFF765FE0C4D0024C72036
:100D0000FFF74EFA04212846FFF74CFB641C052C24
:100D1000F5D10024FFF754FB024605A16846FFF712
:100D2000C1FE694608A0FFF7ADFEE8E7000C0140F0
:100D300057654163742053747564696F202564207E
:100D40006D730D0A00000000257300000000000014
:100D50000000000001020304060708097C0D0008DA
:100D60000000002014000000EC0A0008900D0008AC
:100D70001400002004040000FC0A00080000000029
:100D80000100000010000000000000000024F4003A
:04000005080000ED02
:00000001FF
