:040000050800C0ED42
:020000040800F2
:10C00000784E002059C2000861C2000893E600087B
:10C0100065C2000867C2000869C2000806FFFAAFDF
:10C020008F9E939B08999697020100006DC10008AE
:10C030006DC2000800A20108F5C1000845C2000851
:10C0400073C2000873C2000873C2000873C20008FC
:10C0500073C2000873C2000873C2000873C20008EC
:10C0600073C2000873C2000873C200083DD1000803
:10C0700059D1000875D1000899D10008BDD1000838
:10C08000D9D10008F5D1000873C2000873C20008B6
:10C09000052D010873C2000873C2000873C20008AE
:10C0A00073C2000873C2000873C2000873C200089C
:10C0B00073C2000873C2000873C2000873C200088C
:10C0C00073C2000873C2000873C2000873C200087C
:10C0D00073C200087DF8000821F9000873C2000847
:10C0E00073C2000873C2000873C20008DFF810D0E2
:10C0F00000F036F900480047A94B0108AFF3008073
:10C10000784E002080F309887047EFF3098070476C
:10C11000684680F3098804480078C00714BF0220ED
:10C12000032080F314887047DCA10108DFF818C0F1
:10C13000EFF305831B0618BF6047EFF31483DB079B
:10C1400008BF604700DF7047F95B0108DFF818C0DF
:10C15000EFF305831B0618BF6047EFF31483DB077B
:10C1600008BF604700DF7047055E0108EFF30980F4
:10C17000816911F8021C39BB90E80F10E047EFF31A
:10C18000098C194B93E80600914218D059B10CB4B0
:10C190004FF0010381F821302CE9F00FC1F824C0E1
:10C1A0000AF0C4F80CBC1A60D2F824C0BCE8F00F46
:10C1B00092F821308CF309881BB192F82000CCF85A
:10C1C00000006FF0020E704710B5084A12689142E5
:10C1D00009D8074C54F8214090E80F10A047EFF31E
:10C1E000098C8CE80F0010BD38030020DCC3000868
:10C1F000DCC3000809F086FF114B93E8060091426A
:10C200001BD00CB44FF0000381F82130EFF3098C00
:10C210002CE9F00FC1F824C00AF088F80CBC1A60B1
:10C22000D2F824C0BCE8F00F8CF3098892F82130D2
:10C230001BB192F82030CCF800306FF0020E70473E
:10C24000380300200AF034F9D6E7000008F02EFF8A
:10C250000AF02EF9D0E7000006488047064800475C
:10C26000FEE7FEE7FEE7FEE7FEE7FEE7FEE7FEE7A6
:10C27000FEE7FEE74DF40008EDC00008202A04DBCD
:10C28000203A21FA02F00021704721FA02F3D0404F
:10C29000C2F12002914008431946704710B5431A75
:10C2A000934209D28318881803E010F8011D03F89F
:10C2B000011D521EF9D210BD40EA01039B0703D0B5
:10C2C00009E008C9121F08C0042AFAD203E011F8D5
:10C2D000013B00F8013B521EF9D210BDD2B201E081
:10C2E00000F8012B491EFBD270470022F6E710B57B
:10C2F00013460A4604461946FFF7F0FF204610BDD4
:10C30000421E12F8013F002BFBD111F8013B02F84D
:10C31000013B002BF9D17047421C10F8011B00298A
:10C32000FBD1801A704730B504460020034600E078
:10C330005B1C934203D2E05CCD5C401BF8D030BD67
:10C3400030B505460020034600E05B1C934205D251
:10C35000EC5CC85C201A01D1002CF6D130BD000085
:10C36000064C074D06E0E06840F0010394E8070042
:10C3700098471034AC42F6D3FFF7BCFE34AF010847
:10C3800054AF010870B58C1810F8015B15F0070365
:10C3900001D110F8013B2A1106D110F8012B03E05E
:10C3A00010F8016B01F8016B5B1EF9D12B0705D466
:10C3B0000023521E0DD401F8013BFAE710F8013BAF
:10C3C000CB1A921C03E013F8015B01F8015B521ECB
:10C3D000F9D5A142D8D3002070BD000000000000B4
:10C3E0002DE9F04102787F2A03D0BDE8F04100F04A
:10C3F0008FB801F8012B447801F8014B861C0D46DB
:10C400004FF0021708E02946304600F081F8074453
:10C4100006EB104680B20544641EF4D23846BDE8EF
:10C42000F081000070B500240B462146092841D058
:10C430000ADC304A092811695AD2DFE800F059595C
:10C4400015181C23282E31000422FC2850D004DCAF
:10C45000F02835D0F1284BD135E0FD283AD0FE2820
:10C4600044D0FF2844D13CE0184623A11CE01C46E0
:10C4700008F0E8F921E00624224624491846FFF78F
:10C480000DFF35E0184699B1D1F8A41103E0184624
:10C4900071B1D1F8A81139B90AE01846D16FFAE79D
:10C4A0001846D2F88010F6E709F08CFB04461FE02E
:10C4B00000241DE01C4608F0CDF901462046F3E7B4
:10C4C0003520187013E01970A22058704A20987017
:10C4D000DA7004E01970202058709970D970042423
:10C4E00006E0402018705970022401E01A700124FF
:10C4F000204670BD00A201084441504C696E6B207B
:10C50000434D5349532D4441500000009A9901086E
:10C510002DE9F84F0278A2F180031F2B03D800F019
:10C5200071F9BDE8F88FA2F1A0035E2B02D800F0EC
:10C5300001FAF6E701F8012B0C4610F801CB0025B3
:10C540000127FF21A74BA84ADFF8A092DFF8A0A29D
:10C550004FF00116BCF11F0F74D2DFE80CF0101879
:10C560002A50C3CCF073EE64747373737373787C66
:10C570008B9BA8BEC1EDECEBEAE9E8A4E7000078EC
:10C58000611CFFF74FFF207000F10210C9E702782D
:10C5900022B1012A54D0217018461CE14078C1070D
:10C5A0004FF4007001D0934901E09249091F0860DF
:10C5B00046E0057825B1012D03D00025257057E010
:10C5C0000125B84617700D21484608F06BFF874FCC
:10C5D0004FF40050103738600E21484608F062FFD3
:10C5E0004FF48040386001220C21484608F008FFD3
:10C5F0000021484608F088FFC7F80080DEE7157084
:10C6000000220D214E46484608F0FAFE00220E2177
:10C61000304608F0F5FE00220C21304608F0F0FE0E
:10C6200025703846D7E001887348744A0068B0FB2B
:10C63000F2F00322801CB0FBF2F04843401EFDD113
:10C640002570A9E7CAE0657025700220C3E0214685
:10C6500000F070FCBFE086780388C07866F31F4363
:10C66000674E53EA00603BD0906002F09DFEA5E764
:10C670003046B0E010F8016B0EB94FF480760146F9
:10C68000304602F07FFCF61D2570F008000400F132
:10C690000110A0E0007800F00301491C1177C0F3FD
:10C6A000800050778AE7214600F096F993E02170E8
:10C6B0000122144610F8013B0AE010F8011B11F0AA
:10C6C0003F0100D14021C91DC9080A440844521C39
:10C6D0005B1EF2D244EA02407DE000782170D5E78B
:10C6E0002170C5E701781174B0F801109182B0F89B
:10C6F0000300D08252E012782146012A13D0064668
:10C70000401C10F8012B42B110F8013B9C0701D5E9
:10C71000DB0600D5001D521EF6D1801B0D700004F3
:10C720004D70801C57E000F0A1F954E04CE04FE060
:10C7300046E041E03CE037E032E01CE0FFE706463F
:10C7400010782146012809D00D704D70A570032185
:10C75000F078800707D541F480203CE0304600F0B7
:10C7600051FB0146F4E7B6F801004FF4802202EBDA
:10C77000804008432FE01278012A02D021705046F1
:10C7800029E0C278B0F80110007962F31F4141EA54
:10C79000006000906946002002F078F82570EEE70E
:10C7A000214602F0E5FD16E0214602F081FD12E08F
:10C7B000214602F01BFC0EE0214602F089FC0AE053
:10C7C000204602F0C3FD06E0214602F025FD02E00E
:10C7D000214602F0D5FC00F10110A2E604F8011C8C
:10C7E00030469EE60100020078040020000C014063
:10C7F00001000500140801405801002040420F00CC
:10C80000010004002DE9FC47027801F8012B0D46D8
:10C810004FF0011410F8011B002267008039064612
:10C820004FF0010804F101090E2975D2DFE801F08B
:10C8300007141F2E3C74747447535D62667708F0CA
:10C8400001F80646FFF768FDC4B22C70681C22464A
:10C850003146FFF723FD23E00724684604F0FCF986
:10C86000224669462846FFF719FD304C54E06846D9
:10C8700004F0F2F930680090684604F00DFA0020E8
:10C8800004F080FA85F80080294C45E03E21681CC0
:10C890000BF0FEFC040002D0012008F09BF92C7084
:10C8A00004F58034A41C37E03778701C39460BF04F
:10C8B00093FD012008F08EF985F8008028E085F8C6
:10C8C0000080307820B1012802D02A703C4623E055
:10C8D00008F002FBFAE785F8008006F0B5FC10B915
:10C8E00002200BF0CDF94C4616E030780AF090F8B3
:10C8F0002870EBE70AF05AF82870F4E716F8017B85
:10C90000012008F077F9394630460AF023F92870FB
:10C9100004EB074404F101142046BDE8FC872A70AB
:10C92000307800B1012007F0E7FCCFE709000100F3
:10C9300002000500FF2008704FF001107047000052
:10C9400038B52248816941F004018161816901F0B3
:10C9500004010091816941F008018161816901F060
:10C9600008010091816941F010018161816901F044
:10C9700010010091816941F0200181618069144DAD
:10C9800000F0200000900D21284608F08BFD104C8F
:10C990006814103420600E21284608F083FD4FF4FF
:10C9A0008040206001220C21284608F029FD00214A
:10C9B000284608F0A9FD012020600921054808F05B
:10C9C00071FD044960151031086038BD0010024047
:10C9D000000C0140000801402DE9F05F002201F841
:10C9E000012B012510F8018B8A46A94604464FF415
:10C9F000804B32E014F8017B17F03F0000D140205B
:10CA0000C01DC608380608D500220E21164808F0B9
:10CA1000F7FC15495846103106E00E21124808F07F
:10CA200041FD1149584614310860524621463846A6
:10CA300001F0BCFEB8F1000F07D10E210A4808F042
:10CA400031FD09491431C1F800B0380602D5B244AD
:10CA5000B14401E0344435446D1CB8F10108C9D239
:10CA600049EA0540BDE8F09F000C01402DE9F04F78
:10CA700087B0054605900020DFF880A3CDE90101CD
:10CA80008C1C8AF8000003906978AD1C07465FEAA9
:10CA9000010871D015F8016BB1076ED5F7B3DFF857
:10CAA00060B306F011000128BBF8149007D0574678
:10CAB00069460E2001F0EAFE02280ED013E0694616
:10CAC000304601F0E3FE02280ED1B9F1010903D38B
:10CAD0009AF800100029F2D040E1B9F1010902D31F
:10CAE00039780029E4D000270128F5D1009904F80D
:10CAF000011B0099090A04F8011B0099090C04F8AC
:10CB0000021B0099090E04F8011C3FB131060ED535
:10CB1000DBF80C1004F8011B0A0A00E007E004F837
:10CB2000012B0A0C04F8022B090E04F8011CF10673
:10CB300052D5A97835F8030B61F31F4015F8011B96
:10CB400040EA01600490AE48B0F816B0F00715D086
:10CB5000AB48B0F814900021304601F097FE02284F
:10CB600002D00128B8D109E0B9F10109B4D39AF88B
:10CB700000100029EFD0F1E011E187E0A048B0F803
:10CB800014906946304601F081FE022802D0012847
:10CB900016D107E0B9F1010912D39AF80010002963
:10CBA000EFD00DE09649009A89691140049A9142AC
:10CBB00006D0BBF1010B03D39AF800100029DDD099
:10CBC0008F49009A89691140049A914201D040F03E
:10CBD0001000012817D157E0DFF824B2F107BBF8A5
:10CBE000149022D007BB0021304601F04FFE0228EE
:10CBF00002D0012807D107E0B9F1010903D39AF85F
:10CC000000100029EFD0A9E031060CD5DBF80C109C
:10CC100004F8011B0A0A04F8012B0A0C04F8022B81
:10CC2000090E04F8011C01272EE06946304601F088
:10CC30002DFE022802D0012807D107E0B9F1010931
:10CC400003D39AF800100029EFD087E031060CD505
:10CC5000DBF80C1004F8011B0A0A04F8012B0A0C7B
:10CC600004F8022B090E04F8011C009904F8011BBA
:10CC70000099090A04F8011B0099090C04F8021B29
:10CC80000099090E04F8011C002159E01FB35C480B
:10CC9000B0F8149069460E2001F0F8FD022802D089
:10CCA00001285BD107E0B9F1010957D39AF80010C8
:10CCB0000029EFD052E0009804F8010B0098000A18
:10CCC00004F8010B0098000C04F8020B0098000E09
:10CCD00004F8010C0027A97835F8030B61F31F4015
:10CCE00015F8011B40EA01600090B10603D54449E4
:10CCF0008861012025E0DFF808B1BBF8149069468F
:10CD0000304601F0C3FD022802D0012826D107E0F9
:10CD1000B9F1010922D39AF800100029EFD01DE0E3
:10CD200031060CD5DBF80C1004F8011B0A0A04F8D4
:10CD3000012B0A0C04F8022B090E04F8011C012136
:10CD400003910199491C01919AF8001031B9A8F199
:10CD500001015FEA01087FF49DAE0CE0B8F1000F1D
:10CD600009D015F8011B8A0701D5C90600D52D1D6C
:10CD7000A8F10108F2E7012832D10FB32048574645
:10CD8000868A69460E2001F081FD022802D0012822
:10CD900026D105E0761E23D339780029F1D01FE093
:10CDA000009904F8011B0099090A04F8011B009975
:10CDB000090C04F8021B0099090E04F8011C0FE08D
:10CDC000039969B10E485746868A00210E2001F06A
:10CDD0005DFD022804D1761E02D339780029F4D0F3
:10CDE000DDE901121170029948700298211A059824
:10CDF00007B0281A41EA0040BDE8F08F000000208B
:10CE0000780400202DE9F84F0026DFF82081054640
:10CE100030468A46CF1C88F80060B5F80140ED1C0A
:10CE2000002C77D015F8019BDFF804B15FEA897117
:10CE30005FD55FEAC97139D0BBF81450002148466C
:10CE400001F024FD022802D0012863D12EE06D1EDE
:10CE500060D398F800100029F0D05BE024B95FEAB5
:10CE6000C97001D04FF00E09BBF81450694648460E
:10CE700001F00CFD022802D001284BD106E06D1E06
:10CE800048D398F800100029F0D043E0009907F843
:10CE9000011B0099090A07F8011B0099090C07F802
:10CEA000021B0099090E07F8011C761C641ED5D2DE
:10CEB00030E0A97835F8030B61F31F4015F8011B2A
:10CEC00040EA016000901A48B0F81480694648466C
:10CED00001F0DCFC022802D001281BD107E0B8F1E8
:10CEE000010817D39BF800100029EFD012E0761C40
:10CEF00000E0C346641EDCD20D485D46848A0021F2
:10CF00000E2001F0C3FC022804D1641E02D329784C
:10CF10000029F4D08AF80060320A8AF801208AF8E1
:10CF20000200A7EB0A00BDE8F88F00000000002017
:10CF3000780400202DE9F84F8B4605784478027973
:10CF40004188407962F31F4141EA00663A49E207AD
:10CF500001F1040006D0EB074FF4005201D00A6043
:10CF600000E00260A20706D5AB074FF4804201D56E
:10CF70000A6000E0026022060ED5EA09D3074FF0EE
:10CF8000010201D00A6007E002602C4800900422F0
:10CF900069462B480AF006FCDFF89CA04FF0000918
:10CFA000AAF1040AAAF1040896B32648864200D9D9
:10CFB000064606EBC600C70002F07EFA0646E0070A
:10CFC00005D0DAF80000C0F34030A8421BD1A0071A
:10CFD00006D5D8F80000C0F30030B0EB550F12D1E1
:10CFE000600702D5B9EB950F0DD1A00602D5B9EBBC
:10CFF000551F08D120060BD5D8F8000000F001001D
:10D00000B0EBD51F04D002F057FA801BB842D6D33C
:10D01000DAF80000D8F80020C0F34031C2F3003243
:10D02000D8F8000041EA420141EAC0108BF8000044
:10D030000548BDE8F88F0000100C01400400FA0517
:10D040000CED00E0C0C62D0001000600094910B536
:10D0500000220A70084888600A7464238B82CA829E
:10D0600001238A610B774A7702F09EF9BDE81040F0
:10D07000FFF766BC78040020404B4C0070B50446B6
:10D08000D0F808011D460E4600282AD0402A00DDAF
:10D090004022401EC4F80801D4F8100104EB8010AF
:10D0A000FFF7FCF8D4F8100104EB80113046FFF7CD
:10D0B00097F9D4F8101104EB4101A1F80001D4F85C
:10D0C000100104EB8010286094F81001401C00F05F
:10D0D0000300C4F81001D4F80C01401CC4F80C0182
:10D0E000012070BDD0F80C31E3B15B1EC0F80C31EB
:10D0F000D0F8143100EB83130B60D0F8141100EB5F
:10D100004101B1F80011116090F81411491C01F0AF
:10D110000301C0F81411D0F80811491CC0F8081117
:10D1200001207047002070470022C0F81021042120
:10D13000C0F81421C0E9421270477047044910B585
:10D14000086800F00F004860FFF7F7FF10BD00000F
:10D150000000024070470000044910B50868C0F3A1
:10D16000031002014A60FFF7F5FF10BD0000024006
:10D1700070470000044910B50868C0F3032002029C
:10D180004A60FFF7F5FF10BD00000240014803F0C0
:10D1900039BB0000E8A30108044910B50868C0F3D2
:10D1A000033002034A60FFF7F1FF10BD00000240A8
:10D1B000014803F0F1B90000E8A30108044910B5E3
:10D1C0000868C0F3034002044A60FFF7F1FF10BD96
:10D1D0000000024070470000044910B50868C0F321
:10D1E000035002054A60FFF7F5FF10BD0000024042
:10D1F00070470000044910B50868C0F303600206D8
:10D200004A60FFF7F5FF10BD0000024010B50C4664
:10D21000012825D12A48416941F0010141610022DC
:10D220002848082C16D2DFE804F015040C1C252E23
:10D23000374082600F2141600B2005F0B7FD0B20C5
:10D2400006E0C261F02141600C2005F0AFFD0C202A
:10D2500005F0D7FD1C490120A0400A781043087052
:10D2600010BD02634FF4706141600D2005F09EFD1A
:10D270000D20EDE742644FF4704141600E2005F04F
:10D2800095FD0E20E4E782654FF4702141600F2088
:10D2900005F08CFD0F20DBE7C2664FF470014160A2
:10D2A000102005F083FD1020D2E7C0F880204FF059
:10D2B00070614160112005F079FD1120C8E7000080
:10D2C0000010024000000240740400202DE9F041EB
:10D2D0000F4601283BD11F4E3078002837D000245C
:10D2E0001D4D082F28D2DFE807F02704090E131878
:10D2F0001D220B2005F067FDAC601DE00C2005F041
:10D3000062FDEC6118E00D2005F05DFD2C6313E07B
:10D310000E2005F058FD6C640EE00F2005F053FD63
:10D32000AC6509E0102005F04EFDEC6604E011202C
:10D3300005F049FDC5F8804001213078B9408843A7
:10D34000307004D10548416921F001014161BDE817
:10D35000F081000074040020000002400010024030
:10D3600001078A0E07490A44D2F8001C000602D5BC
:10D3700048F6CF7001E04CF68F700140C2F8001CF7
:10D3800070470000005000400207930E0C4A30B571
:10D390001344D3F8002C000648F68F7402EA040008
:10D3A00048F2800582EA010202D502F0300101E074
:10D3B00002F4405108432843C3F8000C30BD00007C
:10D3C0000050004030B585B00546002400F078FAE2
:10D3D0000120002103900091CDE9011504A96846C0
:10D3E00000F0CEF900B1012400F01EFA05B020468D
:10D3F00030BD000006490020C8610648016941F0BF
:10D4000004010161016941F04001016170470000C0
:10D41000A83A002000200240064A0021D1610649B6
:10D420000A6942F002020A614861086940F040005E
:10D4300008617047A83A002000200240044B0022F7
:10D44000DA61044A136943F00103136101807047F4
:10D45000A83A0020002002400E49C868C2060E48C3
:10D4600003D5C26942F00202C261CA68520703D5FD
:10D47000C26942F00102C261CA69D20707D0C2691B
:10D4800042F00402C261C86920F00100C8611420A2
:10D49000C860704700200240A83A002070B50446DA
:10D4A00000F00AFB0546114E09E0601C07D024B1CC
:10D4B00000F002FB401BA04201D9032070BDF068C0
:10D4C000C007F2D1F068800601D52020F060F06836
:10D4D000C00605D4F069C00702D1F068400703D543
:10D4E000FFF7BAFF012070BD002070BD0020024090
:10D4F00018B5002819D011498A69D20703D18A6961
:10D5000042F001028A61C404C0F3421100F01F021C
:10D510000B4BC0F3032001FA02F100FA02F005D52B
:10D52000DA698A4310430090D86118BD5A688A436B
:10D53000104320F0E0600090586018BD00100240D9
:10D5400000000140194A1A49904203D18869C0F38A
:10D5500080007047174A904203D18869C0F3C00029
:10D560007047154A904203D18869C0F30010704794
:10D57000124A904203D18869C0F340107047104AA4
:10D58000904203D18869C0F3801070470D4A9042E1
:10D5900003D18869C0F3C01070470B4A904203D191
:10D5A0008869C0F3002070470020704700080140E0
:10D5B00000100240000C0140001001400014014026
:10D5C00000180140001C014000200140F0B51F463A
:10D5D00016460D4604460F2901D90020F0BDFFF77D
:10D5E000B1FF18B90121204600F022F86FB90120DF
:10D5F000A840022E02D0032E03D006E0E16881434A
:10D6000002E0E16802260143E160082D01D3241DF8
:10D61000083D2168A8000F2282409143216047EA1B
:10D62000860181402068014321600120F0BD000097
:10D63000F0B5304A304B314C314D324E324FDFF87D
:10D64000CCC0DFF8CCE051B3704503D1906940F015
:10D65000040004E0984204D1906940F00800906111
:10D66000F0BDA04203D1906940F01000F7E7A84256
:10D6700003D1906940F02000F1E7B04203D19069F6
:10D6800040F04000EBE7B84203D1906940F08000E1
:10D69000E5E76045E4D1906940F48070DFE77045CC
:10D6A00003D1906920F00400D9E7984203D1906932
:10D6B00020F00800D3E7A04203D1906920F01000C9
:10D6C000CDE7A84203D1906920F02000C7E7B0421F
:10D6D00003D1906920F04000C1E7B84203D19069BE
:10D6E00020F08000BBE76045BAD1906920F48070DB
:10D6F000B5E7000000100240000C0140001001409E
:10D700000014014000180140001C014000200140AD
:10D710000008014070B50C4DE878012804D0A868D5
:10D72000E968441A204670BD00266E71A868E96851
:10D73000441AA878012802D101F0ACFD04446879AC
:10D740000028F2D1EEE7000004000020054A931DF6
:10D75000117981F001001071585CD27810430022D9
:10D760005A5470470400002031B500F0A5F9044672
:10D7700000F0A2F90099001B8842F9D338BD0000DF
:10D780002DE9F047054626480F460126017E01296E
:10D790000FD00121814601762868DFF888804CF29D
:10D7A0005034022808D0A2462046FFF777FEA8B1E1
:10D7B00031E00220BDE8F0872046FFF76FFE08BB8E
:10D7C0000120FFF717FE2046FFF768FED8F810107B
:10D7D000064621F00401C8F810101CE04FF0FF309D
:10D7E0003860AC6811E02046FFF716FE5046FFF7A0
:10D7F00055FED8F81010060021F00201C8F81010EC
:10D8000001D03C6007E004F58064D5E9020100EB3B
:10D810008120A042E7D8002189F818103046C9E7D6
:10D82000A83A0020002002400348016941F080012D
:10D830000161002070470000002002402DE9F05FE8
:10D8400005461D4888460024017E16461F460129CC
:10D8500009D00121814601764CF2503A5046FFF73B
:10D860001DFE18B123E00220BDE8F09F012D02D07B
:10D87000022D00D00425D346DFF840A015E0220198
:10D8800030463946FEF7FAFC81B208EB4400FFF758
:10D89000D5FD5846FFF702FEDAF8102022F001020B
:10D8A000CAF8102018B9641CE4B2AC42E7D30022D5
:10D8B00089F81820D8E70000A83A0020002002408C
:10D8C00005480169090605D50449416004494160DC
:10D8D0000020704701207047002002402301674567
:10D8E000AB89EFCD2DE9F84FDFF8A091002309F1C6
:10D8F000040A0AF1040B1C464FF00F080BF1040E4A
:10D9000001270A68A7403A40BA4272D1DFF880C1C5
:10D910004D68A5EB0C0665452BD00DDC032D34D0EE
:10D9200005DC35B3012D19D0022D2FD11BE0112DAF
:10D9300016D0122D2AD119E0B6F5881F19D006DCB1
:10D94000B6F5803F15D0B6F5801F1FD111E0B6F5B2
:10D95000001F0ED0B6F5041F18D10AE0CB6815E001
:10D96000CB681B1D12E0CB6808330FE0CB680C338B
:10D970000CE08B682BB1012B4FF0080303D04761FB
:10D9800004E0042302E0076100E00023FF2A01D83D
:10D99000064601E000F104064FEA840501D9A5F12D
:10D9A0002005376808FA05FC27EA0C0703FA05F595
:10D9B00047EA050737604D68ED0060D5354DAE6923
:10D9C00046F00106AE61AD6924F0030605F00105DD
:10D9D0000095314D7719BE68A5072D0F08FA05FC93
:10D9E00026EA0C06DFF8B4C0604503D14FF0000C06
:10D9F00017E044E0DFF8A8C0604502D14FF0010C09
:10DA00000FE0DFF8A0C0604502D14FF0020C08E043
:10DA1000DFF894C0604502D14FF0030C01E04FF0F5
:10DA2000040C0CFA05FC4CEA060CC7F808C04D685B
:10DA3000D9F80060ED034D4601D5164300E096434A
:10DA40002E604D68DAF80060AD03554601D51643E7
:10DA500000E096432E604D68DBF80060ED025D4605
:10DA600001D5164300E096432E604D68DEF8006055
:10DA7000AD02754601D5164300E096432E60641C46
:10DA8000102CFFF43DAFBDE8F88F0000000401400A
:10DA90000000111000100240000001400008014089
:10DAA000000C014000100140001401400AB1016166
:10DAB00070470904FBE70000EFF3108172B60748D6
:10DAC0000068406A064B82081868121AC2F30D02F9
:10DAD000104481F310881860704700006C3A0020F1
:10DAE00054010020074810B5016841F010010160A1
:10DAF000032000F05DF80F2000F006F800F056F863
:10DB0000002010BD0020024010B588B005A968466D
:10DB100000F020F90398B0F5806F08D0B0F5A06F41
:10DB200035D0B0F5C06F34D0B0F5E06F33D0012000
:10DB30001A494FF0804200240968B1FBF0F04FF41D
:10DB40007A61B0FBF1F11648491E02604FF6FF7290
:10DB5000C0E90324C0E9011444611248C16941F0DD
:10DB60000101C161C06900F0010006900C4800F09D
:10DB700042FC002809D10C480460094800F057FC19
:10DB8000002802D1064800F06FFC08B010BD02204A
:10DB9000CEE70420CCE70820CAE7000058010020A7
:10DBA0006C3A002000100240540100207047000031
:10DBB000064A00F0070110684FF6FF03184040EADC
:10DBC0000120034908431060704700000CED00E09D
:10DBD0000000FA052DE9F047DFF8688104460E469B
:10DBE000D8F8000000F00700B0420CD2D8F80010BE
:10DBF00021F007013143C8F80010D8F8000000F008
:10DC00000700B04273D120784F4F800705D5786860
:10DC1000A16820F0F000084378602078C00755D054
:10DC20006068012201280CD0022828D0022393FA30
:10DC3000A3F1B1FA81F141F02001490904D039681A
:10DC400003E04FF40033F2E7796A93FAA3F3B3FAEF
:10DC500083F303F01F039A40114248D0796821F002
:10DC6000030101437960FFF727FF0546606841F231
:10DC7000883101280CD00228894615D022E04FF0C7
:10DC80000073D4E7FFF718FF411B494501D916E09F
:10DC900089467868C0F381000128F3D116E0FFF7C8
:10DCA0000BFF411B49450AD87868C0F38100022860
:10DCB000F5D10BE0FFF700FF411B494502D90320D6
:10DCC000BDE8F087786810F00C0FF3D1D8F8001099
:10DCD000404601F00701B1420BD9016821F007016C
:10DCE00031430160006800F00700B04201D001201C
:10DCF000E6E72078400705D57868E16820F4E06021
:10DD0000084378602078000706D57868216920F4F8
:10DD1000605040EAC100786000F06CF87968F02249
:10DD200092FAA2F201F0F001B2FA82F2D140074A6F
:10DD3000515CC840064908600F20FFF7E5FE00204F
:10DD4000BEE700000020024000100240809F010852
:10DD5000580100200F2202600C4A536803F00303AD
:10DD60004360536803F0F0038360536803F4E06397
:10DD7000C36052684FF4E06303EAD20202610448D0
:10DD8000006800F0070008607047000000100240C3
:10DD90000020024008480949006849684FF4E062E1
:10DDA00092FAA2F201F4E061B2FA82F2D140044A9E
:10DDB000515CC8407047000058010020001002402C
:10DDC000909F010808480949006849684FF460526B
:10DDD00092FAA2F201F46051B2FA82F2D140044AFE
:10DDE000515CC840704700005801002000100240FC
:10DDF000909F010810B519A085B00FC88DE80F00DD
:10DE00001AA01B4B0068049059681A4801F00C02D4
:10DE1000042A1DD0082A1BD14FF4701494FAA4F4DC
:10DE200001F47012B4FA84F4E240C9031DF8022030
:10DE300010D559684FF4003393FAA3F301F400317D
:10DE4000B3FA83F3D94004AB595CB0FBF1F0504313
:10DE500005B010BD08485043FAE70000020304056E
:10DE6000060708090A0B0C0D0E0F10100102000026
:10DE70000010024000127A0000093D002DE9F84F21
:10DE800004460078FE4EC0074FF001057FD0706851
:10DE90004FF40038C0F38100012807D07068C0F348
:10DEA000810002281BD17068C00318D598FAA8F029
:10DEB000B0FA80F040F02000400901D0306800E066
:10DEC000706A98FAA8F1B1FA81F101F01F0105FA20
:10DED00001F108425BD06068002879D057E06068A3
:10DEE000B0F5803F0BD010B1B0F5A02F11D0306845
:10DEF00020F480303060306820F4802002E0306808
:10DF000040F480303060606818B3FFF7D5FD0746F5
:10DF100009E0306840F480203060F0E7FFF7CCFD86
:10DF2000C01B642870D898FAA8F0B0FA80F040F0CE
:10DF30002000400901D0306800E0706A98FAA8F12A
:10DF4000B1FA81F101F01F0105FA01F10842E5D0B3
:10DF50001DE0FFF7B1FD074604E0FFF7ADFDC01B74
:10DF60006428DFD898FAA8F0B0FA80F040F02000DA
:10DF7000400901D0306800E0706A98FAA8F1B1FA5F
:10DF800081F101F01F0105FA01F10842E5D1207885
:10DF9000DFF8F08280074FF0000A4FF002075AD5F1
:10DFA00070684FF0F80B10F00C0F07D07068C0F3DA
:10DFB000810002281CD17068C00319D497FAA7F019
:10DFC000B0FA80F040F02000400902D0306801E053
:10DFD0008AE0706A97FAA7F1B1FA81F101F01F01A6
:10DFE00005FA01F108422BD0206901287CD127E0F5
:10DFF000206988B395FAA5F0B0FA80F048F820506F
:10E00000FFF75AFD814606E04DE1FFF755FDA0EB15
:10E010000900022886D897FAA7F0B0FA80F040F0FD
:10E020002000400901D0306800E0706A97FAA7F13B
:10E03000B1FA81F101F01F0105FA01F10842E4D0C3
:10E0400030689BFAABF220F0F8016069B2FA82F214
:10E0500090400143316025E0FFE795FAA5F1B1FA60
:10E0600081F148F821A0FFF727FD814605E0FFF781
:10E0700023FDA0EB09000228CCD897FAA7F0B0FA4C
:10E0800080F040F02000400901D0306800E0706A64
:10E0900097FAA7F1B1FA81F101F01F0105FA01F138
:10E0A0000842E4D1207800076DD5A069B8B395FA8D
:10E0B000A5F0B0FA80F008EB8000C0F88054FFF7BC
:10E0C000FBFC814605E0FFF7F7FCA0EB0900022806
:10E0D000A0D897FAA7F0B0FA80F040F06000B5EB56
:10E0E000501F02D130680CE063E197FAA7F0B0FA54
:10E0F00080F040F06000B7EB501F01D1306A00E0C3
:10E10000706A97FAA7F1B1FA81F101F01F0105FADF
:10E1100001F21042D7D00120FFF726FB33E0FFE7E2
:10E1200095FAA5F1B1FA81F108EB8101C1F880A45B
:10E13000FFF7C2FC814605E0FFF7BEFCA0EB09003B
:10E14000022899D897FAA7F0B0FA80F040F0600062
:10E15000B5EB501F01D130680BE097FAA7F0B0FA89
:10E1600080F040F06000B7EB501F01D1306A00E052
:10E17000706A97FAA7F1B1FA81F101F01F0105FA6F
:10E1800001F21042D8D12078400763D5F06940F001
:10E190008050F061F069DFF8F0B000F0805000903E
:10E1A000DBF8001041F48071CBF80010FFF784FC1D
:10E1B000814605E0FFF780FCA0EB0900642872D8D7
:10E1C000DBF80000C005F5D5E06801280AD008B1E9
:10E1D000052813D0306A20F001003062306A20F048
:10E1E000040002E0306A40F001003062E06841F271
:10E1F000883B80B3FFF760FC81460AE0306A40F05C
:10E2000004003062EEE7FFF757FCA0EB0901594527
:10E2100049D897FAA7F0B0FA80F040F04000B5EB8B
:10E22000501F01D130680BE097FAA7F0B0FA80F0E8
:10E2300040F04000B7EB501F01D1306A00E0706A37
:10E2400097FAA7F1B1FA81F101F01F0205FA02F184
:10E250000842D8D033E0FFE7FFF72EFC814605E007
:10E26000FFF72AFCA0EB090159451CD897FAA7F043
:10E27000B0FA80F040F04000B5EB501F08D105E047
:10E2800000100240000042420070004030680CE084
:10E2900097FAA7F0B0FA80F040F04000B7EB501FBB
:10E2A00002D1306A01E08AE0706A97FAA7F1B1FA08
:10E2B00081F101F01F0205FA02F10842D0D1E069B4
:10E2C00098B37168C1F38101022972D002284FF01E
:10E2D00080714FF0007B50460AD091FAA1F1B1FA5B
:10E2E00081F148F82100FFF7E7FB04465F4669E04B
:10E2F0008A4691FAA1F1B1FA81F1C14648F82100AC
:10E30000FFF7DAFBA84607465D4604E0FFF7D4FBBB
:10E31000C01B022853D895FAA5F0B0FA80F040F05F
:10E320002000400902D0306801E060E0706A95FA90
:10E33000A5F1B1FA81F101F01F0208FA02F10842D9
:10E34000E4D1206AB0F5803F05D17068A16820F45F
:10E35000003008437060D4E908010843716821F473
:10E360007411084370609AFAAAF0B0FA80F0474638
:10E3700049F82080FFF7A0FB044604E0FFF79CFB70
:10E38000001B02281BD895FAA5F0B0FA80F040F0E7
:10E390002000400901D0306800E0706A95FAA5F1CC
:10E3A000B1FA81F101F01F0107FA01F10842E5D04D
:10E3B0001DE01EE0FFF780FB001B022802D90320AE
:10E3C000BDE8F88F97FAA7F0B0FA80F040F020008F
:10E3D000400901D0306800E0706A97FAA7F1B1FAFD
:10E3E00081F101F01F0105FA01F10842E2D100209C
:10E3F000E6E70120E4E710B50446022084F839007E
:10E400002068016A41F21112114207D1016A92108B
:10E41000114203D1016821F001010160204600F0A2
:10E4200021F8002084F8390084F8380010BD10B5B8
:10E43000040003D094F8390010B107E0012010BDAA
:10E44000002084F83800204600F00DF8022084F8FF
:10E450003900211D206801F03FF8012084F83900BF
:10E46000002010BD70477047022180F83910016804
:10E470000A6842F001020A60012180F83910002088
:10E48000704770B5044690F838000D4601280DD04D
:10E49000012684F83860022084F8390042B1042A49
:10E4A00018D0082A2AD00C2A4DD139E0022070BD9C
:10E4B000206801F04FF82068816941F0080181610E
:10E4C0002068816921F004018161206881692A69DD
:10E4D000114311E0206801F069F82068816941F476
:10E4E000006181612068816921F480618161206817
:10E4F00081692A6941EA0221816124E0206801F0F2
:10E5000083F82068C16941F00801C1612068C169D0
:10E5100021F00401C1612068C1692A69114311E039
:10E52000206801F09DF82068C16941F40061C16173
:10E530002068C16921F48061C1612068C1692A69CC
:10E5400041EA0221C16184F83960002084F8380072
:10E5500070BD10B50446022084F839002068016AB5
:10E5600041F21112114207D1016A9210114203D1F6
:10E57000016821F001010160204600F021F800202F
:10E5800084F8390084F8380010BD10B5040003D0B9
:10E5900094F8390010B107E0012010BD002084F884
:10E5A0003800204600F00DF8022084F83900211DC3
:10E5B000206800F091FF012084F83900002010BD90
:10E5C0007047704710B504460068012200F0B6FF9E
:10E5D00007492068884203D1416C41F400414164FD
:10E5E0002068016841F001010160002010BD0000B9
:10E5F000002C014070B5040018D0022084F83900C6
:10E600002068C16821F40051C16020680025C56000
:10E610002068056120684561204600F038F8E56310
:10E6200084F8395084F83850002070BD012070BD46
:10E6300070B5040004D094F83900002510B106E04C
:10E64000012070BD84F83850204600F021F80220E7
:10E6500084F839002068C16821F40051C160204667
:10E6600001F020F82068016921F4904101612068DF
:10E67000416921F02A0141612068C16841F40051DB
:10E68000C160E563012084F83900002070BD704747
:10E69000704704F0D3FB002070471CB508F00CFD58
:10E6A00000281BD09E208DF80000E7208DF8010087
:10E6B0006946102000F066FC08F0FEFC00280DD032
:10E6C00000208DF800006946082000F05BFC01A9DD
:10E6D000002008F085FC012800D000201CBD0000AF
:10E6E00070B5104C0D21204606F0F5FE0D4D60145E
:10E6F000103528600E21204606F0EDFE4FF48040D4
:10E70000286001220C21204606F0A3FE206820F09C
:10E710000F002060206840F0070020600120286082
:10E7200070BD0000000C01402DE9F04117460D4678
:10E7300080460026FFF7C4F8A80706D000206E2206
:10E740000DA104F006FC00240DE00120F7E757F8C6
:10E75000242008EB840100230220FFF76FF808B1A2
:10E76000012603E0641CB4EB950FF0D3FFF75CF8CF
:10E770003046BDE8F08100002E2E5C2E2E5C2E2E41
:10E780005C736F757263655C6869635F68616C5C1C
:10E7900073746D33325C73746D3332663130337839
:10E7A000625C666C6173682E630000002DE9F007FF
:10E7B00010F03F0308BF402310F0800FDFF8C09037
:10E7C000DFF8C0A04FF40054A9F104062CD0002BB0
:10E7D00012BFDFF8B480BDE8F007704700274FF0A4
:10E7E000080CDAF8045010E0491EFDD1D8F80000FA
:10E7F0003460C0F300312846401EFDD178085B1E0E
:10E8000040EAC117BCF1010C05D0002B1CBFC9F8B0
:10E8100000402946E8D127FA0CF002F8010B002B42
:10E82000DCD1BDE8F0077047002B19BF4FF4804CD6
:10E83000DAF80420BDE8F007704700BF11F8015B6B
:10E84000082712E0E80714BFC6F800C0C9F800C0E6
:10E85000C9F800401046401EFDD134601046401EED
:10E86000FDD16D085B1E7F1E04D0002BEAD1BDE8F0
:10E87000F0077047002BE1D1BDE8F00770470000BA
:10E88000140C014078040020080C0140034A52781F
:10E890000AB100F005B800F055B900007804002076
:10E8A0002DE9F04FA04F4FF4804AC7F800A07E1426
:10E8B0003D1D2E603E60C20714BFC7F800A0C5F81A
:10E8C00000A02E603E6042085FEAC27C14BFC7F819
:10E8D00000A0C5F800A02E603E60830802445FEAF5
:10E8E000C37C14BFC7F800A0C5F800A02E603E602E
:10E8F0001344C2085FEAC27C14BFC7F800A0C5F881
:10E9000000A02E603E601A44D20714BFC7F800A0D2
:10E91000C5F800A02E603E60C5F800A02E603E60E5
:10E92000C7F800A02E603E60DFF800B2DBF80420DC
:10E9300022F07062CBF80420DBF80420CBF804202E
:10E94000C7F800A0DFF8E8E19EF81C20131E03D0F2
:10E950002E603E60521EFBD12E60DFF8D891D9F8B0
:10E9600000203E60C2F300322E60D9F800C03E6045
:10E97000CCF3003C42EA4C022E60D9F800C03E6065
:10E98000CCF3003C42EA8C02012A1DD0022A18BFB7
:10E99000042A7DD013F1210003D02E603E60401E7A
:10E9A000FBD1DBF8040020F07060CBF80400DBF84A
:10E9B000040040F04070CBF80400C5F800A0C7F890
:10E9C00000A01046BDE8F08F10F0020F4AD00024DE
:10E9D000A04620232E60D9F800C03E60CCF3003C56
:10E9E0006408E04444EACC745B1EF3D12E60D9F88D
:10E9F00000303E6088EA133313F0010F18BF08227D
:10EA0000002918BF0C609EF81C1019B12E603E60E2
:10EA1000491EFBD1DBF8041021F07061CBF8041023
:10EA2000DBF8041041F04071CBF80410C5F800A0E9
:10EA300010F0800F0AD0404840490068B0FBF1F068
:10EA40003F494968B1FBF0F0CEF80C009EF8100089
:10EA5000002818BFC5F800A061D02E603E60401E9F
:10EA6000FBD15CE01BB12E603E605B1EFBD1DBF88E
:10EA7000043023F07063CBF80430DBF8043043F04B
:10EA80004073CBF80430C5F800A00968002300E00B
:10EA900017E04FF0200CCC0714BFC7F800A0C5F852
:10EAA00000A02E603E600B444908BCF1010CF2D17D
:10EAB000D90714BFC7F800A0C5F800A02E603E60BB
:10EAC000B6E79EF81DC0BCF1000F1CBF10F0020F8E
:10EAD000212103D02E603E60491EFBD11BB12E6068
:10EAE0003E605B1EFBD1DBF8041021F07061CBF8B7
:10EAF0000410DBF8041041F04071CBF80410C5F8A5
:10EB000000A0BCF1000F0AD010F0020F04BFC5F83E
:10EB100000A0212003D12E603E60401EFBD1C7F82B
:10EB200000A01046BDE8F08F100C0140000C014021
:10EB300078040020080C01405801002000A24A047B
:10EB4000001000E02DE9F04FDFF810A44FF4804EE4
:10EB50004FF0000CCAF800E00AF104094FF4005726
:10EB6000C9F80070FE4D6A6813465B1EFDD1CAF8F5
:10EB7000007013465B1EFDD1C30714BFCAF800E046
:10EB8000C9F800E0C9F8007013465B1EFDD1CAF851
:10EB9000007013465B1EFDD10CEB00044FEA500CD5
:10EBA0005FEACC7314BFCAF800E0C9F800E0C9F806
:10EBB000007013465B1EFDD1CAF8007013465B1E41
:10EBC000FDD164444FEA900C5FEACC7314BFCAF8DD
:10EBD00000E0C9F800E0C9F8007013465B1EFDD1E3
:10EBE000CAF8007013465B1EFDD164444FEAD00C96
:10EBF0005FEACC7314BFCAF800E0C9F800E0C9F8B6
:10EC0000007013465B1EFDD1CAF8007013465B1EF0
:10EC1000FDD104EB0C03DB0714BFCAF800E0C9F810
:10EC200000E0C9F8007013465B1EFDD1CAF8007001
:10EC300013465B1EFDD1C9F800E0C9F80070134609
:10EC40005B1EFDD1CAF8007013465B1EFDD1CAF8E9
:10EC500000E0C9F8007013465B1EFDD1CAF80070D1
:10EC600013465B1EFDD1BF4BD3F804C02CF0706C73
:10EC7000C3F804C0D3F804C0C3F804C0CAF800E065
:10EC80002C7FB4F1000C0BD0C9F8007013465B1E4A
:10EC9000FDD1CAF8007013465B1EFDD1641EF3D18E
:10ECA000C9F8007013465B1EFDD1DFF8BCB2DBF87B
:10ECB0000030CAF80070C3F300331446641EFDD15F
:10ECC000C9F800701446641EFDD1DBF80040CAF894
:10ECD0000070C4F300341646761EFDD143EA4403A7
:10ECE000C9F800701446641EFDD1DBF80040CAF874
:10ECF0000070C4F3003415466D1EFDD143EA84084C
:10ED0000B8F1010F24D0B8F1020F18BFB8F1040F09
:10ED100072D01CF121010BD0C9F800701046401EC2
:10ED2000FDD1CAF800701046401EFDD1491EF3D136
:10ED30008C48416821F070614160416841F0407148
:10ED40004160C9F800E0CAF800E04046BDE8F08F35
:10ED500010F0020F51D0002635464FF0200C00BFB6
:10ED6000C9F8007013465B1EFDD1DBF80030CAF80D
:10ED70000070C3F3003413465B1EFDD173082544B5
:10ED800043EAC476BCF1010CEAD1BC46C9F8007074
:10ED9000734C13465B1EFDD1DBF80030CAF800C08F
:10EDA000C3F30033521EFDD185EA030212F0010FB6
:10EDB00018BF4FF00808002918BF0E60257F002DEE
:10EDC00018BF63680CD000BFC9F800C01A46521EB5
:10EDD000FDD1CAF800C01946491EFDD16D1EF3D100
:10EDE00060494A6822F070624A604A6842F04072A4
:10EDF0004A60C9F800E047E069E0BCF1000F0CD0C0
:10EE0000C9F8007013465B1EFDD1CAF800701346A6
:10EE10005B1EFDD1BCF1010CF2D1524BD3F804C002
:10EE20002CF0706CC3F804C0D3F804C04CF0407CE4
:10EE3000C3F804C0F446C9F800E000240B6820259C
:10EE4000D90714BFCAF800C0C9F800C0C9F80070DB
:10EE50001146491EFDD1CAF800701146491EFDD168
:10EE60001C445B086D1EEBD1E10714BFCAF800C05B
:10EE7000C9F800C03B46C9F800701146491EFDD1D3
:10EE8000CAF80030521EFDD110F0800F0AD037486A
:10EE900037490068B0FBF1F036494968B1FBF0F042
:10EEA0002F49C8602E48027C002A1CBFC9F800E028
:10EEB000416851D0C9F800700846401EFDD1CAF81B
:10EEC00000700846401EFDD1521EF3D144E0244993
:10EED0004C7F002C1CBF10F0020F21230CD000BF70
:10EEE000C9F800701146491EFDD1CAF800701146DC
:10EEF000491EFDD15B1EF3D1BCF1000F0DD000BF48
:10EF0000C9F800701146491EFDD1CAF800701146BB
:10EF1000491EFDD1BCF1010CF2D112494B6823F01E
:10EF200070634B604B6843F040734B60C9F800E07E
:10EF300094B110F0020F04BFC9F800E021210BD1F9
:10EF4000C9F800701046401EFDD1CAF80070104686
:10EF5000401EFDD1491EF3D10EE00000100C01400F
:10EF600078040020000C0140080C014058010020EA
:10EF700000A24A04001000E0CAF800E04046BDE8E4
:10EF8000F08F00002DE9F001441E3CBFBDE8F00108
:10EF900070474FF480474FF400581348114DD0F894
:10EFA00004202E1F11F8013B4FF0080C13F0010F45
:10EFB00014BF37602F60C5F800801046401EFDD199
:10EFC000C6F800801046401EFDD15B08ACF1010C74
:10EFD000641E3CBFBDE8F0017047BCF1000FE5D1F5
:10EFE000E0E70000140C01407804002070B50C46E6
:10EFF00082780188C0780D4D62F31F4141EA0060BC
:10F00000A97801290CD000200021E9702070010AA4
:10F010006170010CA170000EE0704FF0041070BD23
:10F0200000F006F80028EFD0F0E700000400002010
:10F0300070B506461D48864200D906461C4C1D4D3B
:10F04000E078C00710D00021AA6A16209047E86A2D
:10F050008047800708D5686A8047A1680844A06097
:10F060000021AA6A19209047AA6A314601209047D8
:10F0700010B10020207070BD01202070E078C10721
:10F0800011D080070BD4A0680B4AC0F30C0000F02D
:10F090003F01C1F1400110442161AA69904701215B
:10F0A000AA6A16209047304670BD000040420F000B
:10F0B0000400002038A4010898040020024A1161CD
:10F0C000024A9269104700000400002038A4010899
:10F0D0002DE9F0410078124E00F001050024F0788F
:10F0E0000F4600F00100A84211D045B1B01D0470D8
:10F0F00044703471B460F4600E3004604460B078E1
:10F10000012806D1284600F00DF810B1F5703C70CA
:10F1100001E0FF2038704FF00110BDE8F0810000E1
:10F120000400002070B5134D134C80B128780028DE
:10F130000CD0012028610146A2691048904720B9EF
:10F140000121A26A1620904790B1002070BD0021D5
:10F15000A26A16209047E06A8047800708D5606A57
:10F160008047A9680844A8600021A26A1920904736
:10F17000012070BD0400002038A40108980400207C
:10F180002DE9F0410D460746FEF7E0FA0646FEF788
:10F19000C1FA1F4A0446517801290AD0002405F813
:10F1A000016B200A05F8014B012905F8010B08D075
:10F1B00029E038883C2800D93C208442EFD9044615
:10F1C000EDE7D36820461946124E06E0C1F30C0164
:10F1D000401E775C05F8017B491C0028F6D1181900
:10F1E000D060D07803280ED19068D168411AB1F56B
:10F1F000005F08D29178C0F30C00012903D1D170CF
:10F200003044FFF75BFFE41C44F40030BDE8F081BC
:10F2100004000020980400202DE9F0410678002524
:10F220000C46F00704D0FEF791FA04F8010B012513
:10F23000B0070DD5FEF76EFA04F8010B010A04F8C9
:10F24000011B010C04F8021B000E04F8010C2D1D1B
:10F25000700718D50E4B002603F114025E71116879
:10F2600050685F79002FF9D121700A0A62700A0C88
:10F27000A270090EE1702071010A6171010C000E8B
:10F28000A171E0712D1D45F48030BDE8F0810000D2
:10F290000400002010B5054CE06A8047800703D5C4
:10F2A000606ABDE810400047002010BD38A4010886
:10F2B0002DE9F041104D04780E46A878012802D1BE
:10F2C000002000F01BF800271CB1012C03D0002007
:10F2D00007E0012003E0012000F010F808B1AC7055
:10F2E00000E0AF70EF7008B1377001E0FF203070C0
:10F2F0004FF00110BDE8F0810400002010B5104A65
:10F300000021104C117060B1A1680F48884708B106
:10F31000002010BD21690220884778B1E06880474D
:10F32000F6E70021A26A162090470021A26A192060
:10F330009047216900208847E0688047012010BD80
:10F340000400002038A40108A1F9000870B50446A3
:10F35000FEF7FCF90546FEF7DDF925706070010A3D
:10F36000A170010CE170000E2071052070BD00003D
:10F37000074AD378DB0703D1007830B1012804D0E5
:10F38000FF2008704FF00110704750700020F8E720
:10F3900004000020034A911F0979535C034353542E
:10F3A000704700000A0000200C490D4A0968B0EBC4
:10F3B000910F02D3012050700DE000EB5101491E66
:10F3C000B1FBF0F000235370022803D90321B0FBF6
:10F3D000F1F000E00120506070470000580100206B
:10F3E00078040020144A10B55068144B10F00C013A
:10F3F000134803D0042901D0082901D0036012E08A
:10F400005168536801F470114FF0020413F4803F07
:10F4100004EB914102D053689B0301D5094B00E0F6
:10F42000064B594301605168074AC1F30311515C0F
:10F430000268CA40026010BD0010024000127A004B
:10F440005801002000093D00809F01080D48016817
:10F4500041F00101016041680B4A114041600168BF
:10F460000A4A11400160016821F48021016041686D
:10F4700021F4FE0141604FF41F0181600449C00383
:10F4800008607047001002400000FFF8FFFFF6FE22
:10F4900008ED00E0BFF34F8F05480168054A01F40D
:10F4A000E06111430160BFF34F8F00BFFDE7000033
:10F4B0000CED00E00400FA05044805490068B0FBC3
:10F4C000F1F004494968B1FBF0F0704758010020A1
:10F4D00000A24A04001000E0F0B50268144C154D7B
:10F4E000154E4FF08047A04205D0B84203D0A84245
:10F4F00001D0B04203D122F070034A681A43A042FF
:10F5000005D0B84203D0A84201D0B04203D122F4C2
:10F510004073CA681A4302608A68C2620A688262DB
:10F52000A04201D10969016301214161F0BD0000E0
:10F53000002C0140000400400008004010B50123E9
:10F54000046A8B409C430462036A8A40134303624B
:10F5500010BD000030B5026A22F001020262036AA7
:10F560004268846924F073050C682C4323F002057B
:10F570008B682B430C4DA84206D123F00805CB68BD
:10F5800043EA050323F0040307D14D6922F44072D6
:10F5900045EA02058A6942EA0502426084614968D7
:10F5A0004163036230BD0000002C014030B5026AA7
:10F5B00022F010020262026A436884690D6824F432
:10F5C000E64444EA05248D6822F0200242EA05124E
:10F5D0000C4DA84206D1CD6822F0800242EA051205
:10F5E00022F0400207D14D6923F4406343EA8503CA
:10F5F0008D6943EA850343608461496881630262DF
:10F6000030BD0000002C014030B5026A22F4807247
:10F610000262036A4268C46923F4007324F073052C
:10F620000C682C438D6843EA05230C4DA84206D193
:10F63000CD6823F4006343EA052323F4806307D1F4
:10F640004D6922F4405242EA05128D6942EA0512E0
:10F650004260C4614968C163036230BD002C01404F
:10F6600030B5026A22F480520262036A4268C469B9
:10F670000D6824F4E64444EA05248D6823F400531D
:10F6800043EA0533064DA84204D14D6922F4804275
:10F6900042EA85124260C46149680164036230BD78
:10F6A000002C01402DE9F041044600680169E26840
:10F6B00021F4405111430161A1682069014360694F
:10F6C00001432068C26841F20C639A430A43C26056
:10F6D00020684169A26921F44071114341614C499C
:10F6E00020686426322788423CD1FEF76BFB00EB92
:10F6F000C00101EB001061688900B0FBF1F5FEF775
:10F7000061FB00EBC00101EB00106168B8468900A5
:10F71000B0FBF1F0B0FBF6F06FF01801484305EBD9
:10F72000800107EB0110B0FBF6F000F0F005FEF7EA
:10F7300049FB00EBC00101EB001061688900B0FBE0
:10F74000F1F0B0FBF6F005EB0015FEF73BFB00EB2C
:10F75000C00101EB001061688900B0FBF1F7FEF712
:10F7600031FB3BE0FEF716FB00EBC00101EB0010A4
:10F7700061688900B0FBF1F5FEF70CFB00EBC001FE
:10F7800001EB00106168B8468900B0FBF1F0B0FBF6
:10F79000F6F06FF01801484305EB800107EB01100C
:10F7A000B0FBF6F000F0F005FEF7F4FA00EBC00154
:10F7B00001EB001061688900B0FBF1F0B0FBF6F0DE
:10F7C00005EB0015FEF7E6FA00EBC00101EB0010B7
:10F7D00061688900B0FBF1F7FEF7DCFA00EBC001CD
:10F7E00001EB001061688900B0FBF1F0B0FBF6F0AE
:10F7F0006FF01801484307EB800108EB0110B0FBE4
:10F80000F6F0216800F00F0028448860BDE8F08120
:10F8100000380140014A00F00BB90000E8A30108DC
:10F820000148006870470000E8A30108014800F0A3
:10F83000DFBB0000E8A301080548C16A29B10968D7
:10F840004968406B0068401A7047406B0069704718
:10F85000E8A30108014800F003BC0000E8A3010888
:10F860000548816A29B109684968406B4068401AB7
:10F870007047406B40697047E8A30108014800F0F9
:10F8800040BC0000E8A30108014900F037BD0000BA
:10F89000E8A30108014900F0ADBD0000E8A301089C
:10F8A000014A00F0B1BE0000E8A30108014A00F0DF
:10F8B00023BF0000E8A30108014900F081BF000058
:10F8C000E8A3010870B5124C15460B4606001BD084
:10F8D000D3B1CDB1216BC87A42074FF0FF3015D5B7
:10F8E000C968022912D1616B03202246C8612946EA
:10F8F000184600F089FE002808D1224629463046E5
:10F90000BDE8704000F0F8BE6FF0040070BD00006C
:10F91000E8A30108014800F091BF0000E8A3010836
:10F9200070B515480468154DA00612D52868C6B2F2
:10F93000134803F0A1FB132804D93146104803F003
:10F94000FFFB06E005D14FF013020EA10C4803F0B7
:10F950004AFC200607D5104803F09BFB20B10E4857
:10F9600003F0B2FB286070BD0448083001680B4A00
:10F970001140016070BD000000440040044400409C
:10F98000D83C00203C4441504C696E6B3A4F766540
:10F9900072666C6F773E0A00C83A00207FFFFFEF67
:10F9A00070B50446800728D51B481C490068B0FB89
:10F9B000F1F01B4949681B4BB1FBF0F05860A3F113
:10F9C0001405E868A9682A690A44AA601A6002F066
:10F9D0003F01C1F14001101AC1F50053834208D321
:10F9E000C2F30C00104A29611044104A92699047F2
:10F9F00001E00320E87001206871A00602D5802094
:10FA0000FFF7C8FC14F4607F04D0BDE870404020CC
:10FA1000FFF7C0BC70BD00005801002000A24A04DE
:10FA2000001000E0180000209804002038A401080D
:10FA30002DE9F84F136B14464FF0FF3ADA7A92072C
:10FA40007ED54FF0000900F0FF0BABF115074D46D6
:10FA50004E464A466FF0010C062F72D2DFE807F0DF
:10FA600080AF031E3850606B71B190F821100029EF
:10FA700068D1012180F82110606B80F82010606847
:10FA8000818941F0810181E090F82000002836D082
:10FA90006068818921F08001818115E06068818939
:10FAA00021F0C0018181A06A70B1606B90F82100E3
:10FAB00050B16068818A21F080018182A06A00686B
:10FAC000016821F001010160606B80F8202043E0B3
:10FAD0006068818921F020018181E06A68B1206B32
:10FAE000407950B16068818A21F040018182E06AEA
:10FAF0000068016821F001010160206B42713DE165
:10FB00006068818921F0E0018181A06A70B1606B39
:10FB100090F8210050B16068818A21F080018182D3
:10FB2000A06A0068016821F001010160E06A88B103
:10FB3000206B407970B16068818A21F0400102E059
:10FB400083E083E0FDE08182E06A0068016821F0E3
:10FB500001010160206B4271606B80F821200DE192
:10FB6000E068002871D099B1D968062905D081884C
:10FB7000006803230222FDF729FD206BC17A41F0C2
:10FB80000801C1726068818941F008018181F5E056
:10FB90006068818921F008018181206BC17A21F0A0
:10FBA0000801C172206BC068062807D0E06849E0F0
:10FBB0008188002300681A46FDF708FDDEE0206911
:10FBC000002842D069B3D968062907D0042905D096
:10FBD0008188006800230122FDF7F8FC206BC17AC0
:10FBE00041F01001C1726068818A41F00101818297
:10FBF0006068018A41F0400101826068818941F0BA
:10FC000010018181206B407908B1E06A20B96068F9
:10FC1000818941F0200181816068818941F004017E
:10FC2000B4E76068818921F004018181206BC17A89
:10FC300021F01001C172206BC068062804D004288E
:10FC400002D020690028B3D198E09DE05A79002ABB
:10FC500077D1626B009292F82120002A71D16268FC
:10FC600097893F0702D517887F066AD501EB011CEB
:10FC70005F460CEB4C0E01EB011C6FF006080CEB21
:10FC8000411B152F7CD2DFE807F0880B0D2E1417CF
:10FC90001A8888888888888888883134525D7C00F2
:10FCA000012311E023789B071DD54FF41065022333
:10FCB0000AE00826042307E00226052304E023784F
:10FCC0009B0610D5202606239A4610F4E0634FF4D5
:10FCD000805C69D06FF00807B3F5807F77D0B3F50B
:10FCE000E06F77D15CE04046BDE8F88F0098418333
:10FCF00044E0D868052847D011B3908A40F004004A
:10FD00009082BA4AA068B2FBF0F3012003FB00F234
:10FD10008A4202D8401CFF28F8D9B0F5807F33D042
:10FD200061680A8B22F0FF0202430A8326E0D8684A
:10FD3000062829D1FF2927D8108BC0B20843108389
:10FD40001CE090E0D86806281ED1A849A068B1FB45
:10FD5000F0F4012004FB00F1C8235943B1EB4E0F2E
:10FD600002D2B1EB4B0F02D8401C4028F2D34028FE
:10FD70000AD0118B21F0FF01014311830020B3E76A
:10FD80000BE0D868062801D05046ADE70029F5D031
:10FD9000908A40F010009082F0E76FF00300A3E734
:10FDA00010F4405F16D005E010F4405F02D045F03B
:10FDB0002005E14610F4405314D063450CD0B3F550
:10FDC000005F0CD06FF009008EE700E002E010F455
:10FDD000405FECD0384687E749F4806301E049F49E
:10FDE000C063994610F4404313D0B3F5804F08D058
:10FDF000B3F5004F08D0B3F5404F08D06FF00A00BC
:10FE000072E745F4005504E045F4405501E045F43F
:10FE1000805510F4403315D04FF480376FF00B0C41
:10FE2000BB4211D07F00BB4214D04FF44037BB42DD
:10FE300019D123685FEA036815D5DB0513D546F4AD
:10FE4000E0660CE000270AE023781B060BD546F499
:10FE5000807604E02388DB0505D546F4C066BAF158
:10FE6000020F02D017E060463EE710F4802307D06F
:10FE7000B3F5802F02D06FF00C0035E745F48065B4
:10FE800010F4002007D0B0F5002F02D06FF00D0065
:10FE90002AE745F40075A068009000EBC00303EB6F
:10FEA00000138800B3FBF0FCB3FBF0F86421B3FB54
:10FEB000F0F0B0FBF1F0BCFBF1FC6FF0180358431D
:10FEC00008EB8000322303EB0010B0FBF1F1009847
:10FED0006CF31F11000189B2B0FBF1F0000964233B
:10FEE0005843B0EB4E0F02D2B0EB4B0F02D86FF07D
:10FEF0000700F9E6908920F4005090816068018144
:10FF0000216BC1F80CA0206B0761206BC16806292A
:10FF100002D0C07A000706D5E06860B1818803236B
:10FF20000068022205E0E06828B1818800230068AB
:10FF30001A46FDF74BFB206BC16804291ED0062929
:10FF40001CD0C07AC00619D5206950B18188002321
:10FF50000068012203E08188002300681A46FDF74B
:10FF600035FB6069A0B1216BC96802290AD0062956
:10FF700008D08188002300681A4607E0206900281D
:10FF8000E9D1EEE78188006803230222FDF71EFB1A
:10FF9000A06958B1B7F5803F22D0B7F5403F1FD0D8
:10FFA0008188002300681A46FDF710FBE06928B13C
:10FFB0008188006800230122FDF708FB6168A1F831
:10FFC0000C9060680582606886826068818941F46F
:10FFD00000518181206BC17A41F00401C172CDE6EC
:10FFE0008188032300680222DEE7000000CA9A3BF2
:10FFF00008B5009921F001010091016B096911B167
:020000040801F1
:10000000B1F5803F0CD1C06950B1016800798968B1
:10001000C14011F0010F03D1009840F001000090A1
:10002000009820F002000090009820F00800009056
:10003000009820F004000090009961F300000099FE
:10004000490861F341000099890861F38200009931
:10005000C90861F3C3000099090961F31F1008BDC5
:1000600008B5416B91F8211021B1009941F00101CF
:10007000009107E041680988009A8911491C61F3E1
:1000800000020092006B0099427962F341010091F5
:100090008279009962F382010091C279009962F33A
:1000A000C3010091027A009962F304110091427A2F
:1000B000009962F345110091817A009861F38610EE
:1000C0000090009961F300000099490861F3410034
:1000D0000099890861F382000099C90861F3C3009F
:1000E0000099090961F304100099490961F3451069
:1000F0000099890961F386100099C90961F3DF103D
:1001000008BD2DE9F041446822880021A5890B46ED
:100110001540AD060F464FF001064ED5056B95F81C
:1001200005C0BCF1000F03D0ED68022D04D007E03C
:10013000A188EE71202140E0456BED69012D2BD0A7
:10014000A388456BAC6804F1010CC5F808C02370A6
:100150004468A48965050BD4E40409D5456B4FEACE
:10016000132EAC6804F1010CC5F808C084F800E057
:10017000456B2C69641C2C61456B2D68AC421CD10D
:100180004468A58925F01005A581046B6771046B8F
:10019000E468022C02D00FE0A488D2E7456BEC693A
:1001A000EF61012C04D0022C06D0032C05D101E014
:1001B000012102E0042100E002214568AC891440DD
:1001C000E40602D5AC8841F04001AC891440240615
:1001D00051D5446B94F820C0BCF1000F04D0AB891A
:1001E00043F00103AB8146E0D4F814C0656865456F
:1001F00019D0036BDB68022B02D1E369022B2FD0ED
:10020000E3685D1CE56044681B78A4895FEA445C90
:1002100009D4E40407D5446B05F1010CC4F80CC003
:100220002C7843EA0423446B65696D1C656144685E
:10023000A380436B5C685B699C421CD143689C89CA
:1002400024F080049C8143689C8944F040049C8194
:10025000436B83F82170036BDC68022C02D008E04A
:10026000638BE0E7446BE469012C04D1DB7ADB06A5
:1002700001D441F0010143689C891440640605D50E
:100280009C8924F040049C8141F00801130705D5A6
:1002900043689B88036B41F02001DE71930705D50D
:1002A00043689B88036B41F480715E72D30705D06D
:1002B00043689B88036B41F400719E72D30508D597
:1002C00043681C8824F480741C80036B41F0800117
:1002D0001E72920506D54268138823F400731380BA
:1002E00041F48061002907D0006B0268002A03D026
:1002F000BDE8F04108461047BDE8F08110B50C4656
:10030000096BCA7AD20701D0002010BD0860216BAA
:1003100000200871216B4871216B8871216BC871B5
:10032000216B0872216B4872216B8872216BC86047
:10033000616B81F821002421606BFBF7D6FF608C94
:10034000FDF7D6F8E06818B100680121FDF770F9F3
:10035000206918B100680121FDF76AF9606918B1D8
:1003600000680121FDF764F9A06918B10068012156
:10037000FDF75EF9E06918B100680121FDF758F951
:10038000216B0120C872BFE730B5164A164990426A
:1003900003D1CB6843F48043CB60144B984203D124
:1003A0000C6944F400340C61114CA04203D10D6976
:1003B00045F480250D6100BF00BF00BF00BF904223
:1003C00003D1CA6822F48042CA60984203D10A6904
:1003D00022F400320A61A04203D1086920F480208F
:1003E000086130BD00380140001002400044004068
:1003F000004800402DE9F0470025DFF88C81DFF848
:100400008C91DFF88CA1634E0C46012738B1291F6F
:10041000012801D002284ED00846BDE8F087606868
:10042000FFF7B2FF94F9240000280CDB00F01F0155
:100430008F404009800000F1E020C0F88071BFF3D8
:100440004F8FBFF36F8FE06A18B141790079FCF7E5
:100450003DFFA06A18B141790079FCF737FF616868
:10046000414503D1B06920F48040B06161684945DD
:1004700003D1F06920F40030F0616168514503D187
:10048000F06920F48020F061206B0571206B4571CC
:10049000206B8571206BC571206B0572206B4572D6
:1004A000206B8572606B80F82150206BC17A21F03F
:1004B0000201C17262E0206BC17ACA0760D089076D
:1004C0005CD40571206B4571206B8571206BC57103
:1004D000206B0572206B4572206B8572606B80F813
:1004E0002150606B4583606BC561606B80F8205064
:1004F000206BC560206B0561216B0320C8726168A9
:10050000414503D1B06940F48040B061616849451C
:1005100003D1F06940F40030F0616168514503D1C6
:10052000F06940F48020F06194F92400002809DB90
:1005300000F01F0107FA01F14009800000F1E020FE
:10054000C0F8801294F92400002808DB00F01F0195
:100550008F404009800000F1E020C0F80071E06A9F
:1005600018B141790079FCF751FEA06A18B14179C0
:100570000079FCF74BFE6068FFF706FF00204CE7B0
:100580004FF0FF3049E700000038014000440040D0
:10059000004800400010024030B4C16A0968496850
:1005A00019B1416B096800292CD141688A8922F070
:1005B00010028A81026B00210C46D268022A0BD1FC
:1005C000436BDA69DC61012A04D0022A04D0032AD1
:1005D00005D103E0012102E0022100E00421426B89
:1005E00013681361026B54714268938943F02003CE
:1005F0009381006B0268002A04D0002902D030BC2D
:100600000846104730BC70472DE9F041050008D07E
:1006100039B1106BC37A5B0706D44FF0FF30BDE8E9
:10062000F0816FF00400FAE740796FF001040128CF
:1006300060D05068838923F020038381506B016070
:10064000136B00201872136B5872136BD871136BF5
:100650009872536B9D60536B1861136B0120587136
:10066000136B8020DB68022B04D1536BDB69012BF9
:1006700000D10020D36A5BB39E794FF4405707EA5C
:100680000636064346F002005668B7895FEAC74C53
:1006900003D57F0501D440F4A0601B681860361DA7
:1006A0009E60DD605960D06A0068036843F0010312
:1006B00003605068838A43F04003838250688389D3
:1006C00043F010038381106BC068022805D00FE04F
:1006D0005068838943F03003F4E7506BC3693BB93A
:1006E0000223C361506B1A3000F006F8801C01D061
:1006F000002094E7204692E72DE9F04114460D468C
:10070000060008D03DB1206BC07A400706D44FF0F8
:10071000FF30BDE8F0816FF00400FAE7606B6FF026
:10072000010890F82110E9B9012280F82120606BBE
:100730008027C660606B4560616B00204861206B5C
:10074000C068022811D1606BC16911B102290BD0B8
:100750000BE0C261606B224629461830FFF754FF58
:10076000801C02D14046D4E70027A16A09B38879EA
:100770004FF44052636802EA003038439A8940F0EF
:100780001200D70403D5520501D440F4A0600A68D2
:1007900010601B1D9360D6605560A06A00680168F8
:1007A00041F0010101606068818A41F0800181822D
:1007B00004E06068818941F0800181810020A8E720
:1007C00010B501235C049A1E10B1012818D109E06C
:1007D000086B006908B1A04212D1886970B1016844
:1007E000007909E0086B006908B1A04208D1886966
:1007F00020B101680079103083400B61002010BDEA
:10080000104610BD816A09684B68426B51680BB194
:10081000002912D15161426B002182F821104168F8
:100820008A8942F040028A81006BC168022904D0A3
:100830000168002901D001200847704710B504461F
:10084000C06828B18188002300681A46FCF7BEFE04
:10085000206928B18188002300681A46FCF7B6FE9B
:10086000606928B18188002300681A46FCF7AEFE53
:10087000A06928B18188002300681A46FCF7A6FE0B
:10088000E06928B18188002300681A46FCF79EFEC3
:10089000208CFCF72DFE216B0020C87210BD0000DB
:1008A0000148006870470000E4A301081CB500205F
:1008B00001906A4601A90848FCF714FC40B10748BA
:1008C000DDE90021007840F0800002F0E9F91CBD6C
:1008D0000349012008701CBDE4470020BE9F0108A9
:1008E0009C03002038B5164D164C28886188421AA2
:1008F00015486168007801F015FE616880B2014416
:100900006160618801448AB2628029888A4206D285
:100910000F4B0E491B7831F8131081420FD96B46EB
:100920000C490D48FCF7AAFB002528B1207818B126
:100930000020FFF7BBFF257065800648606038BD6A
:10094000C49F01089C030020BF9F0108C09F0108AD
:10095000E703002032410020E447002010B50446A0
:10096000400702D50020FFF7BDFF200704D5BDE8F2
:1009700010400020FFF79ABF10BD00207047000014
:100980000348D0E90410081A02490988081A704778
:10099000A4030020B49F010870B50B4D0C4603461C
:1009A000D5E90C0188420BD9401A844200DD044687
:1009B00022461846FBF772FC686B2044686300E02F
:1009C0000024204670BD0000A403002000207047D2
:1009D0002DE9F041194F0C460646D7E90401401AAB
:1009E00017490988081A002802DC0020BDE8F081B8
:1009F000844200DD0446D7E90602002590420FD369
:100A0000104B021919448A420AD30D1A98462A46F5
:100A10003146FBF743FC2E44641B4046C7F8188060
:100A200034B122463146FBF739FCB8692044B8613D
:100A30003969601901443961D8E70000A403002036
:100A4000B49F0108B240002010B5054C6068002832
:100A500005D10120606000F005F80020606010BD45
:100A6000A40300202DE9F047244CA06800283ED0C4
:100A7000D4E90401421AE0684FF0000652EA00018E
:100A800037D021461E4FC969DFF87880DFF87890AB
:100A90001E4D7AB1A069814205D338888B1828444D
:100AA000834200D3421A99F8003038F8130090427C
:100AB00000DA02461648E660007840F0800002F056
:100AC000EFF8E1690144E1616269024462613B88D7
:100AD0002B448B4200D1E561216991420BD199F8F9
:100AE000002038F81210814205D10120E060BDE8F5
:100AF000F087A660FBE7E660F9E70000A4030020AA
:100B0000B49F0108B89F0108E7030020B24000200D
:100B1000B29F010810B50B4C206A18B1A06A401CA6
:100B2000A06210BD01202062606200F00DF800207C
:100B300060622062D4E90C018842F2D0401AFFF7CB
:100B400045FF10BDA403002010B5134C1348164BED
:100B5000216B0A1A12481B780088821A114830F853
:100B6000130082420EDB1148007801F0DBFC216BA0
:100B700008442063A06A00280CD0616A002909D1CA
:100B8000401E06E00120E062606A002802D0A06AF0
:100B9000401CA06210BD0000A4030020F240002011
:100BA000B69F0108B89F0108E7030020B39F010822
:100BB00010B50446400702D52046FFF7ABFF2007DB
:100BC00004D52046BDE81040FFF73EBF10BD70477A
:100BD000002070470020704710B50B4800F03CF82B
:100BE000002810D0084A0948116801700B0A4370A8
:100BF0000B0C8370090EC17011790171517941712B
:100C000091798171012010BDDC030020B03F0020EC
:100C10000E4810B5002141608160C1600C4A01613D
:100C2000C0E90512C0E9072141620A4A8162C0E9B0
:100C30000B124263018038304FF41652026001718A
:100C400041710821817100F015F810BDA403002046
:100C5000B2400020F240002005490A6802600A798B
:100C600082714A79427189790171012070470000CF
:100C70006C04002010B507F0B3FA03F0C3FF0120A5
:100C800010BD10B507F00CFB012010BD10B507F02A
:100C9000A1FB012010BD0000064902680A608279AC
:100CA0000A7142794A71007988710020C87108463A
:100CB00007F008BB6C04002010B510480024104950
:100CC00044608460C4600461C0E90541C0E9071460
:100CD00044620C498462C0E90B4141630480FFF720
:100CE000D0FF06484FF4165138300160047144714A
:100CF00008218171FFF7D0FF10BD0000A403002080
:100D0000B2400020F240002010B5FFF7D5FF10BD23
:100D100070B51948007800282DD0184C0025012600
:100D2000206A50B9D4E90C01884206D1144988429E
:100D300003D02163E56225626163A06A70B1206A15
:100D400060B9E06A50B92662FFF7FEFE2562D4E979
:100D50000C01884202D0401AFFF738FED4E90101A5
:100D6000084308D1D4E90401884204D06660A66033
:100D7000FFF778FE656070BDE5030020A403002046
:100D8000F240002070B505460D480068C1698847EB
:100D9000A0B90C4C35B104F0BDF82060002006F07D
:100DA0006FFF0BE004F0B6F82168401AB0F5967FAB
:100DB00001D3012000E0002003F02CFF012070BDD2
:100DC000709A0108680400200020704700207047D6
:100DD000024910B50880FFF759FF10BDA403002099
:100DE0000A4810B58278018862F31F41C27841EA4F
:100DF000026207490A6002790A7142794A71807970
:100E000088710846FFF748FF10BD0000B03F002082
:100E1000DC03002000B50346FCF7A2FA43F23001E0
:100E200018465DF804EBFCF7AFBA0000F0B5827825
:100E3000204D02F00F0316066F6881882C8802F09F
:100E40000F0207EB021204D5491C21F001011460C6
:100E500011E094603E2909D91F3121F01F014FF0A4
:100E6000FF3404EB411444F4004403E0491C21F036
:100E700001014C02D4602A880A442A80C07810F00C
:100E8000030006D0012807D0022808D003280AD181
:100E900007E04FF4007106E04FF4806103E00021A9
:100EA00001E04FF4C061044A194302EB8300C0F82B
:100EB000001CF0BD1003002000500040002802D1AB
:100EC0000149D020088070471003002000F0C8BA04
:100ED0000949CA1350B101200860002008600B1DA9
:100EE00018604FF4E0500860044803E003200860F5
:100EF0000248001D02607047405C0040100801403D
:100F000010B50B4C0B48A2880078824200D90246EB
:100F10001AB907490020143908718020216801F0AE
:100F2000BFFE216801442160A188081AA08010BD7D
:100F3000F80300209B9F010810B5064C0020A288F2
:100F4000216801F0EFFA216801442160A188081AA4
:100F5000A08010BDF803002070470021FCF714BAF0
:100F600043F22001FCF710BA2DE9F0476E4F04461A
:100F7000A7F1080580074FF00009A5F1140622D556
:100F800001F058FE3878C009FFF7E6FFF888A8801E
:100F90003878C0F3411121B101295AD002296FD10B
:100FA00065E07978DFF884810C2969D2DFE801F007
:100FB000060C6813681827682B31384601F0DAFBF5
:100FC0001FE0FFF79DFF67E0002005E001F042FE13
:100FD000D8F8000039E0012001F00AFCC0B3F5E7C1
:100FE00010F01F0F4CD1B878012140F08000307014
:100FF00000F07F0001F010FE01F02CFE4CE001F04B
:10100000B9FA28B3DDE710F01F0F39D146481B3875
:1010100012E001F03DFCD8B101F01CFE444813E0A1
:1010200000F01F0001282BD1707888B13879B17891
:10103000884225D23F4908442860C2E701F0ECFC11
:1010400030B101F007FE3C48006828B3804723E038
:1010500016E010F01F0013D0012811D100F004F9A0
:10106000D0B900F05DF9B8B900F0AEF807E010F0C3
:101070001F0F05D100F082F970B900F0C3F958B91B
:101080003878000603D4F88808B1002000E08020FA
:1010900001F0CCFDA5F80490600721D53878000652
:1010A0001CD4A888E0B1FFF747FFA888C0B93878FA
:1010B000C0F3411161B101290AD110F01F0007D01E
:1010C000012805D100F062F850B900F037F838B9BE
:1010D000802001F0ABFDA5F8049001E001F0C0FD17
:1010E000200712D53878000606D5A888317908433C
:1010F0000BD0FFF705FF08E03078010605D500F0BA
:101100007F003070002101F087FD600602D50020CD
:10111000FFF780FE200604D5BDE8F0478020FFF7EA
:1011200079BEBDE8F08700000004002024A001087B
:101130001CA00108FF02002020A0010810B51049E2
:10114000104A08791278904203D00F4A12789042E0
:1011500014D1487820B1022805D020280ED10AE009
:10116000FFF732FE02E04888FFF730FE30B101F0B1
:1011700071FD012010BDFFF733FEF7E7002010BD21
:1011800000040020640100206501002010B50B4917
:101190000B4A08791278904203D00A4A127890429A
:1011A00009D14878092806D100F00CFB18B101F0EC
:1011B00051FD012010BD002010BD000000040020E2
:1011C000680100206A01002070B52249224A08798E
:1011D0001278904203D0214A1278904237D11D48AC
:1011E00049781F4C1F4D408804291FD007DC79B176
:1011F00001290FD002290BD0032928D111E0202981
:1012000006D0212919D022291AD023291FD11AE06A
:101210002C6010E0FFF7DEFC05E02C60FFF770FEAD
:1012200009E0FFF7D5FC0028F7D110E0FFF7A5FB98
:101230000BE001F00FFD012070BDFFF7CDFCF2E7E0
:10124000FFF7C6FD01E0FFF79DFD0028F1D100206A
:1012500070BD000000040020640100206501002032
:10126000B03F0020F80300202DE9F041244E25492D
:1012700030790978884203D02349097888423CD1E3
:101280007078224C224D234F0C2836D2DFE800F034
:101290003506212C353535353516243100F0AEF9BB
:1012A00058B3F078012802D0032803D003E01A488D
:1012B000206000E02560FFF723FE12E0F0780228AE
:1012C00002D0032803D00CE01448206009E0256018
:1012D00007E000F07BF909E000F04EFA0BE001F0C6
:1012E000B9FC0120BDE8F08100F07EF928B127604B
:1012F000E1E700F05DFA0028F1D10020F2E70000FC
:1013000000040020680100206A010020F80300208A
:101310000C030020B03F0020F13F002032400020AD
:1013200010B51248124A0179127891421BD14278C5
:101330004188C088FE2A09D0FF2A14D199B990B9F2
:1013400001F040F878B101F085FC0AE059B90128B4
:1013500009D100F04FFD30B1074906480860FFF79A
:10136000CFFD012010BD002010BD000000040020B2
:1013700069010020B03F0020F803002070B51B4D2C
:101380001B4900266878097888422CD1A888022851
:1013900029D1184CAA7812B3002003E0217801B1BA
:1013A0000C44401C411C8A42F8D82078B0B103F0AC
:1013B00003FA0146E01CFAF7A3FF0F4A0126146066
:1013C0002078E98881420BD90C4990800978491E20
:1013D000084206D10A490120087002E0002602E016
:1013E0009180FFF78DFD304670BD000000040020A5
:1013F000BC9F0108C0020020F80300209B9F010849
:10140000E803002010B5104A1049002450780978EC
:10141000884217D19088072814D10E4B0C4801241C
:1014200018600189D2888A4209D90B4899800078CE
:10143000401E014204D109490120087000E09A8051
:10144000FFF75EFD204610BD00040020BD9F01088F
:1014500070010020F80300209B9F0108E803002092
:10146000074800214170C160016141614180818074
:101470008161C161C18001810162418170470000C9
:10148000080400202DE9F047494EB08871884A4F82
:10149000DFF820817D1C0024884216D3B069A0B9F2
:1014A0007461B480012339787A1C184607F046FA33
:1014B0007080708848B1776198F80000012801D8E1
:1014C000756102E07088401C708070884FF00109DF
:1014D000B0BBF06808B1F46032E0316981B398F8CC
:1014E000000001280DD83C70B48002237A1C002132
:1014F000012007F023FA7080708800B175613461B3
:101500001EE03D78C846202D00D3002508FA05F0DE
:10151000084218D0681CC1B23970B48002237A1C0A
:10152000012007F00BFA7080708818B1776170881D
:10153000401C7080306908FA05F820EA0800306124
:10154000708830B902E06D1CEDB2DCE7B0690028AC
:1015500029D07088B188DFF86880401A85B2174FAB
:1015600098F8000037F81000A84200D20546154848
:10157000007828B140F080002A46716901F090FBA4
:101580007069114928447061B088284480B2B080E5
:101590000988884209D298F8000037F81000A8425C
:1015A00003D1C6F81890BDE8F087B461FBE70000EE
:1015B00008040020A69F0108F03F0020A29F010818
:1015C000E70300209C9F0108A89F010803480449E5
:1015D0008078085C034908700120704700040020EF
:1015E0000A030020B03F002010B507F0A5F902491A
:1015F0000870012010BD0000B03F00200B4910B55D
:10160000C8780022012804D0022804D0032806D17B
:1016100003E0074A02E0002010BD064A521C897808
:10162000002307F08BF9012010BD0000000400200A
:10163000F03F00200B0300202DE9FC5F45480078B7
:1016400000287DD0444D042300262978B146481C4B
:1016500028704248007800EB400293405B1E0192E4
:10166000994202DB85F8009001263D4A002411884A
:10167000FF2901D2491C11803A4931F8100038493C
:1016800000900988884200D1012439490020DFF800
:10169000D8804FF0010BDFF8D4A091F800E045E0CE
:1016A000002276B11AF800105346FF2901D2491CD6
:1016B000195418F8001021B11AF800308B4200D3E9
:1016C0000122019918F8007002238B4007FA03F1F8
:1016D000009B994202DA0FB1012300E000233CB1E4
:1016E00033B1D5F810C00BFA00F141EA0C012961C1
:1016F0002049095C8F420ED01AF800708F4208D33F
:10170000D5F810C00BFA00F747EA0C072F6185F8EF
:10171000009008F800103AB123B92A690BFA00F1D9
:10172000114329610AF80090401CC0B27045B7D33C
:1017300014B10B49A1F800902869002808D000E0F6
:1017400006E06888002803D1BDE8FC5FFFF79ABE79
:10175000BDE8FC9FE503002008040020E70300200B
:10176000060300209E9F01080903002008030020B3
:10177000A69F01080A030020094809498078C97812
:1017800010B1084A815409E0084A0020064B12783B
:1017900002E01954401CC0B29042FAD301207047B5
:1017A00000040020090300200A030020A69F01086E
:1017B000034810B5807807F053F9012010BD0000F0
:1017C000000400200C4908B5C8780022012804D084
:1017D000022804D0032806D103E0002008BD074AF0
:1017E00000E0074A521C00230093CB88897807F059
:1017F00039F9012008BD000000040020314000201C
:101800000B0300202DE9F041EFF3108072B6DFF8F2
:10181000D8800022D8F8104080F31088C8F8102033
:10182000600507D501F08EF907F0D0F92F48006860
:1018300000B18047200505D501F01CFA2C4800684E
:1018400000B18047E00405D501F020FA294800687E
:1018500000B18047A00503D52748006800B1804744
:10186000264D600403D5296809B102208847244F1A
:10187000A00427D5296829B3012022E0EFF31083C3
:1018800072B620480B2250F82100491CB1FBF2F639
:1018900002FB161183F3108886B2050CC8F80810F5
:1018A000280604D557F8261009B1082088472804CF
:1018B00008D557F8261029B1280501D5022000E0E7
:1018C0000420884720040DD5EFF3108272B6D8E9C2
:1018D0000210814201D1012000E0002082F3108833
:1018E0000028CBD0BDE8F08110030020C89F01087C
:1018F000CC9F0108D09F0108D49F0108D89F010800
:10190000DC9F010874410020064810B5C16941F40C
:101910000001C161142001F067FA03494FF400404F
:10192000086010BD001002401408014070B500F0BE
:1019300005F900281CD00F4802220F4D027042709A
:101940000E4C03202A632870A068022803D9A4F152
:101950001F008260A2600A480649007840F08000BB
:1019600001F09EF9A068296B401AA0600120207345
:1019700070BD0000724000202C0400201B49002094
:10198000AA9F0108114910B50878022808D0032839
:1019900010D0042812D0052801D10020087010BDF5
:1019A0000B48C07B282801D0A828F8D1BDE81040FA
:1019B00000F064BABDE8104000F03CBD0548007876
:1019C00040F0800000F04EFDF4E700002C04002001
:1019D000FC480020AA9F0108204A10B5117869B37D
:1019E00001290ED01E48052900781BD007292BD0CD
:1019F00000F038FD1B4902200873BDE8104000F0DC
:101A000019BD18481F38C07B2A2803D02F2805D0BD
:101A1000AA2822D1BDE8104000F004BBBDE8104068
:101A200000F096BA012181400F480068014201D0C0
:101A3000012000E0002040F23F4200E009E0BDE864
:101A400010400AA101F085BA00201070106B1F2809
:101A500003D1BDE8104000F0D5B810BD2C04002023
:101A6000AB9F01081B490020F00300202E2E5C2EA6
:101A70002E5C2E2E5C736F757263655C7573625C91
:101A80006D73635C757362645F6D73632E630000D6
:101A9000104910B54868C86008B1012010BD0E4853
:101AA00000F11F0482687AB1007B000604D50B4860
:101AB000007840F0800005E0A068096B884203D000
:101AC0000748007800F0CEFC0120207300F0B2FC43
:101AD000002010BD2C040020FC480020AA9F010813
:101AE000AB9F01081048007900F08F01080605D56A
:101AF00001F00F004FF48032824001E001228A4061
:101B00000A48007840F0800088420CD108490968F2
:101B1000114208D00749084A0968914203D10D22B1
:101B2000044901F0BDB8704700040020AA9F0108D5
:101B3000F00300201B4900205553425370B50A485A
:101B4000022400F11F05816831B1007B000608D432
:101B50000648007800F086FC2C7300F06BFC002037
:101B600070BD012070BD0000FC480020AB9F010843
:101B700010B50E480E4C8068216B884202D8206355
:101B8000032000E0042020700A480B49226B0078F3
:101B900040F0800001F084F80448226B1F30816817
:101BA000891A81600021017310BD0000FC480020EB
:101BB0002C040020AA9F010872400020064810B59E
:101BC000028807480549007800F0ACFC0549086325
:101BD000BDE81040FFF700BFB09F01087240002031
:101BE000AB9F01082C04002010B50446400702D525
:101BF0000020FFF7E3FF200703D5BDE81040FFF703
:101C0000C1BE10BD2DE9F047734E326B1F2A01D2C1
:101C1000134600E01F230020704D714902E00C5C68
:101C20002C54401C9842FAD3DFF8BC910127DFF80E
:101C3000B4A199F800001F2A40F080007ED12968E5
:101C40006A4A91427AD1654C69681F346160A9681B
:101C5000A160697B19B9A97B09B1102901D9277342
:101C60008AE0E97B4FF002082A293ED022DC1A29BB
:101C70004FD00FDC0429F2D006DCE9B30329EED102
:101C8000BDE8F04700F05CBB1229E8D1BDE8F047A1
:101C900000F0B8B8232944D007DC1B2935D01E2911
:101CA000DDD1BDE8F04700F0DBB825293DD028297B
:101CB000D5D148E09E2940D00FDC5529CFD004DC97
:101CC0002F2954D03529CAD103E05A2925D091298A
:101CD000C5D1BDE8F04700F0F5BBA12929D0A32963
:101CE0005DD0A8292FD0AA29B9D100F075FA002813
:101CF00005D0287B000600E003E04BD43770BDE838
:101D0000F087BDE8F04700F0E5BBBDE8F04700F024
:101D1000BFBBBDE8F04700F037BABDE8F04700F0C0
:101D200007BABDE8F04700F0D5BABDE8F04700F0CB
:101D3000A9BABDE8F047FFF7F9BD00E032E0BDE821
:101D4000F04700F051BB00F047FA0028D7D0287BBD
:101D5000000605D586F80080BDE8F04700F08EB893
:101D60009AF8000000F07EFB84F80C8004E0287CE8
:101D7000800705D400202073BDE8F04700F05ABB6F
:101D800000F02AFA0028BAD0287B000602D4377067
:101D90003762B4E799F8000040F08000E2E700F015
:101DA00061FB5CE74C4600F05DFB2078104C00F0D6
:101DB0000F014FF480308840216855460843206069
:101DC0009AF8000000F04EFB28788740206807430F
:101DD00006202760307092E72C040020FC48002089
:101DE00072400020AB9F0108AA9F0108555342434F
:101DF000F403002002490020087001207047000011
:101E0000B03F002010B5FFF799FE002820D0114BFD
:101E1000002080211870597002219970D9702024F7
:101E20001C7158719871D8710B48016808200A78A4
:101E300012B11A54491C00E01C54401CC0B22428A2
:101E4000F5D3064924200863BDE81040FFF790BE93
:101E500010BD000072400020BC0200202C040020B5
:101E60000548C07CC107044800F11F0000D00121D3
:101E7000017300F0DFBA0000FC4800202DE9F041BA
:101E80002E4D2F4F0026A969686ADFF8B880884276
:101E90000AD33878002440F0800000F0E3FA88F894
:101EA0000C6000F0C7FA08E028492748097830F8A4
:101EB0001140E86A844200D30446FFF7E9FD00B907
:101EC0000024A86A48B374B1A96AE86922460144AB
:101ED000387840F0800000F0E3FEA86A2044A86251
:101EE000E86A001BE862D5E90410AA6A41439142FE
:101EF00003D1AE62696A08446862D8F808104046A7
:101F0000091BC8F80810002C05D0E96A002902D185
:101F1000032129700673BDE8F081002CE3D0E96A43
:101F200028690144491EB1FBF0F26869824200D978
:101F30000246E969686A06F001FEC5E72C04002044
:101F4000AA9F01081B490020AC9F0108E70300205D
:101F50002DE9F0412F4C00252F4EA169606A88427F
:101F600007D32E482563007800F07CFA357300F023
:101F700061FAFFF78DFD20B1206B08B3A06A10B1A4
:101F80000FE0256320E0E16A20690144491EB1FBAE
:101F9000F0F26069824200D90246E169606A06F0A7
:101FA000CDFD00201E49A36A226B0BE0D4F81CC0B3
:101FB0001F181CF8077011F800C0674501D0256292
:101FC00002E0401C9042F1D3A16A206B0A18A26281
:101FD000E16A0B1AE362D4E904714F43974203D1DB
:101FE000A562626A11446162B168091AB160002891
:101FF0000DD013B12078052809D1206A28B100201E
:102000003073BDE8F04100F015BA0120F8E7BDE8F3
:10201000F08100002C0400201B490020AB9F010828
:10202000724000202DE9F041344D0026344FA9695B
:10203000686A884207D333482E63007800F012FAAA
:102040003E7300F0F7F9FFF723FD00B92E63296B0B
:10205000A86A08442969884206D9BDE8F041FE22F1
:1020600029A1002000F075BF0020304905E0AB6ACF
:10207000EC690A5C0344401CE2542A6B9042F6D39C
:10208000A86A11000844A862EA6AA2EB0102EA62A7
:1020900022D092B988B129690844401EB0FBF1F4FE
:1020A0006869844200D904462246E969686A06F0F4
:1020B0005FFDAE62686A20440DE0D5E9041202FBC0
:1020C00001F3834208D1E969686A06F051FDAE6206
:1020D0006969686A08446862B968286B091AB96056
:1020E000002809D0E86A10B12878052804D13E7389
:1020F000BDE8F04100F09EB9BDE8F0812C0400205D
:102100001B490020AB9F01082E2E5C2E2E5C2E2E2C
:102110005C736F757263655C7573625C6D73635C31
:10212000757362645F6D73632E63000072400020FC
:1021300010B5FFF703FD00281FD0FFF7A9FC00280A
:102140001BD00E480021062201700D4B4270817099
:102150001A7AD201C270017141718171C17109494C
:10216000082018638A68082A03D9A1F11F02906029
:102170008860BDE81040FFF7FBBC10BD7240002036
:102180002C0400201B49002010B5FFF7D7FC0028C5
:102190001BD0FFF77DFC002817D00C48032100223C
:1021A00001700B4942700B7ADB018370C27004200E
:1021B000086308498A68042A03D9A1F11F029060C4
:1021C0008860BDE81040FFF7D3BC10BD724000200E
:1021D0002C0400201B49002070B5264C264DB4F875
:1021E0001100E17C40BA000440EA0121207D014356
:1021F0000020C5E90910E07B2F280AD004DC28283C
:102200000BD02A2819D104E0A8280DD0AA2814D16F
:1022100006E0FFF73DFC002829D0E08A41BA0CE037
:10222000FFF736FC002822D0B4F81500E17D40BA53
:10223000000440EA0121207E014328690D4E4143FC
:10224000E962A06801251F3668B1884210D0207B62
:10225000000604D50948007840F0800001E00848F5
:10226000007800F0FFF8357300F0E4F8002070BD4E
:10227000012070BDFC4800202C040020AA9F01080A
:10228000AB9F010810B5FFF759FC00281CD0FFF7E1
:10229000FFFB002818D00D4A0D489169491E0B0E0E
:1022A00003700B0C43700B0A8370C17011690B0E25
:1022B00003710B0C43710B0A8371C1710820106309
:1022C000BDE81040FFF754BC10BD00002C040020F6
:1022D0007240002010B5FFF731FC002829D0FFF72D
:1022E000D7FB002825D013480021134A0170417004
:1022F00081700821C17091690B0E03710B0C437141
:102300000B0A8371C1710221017211690B0C4372B6
:102310000B0A8372C17209490C2010638A680C2A67
:1023200003D9A1F11F0290608860BDE81040FFF75B
:102330001FBC10BD724000202C0400201B4900204F
:1023400010B5FFF7FBFB002835D01B4870211B4B55
:10235000017000214170DC685A6832EA040406D03A
:1023600006248470282404734173DA6008E0DAB12B
:10237000134A127BE2B1052282702022027341735C
:10238000C1700171417181710A22C2710172417281
:102390008172C1728173C173017441741220186318
:1023A000BDE81040FFF7E4BB022282703A22E5E765
:1023B00081700173E3E710BD724000202C040020FF
:1023C0001B490020044900200860044908600449B2
:1023D0000720087001207047F40300201B490020EB
:1023E0002C040020FFF7EEBF10B5FFF7A7FB002875
:1023F00017D00C4820220021027041700A4CC1778E
:1024000003202263207009480649007840F08000CC
:1024100000F046FC0648226B8168891A8160012120
:10242000017310BD724000202C040020AA9F0108F7
:102430001B490020084910B50648086007480D22CE
:10244000007840F0800000F02BFC05490520087062
:1024500010BD0000555342531B490020AA9F01089C
:102460002C04002010B5044600F0E0FB200605D542
:1024700004F00F014FF48030884001E00120A040BB
:1024800002490A681043086010BD0000F0030020F4
:102490000A4810B5817C00F11F0429B10120207386
:1024A000BDE81040FFF7C6BFC07C054900F0010041
:1024B000486006F05BFB0020F1E70000FC480020CC
:1024C0002C040020024900200873FFF7B3BF00006E
:1024D0001B4900200F4810B5816800F11F0469B145
:1024E000007B000604D50C48007840F0800001E035
:1024F0000A480078FFF7B6FF012004E0FFF7C8FAAA
:10250000002805D000202073BDE81040FFF792BFDF
:1025100010BD0000FC480020AA9F0108AB9F0108E5
:102520007047000070B5104C00F00F030F4D646849
:1025300004EB03139C689B8905EB4404C3F3090572
:10254000954200D9154600236A1C04E034F8046B58
:1025500021F8026B5B1CB3EB520FF7D34FF44051E1
:10256000FAF712FF284670BD1003002000600040FB
:10257000FFF7B8BA2DE9FC414E4BA3F11C051878C2
:10258000A3F1080410F01F0002D001286DD179E0FA
:102590004949D878494E0A784649494F1C39062896
:1025A000C97810D006DC012809D0022814D00328ED
:1025B0007ED141E007282AD00F2879D156E0414842
:1025C000206012205CE0002A72D019B13E482060E1
:1025D0000A2055E03D48FAE70AB9012968D00220EF
:1025E00021B10097787000209A7809E00096707009
:1025F000F9E700990B7813B14B8819440091401CFE
:102600008242F6D10098017879B3206037E062B356
:10261000072021B10096707000209A7809E0009799
:102620007870F9E700990B7813B14B881944009141
:10263000401C8242F6D1E5E72548009098780328AF
:1026400001D0002008E002F001F90BE000990A78BF
:102650000AB111440091401C99788142F6D100984A
:10266000017811B1206000780AE021E01948007873
:1026700000281BD01848009020600178C1B1408824
:10268000019005E001A9684600F02AF800280DD065
:10269000A1880198814208D9104980B2A0800978A8
:1026A000491E084201D1012028710120BDE8FC81AA
:1026B0000020FBE700040020999F0108E83E00206D
:1026C000670100204CA001085FA001085EA001087E
:1026D0009AA001089A9F010860A001089B9F010829
:1026E00070B5194A194C1B4ED378194A2578212BFD
:1026F0001478154A127902D0222B22D116E0AA4270
:1027000001D0A2421DD1144A1378144A12780BB991
:10271000012A16D042B1124A02601046114A1288AC
:1027200010443060092009E00F4AF5E7AA4201D0C1
:10273000A24206D10D4830600D4800880860012093
:1027400070BD002070BD0000000400206801002062
:102750006A010020F8030020999F0108E703002088
:10276000670100206E010020E83E002028A001083B
:102770004AA0010870B51C481B4C0078A4F108045D
:1027800010F01F000AD0184AA4F11403174D59780D
:102790001279012806D0022824D109E012481638FF
:1027A00020601DE0F1B1987882421BD2002015E034
:1027B00002F08F00020605D500F00F064FF48032BC
:1027C000B24001E00122824009B900070AD19868AD
:1027D000104207D0D868104000D001202880256022
:1027E000012070BD002070BD00040020B03F00201B
:1027F00070B5264B024619461878498810F01F001C
:10280000A3F11C0604D0012829D0022827D111E009
:10281000012924D132B1012000F040FAF08840F0C3
:10282000020005E0002000F039FAF08820F00200F4
:10283000F08029E0187900F08F04200605D504F017
:102840000F004FF48035854001E00125A5407078E8
:1028500028B1200703D0B068284200D009B1002079
:1028600070BD2AB1204600F0E1F9F06828430AE083
:102870003069284208D12046FEF7CCFA2046FFF7FF
:1028800077FEF068A843F060012070BD00040020CE
:102890002DE9F05F5A480026017811F01F0F7DD115
:1028A000574F80781C3FB1464FF0010A4FF4803BF0
:1028B00000287AD0534801783846C07809B90128F1
:1028C0006CD008B1504C6CE0504C6AE06078022843
:1028D00005D0042845D0052845D007285CD14848B4
:1028E0006179807881423AD1787020794949B8700D
:1028F0000020474A098802E002F80090401C884204
:10290000FAD30125B8460AFA05F0D8F808100842AB
:1029100002D02846FEF721FBD8F808100BFA05F084
:10292000084203D045F08000FEF717FB6D1C102D08
:10293000E9D34FF00110C8E902090120C8F810904E
:10294000FEF7BCFAE0794006B8F8060002D540F080
:10295000010001E020F00100A8F806001CE06088FA
:102960001BE0E67818E0BEB9A07800F08F052806D5
:1029700004D505F00F010BFA01F001E00AFA05F0A9
:10298000B96801432046B960FEF750FA2846FEF7C1
:10299000E7FA284600F02EF9207801E02BE004E069
:1029A00004442078002891D120E04D4687F801901A
:1029B00001245E46B9680AFA04F0084202D02046B3
:1029C000FEF7CBFAB96806FA04F0084203D044F0E7
:1029D0008000FEF7C2FA641C102CEBD34FF00110FC
:1029E000C7E9020500203D61FEF768FA04487978DE
:1029F0008078884202D00020BDE8F09F0120FBE7EC
:102A000000040020999F010867010020E83E002093
:102A1000FF0200206C0100202DE9F84F44480027F8
:102A20003E460078BA4600F01F00B94601287CD126
:102A30003F491C394878002874D0002000903D4858
:102A400002780846C0780AB901286ED08B4608B1D2
:102A5000394C63E0394C61E06078022805D00428E5
:102A60000AD005281AD0072856D161799BF80100B1
:102A7000814251D0608850E02D48A778E6780179EE
:102A80004FF00009B94247D18078B04244D10120CB
:102A900000902B4810F807A0C6553DE0244908795E
:102AA000B84239D1A07800F08F085FEA086005D5F8
:102AB00008F00F004FF48035854002E0012505FA4B
:102AC00008F58878B04215D1DBF808102046294374
:102AD000CBF80810DBF80C10A943CBF80C10FEF76C
:102AE000A5F94046FEF73CFA404600F083F849EA73
:102AF000050911E056450FD119EA050F0CD1DBF895
:102B000008104046A943CBF80810DBF80C10A94385
:102B1000CBF80C10FEF721FA207804442078002826
:102B20009AD10098BDE8F88FFFE70020FAE700008F
:102B300000040020999F010867010020E83E002062
:102B4000FF0200204FF0E0214FF480100023C1F875
:102B50008001BFF34F8FBFF36F8F1E4803601E4885
:102B6000006818B14FF40050410001E00020014618
:102B700008431A490968002901D04FF4007140EA5E
:102B8000010002D04FF4807101E04FF0000140EAF3
:102B90000100134940F41C400860134811494FF0EC
:102BA00050020360486802604FF0900282604FF06C
:102BB000D0020A8048F2FF71C1600C494FF44850BE
:102BC00008600B494FF0800008604FF0140000F0DF
:102BD0000BB90000445C0040D89F0108D49F010855
:102BE000405C004010030020505C0040005C00404E
:102BF0004C5C0040FAF7B4BB10B5FEF785F8BDE8B1
:102C00001040FFF7EFBB10B5FEF716FDFEF780F89A
:102C100000F0C5F910BD0000002903D1024940F0C1
:102C200080000860704700004C5C004041F21001D9
:102C3000FAF7AABB082202490020FFF773BC000084
:102C40000004002002484FF40071006902F08AB9C4
:102C50006800002000221146802000F021B800000A
:102C60000248034902780020FFF75CBC9B9F0108E3
:102C7000B03F00200448016841F00801016001688C
:102C800041F0040101607047405C00400248016867
:102C900021F0080101607047405C0040704700006F
:102CA000F0B5154F154606467A6800F00F0002EBA6
:102CB0000012124B126803EB420400236A1C04E06A
:102CC00031F802CB44F804CB5B1CB3EB520FF7D3C3
:102CD000796801EB00114D60094901EB8000D0F8E3
:102CE000000CC0F30110012803D030213046FAF760
:102CF0004BFB2846F0BD00001003002000600040A0
:102D0000005000402DE9F047244A1068244F20F07D
:102D10001F013B691943396100F4FE41C943116049
:102D2000DFF88090000448F2800632D59046D8F84B
:102D3000000001042DD510F00F0009EB8005D5F837
:102D4000004C07D1210405D5210503D47968898970
:102D5000890515D064F31F4003F010FE200406D54A
:102D600044EA060040F68F710840C5F8000C2006C2
:102D7000DDD5344348F60F700440C5F8004CD6E763
:102D80002106EDD5C4F30E0161F31F4003F0F6FDFB
:102D9000E6E7BDE8F047FFF755BF0000445C0040A0
:102DA000100300200050004000207047002809DB7D
:102DB00000F01F02012191404009800000F1E02055
:102DC000C0F88012704700280DDB00F01F020121BF
:102DD00091404009800000F1E020C0F88011BFF36D
:102DE0004F8FBFF36F8F7047002809DB00F01F0281
:102DF000012191404009800000F1E020C0F800115D
:102E00007047002809DB00F01F02012191404009B2
:102E1000800000F1E020C0F80011704702E008C80F
:102E2000121F08C1002AFAD170477047002001E044
:102E300001C1121F002AFBD170470000EFF3088484
:102E400000F00F010D2901D1EFF30984A18B04F1EA
:102E50002005890500D52D1DC10600D4483500F098
:102E60005FFAEFF3098000F05BFAEFF3088000F0FF
:102E700057FAEFF3148000F053FA284600F050FAA6
:102E8000606900F04DFAA06900F04AFAE06900F0CC
:102E900047FA1248006800F043FA1048001F006823
:102EA00000F03EFA0D48001D006800F039FA0B48AA
:102EB0001030006800F034FA08480830006800F06C
:102EC0002FFA06480C30006800F02AFA432204A1C9
:102ED000002000F03EF8FCF7DDFAFEE72CED00E004
:102EE0002E2E5C2E2E5C2E2E5C736F757263655CCD
:102EF0006461706C696E6B5C486172644661756C8C
:102F0000745F48616E646C65722E630010B5002AB0
:102F100006DA22F00042D21D22F00703102203E05D
:102F2000D21C22F003030C2213B19C188C4201D94D
:102F3000012010BD024401448360C0E90021C91A88
:102F4000D018884202D810600246F9E700201060CD
:102F500010BD2DE9F04116460F46002818D1EFF3B9
:102F6000108572B600231A461946184600F0F8F983
:102F7000040003D13146384600F04EFA85F310883C
:102F8000002C05D1EFF30380C00601D106F044F90F
:102F9000BDE8F08170477047002070477047704768
:102FA0007047704710B528220D490E48F9F776F999
:102FB00006F0F4F90C4806F0EBF906F01DF80B49A1
:102FC0000B4A0C4B08604FF40071B0FBF1F011603C
:102FD000094901221A60086009490848086010BDC3
:102FE000B09A010804310020E13901086004002092
:102FF0003C0400204004002044040020042F002052
:103000004804002000B591B0FDF7BAFC402801D972
:10301000402000E060B181B2684605F039F9010056
:1030200006D06846FDF7D4FC10B1012001F0D2FDB6
:1030300005F0E4F90146402801D9402100E059B1EA
:103040006846FDF7A9FC38B181B2684605F0C4F9BD
:1030500010B1012001F0BEFD01F0D4FD11B000BDA2
:10306000044841788078814201D0012070470020D7
:10307000704700002401002030B50546EFF31084AE
:1030800072B600F006F8A968081A84F31088401E8A
:1030900030BDEFF3108372B6D0E900128A4201D33B
:1030A000501A02E080681044401A83F31088704779
:1030B000EFF3108372B6C0E902210021016083F3AF
:1030C000108841607047000070B50446EFF310852A
:1030D00072B6D4E90001884201D0012000E000204E
:1030E00042220EA1FFF735FFE16820680E5C401C0C
:1030F0002060A16888420CD302D14FF0010001E0AA
:103100004FF000004FF0470204A1FFF722FF00201C
:10311000206085F31088304670BD00002E2E5C2E96
:103120002E5C2E2E5C736F757263655C6461706CCF
:10313000696E6B5C636972635F6275662E63000023
:1031400070B50446EFF3108572B6C06862688154AA
:103150006068401C6060A16888420CD302D14FF0C7
:10316000010001E04FF000004FF0300209A1FFF72D
:10317000F0FE00206060D4E90001884201D0012007
:1031800000E00020352203A1FFF7E3FE85F310885D
:1031900070BD00002E2E5C2E2E5C2E2E5C736F7583
:1031A0007263655C6461706C696E6B5C63697263A9
:1031B0005F6275662E6300002DE9F04114460E46ED
:1031C0000746FFF766FF844200D2204605460024EA
:1031D00004E03846FFF778FF3055641CAC42F8D362
:1031E0002846BDE8F0812DE9F04114460E46074619
:1031F000FFF742FF844200D220460546002404E047
:10320000315D3846FFF79CFF641CAC42F8D328467A
:10321000BDE8F08110B508494FF400742246A1F1D1
:103220001000FFF745FF22460449BDE81040A1F118
:103230001000FFF73DBF0000D83A0020E83C002016
:1032400000F0BCBC00F0BABC02488079002800D075
:1032500001207047DA4700200248C079002800D0DA
:1032600001207047DA4700200248407A002800D049
:1032700001207047DA4700200248007A002800D079
:1032800001207047DA4700202DE9F0418E212148C6
:10329000F9F72BF8204C214F8E2520681D4EB8429F
:1032A00010D1A5888E2D01D22A4601E04FF08E0262
:1032B00001D84FF08E0518491648F8F7EFFF0020A7
:1032C00086F847008E211448F9F70FF82760A5808B
:1032D00041223546F11DE01DF8F7E0FF35F8480FB3
:1032E00024F8480FA878A070E878E07082000949B7
:1032F00009484C314C30F8F7D1FF95F8440084F878
:10330000440095F8450084F84500BDE8F04100F020
:10331000BFB800004C470020004F0020646C766B63
:10332000074A92F84B10102901D30020704702EB96
:103330008101C86412F84B0F401CC0B21070704776
:10334000004F002010B5054C4121E01DF8F7CDFFDE
:10335000002024F8480FE07010BD0000004F00204E
:103360002DE9F047184F81461D4616468846F81D40
:10337000F8F7D2FF441CB9F1000002D04146F8F73B
:10338000B4FF002006B1308005B12870F87900281C
:1033900018D0444502D8F91D224604E0A4EB0800E9
:1033A000C1194246C91DB9F1000F02D0B7F8480053
:1033B000308016B14846F8F771FF15B197F84A000A
:1033C00028700120BDE8F087004F0020014890F8E8
:1033D0008C007047004F0020054A92F84B1029B12D
:1033E00002F14C01016092F84B00704700207047D9
:1033F000004F002002488079002800D0012070474B
:10340000004F0020034890F88D00002800D00120D4
:1034100070470000004F00202DE9F0418846074624
:10342000F8F77AFF104D441C41263146E81DF8F7A5
:103430005CFF412C02D83946224602E0413CE119AA
:1034400032462C46E81DF8F729FFA4F8488000F022
:1034500011F908B1012003E000F00EF900B10220DB
:1034600084F84A00BDE8F081004F0020014981F84E
:103470008C007047004F00200149887170470000A0
:10348000004F0020014981F88D007047004F002057
:1034900070B5002211461046FBF7FDF81848174C8E
:1034A0000168216041686160008920810A21154816
:1034B00000F018FE144E134D60B12868B04209D1D7
:1034C000A8880A2801D2AA8800E00A220D490B48E0
:1034D000F8F7E4FE0A202660A0800146094800F0C3
:1034E00001FE28B12868B04202D1A8880A2804D277
:1034F000BDE87040014802F023B870BDDA470020F3
:10350000F4A1010800FC0108646C766B0249887123
:10351000084602F015B80000DA4700200249C871D9
:10352000084602F00DB80000DA4700200249487250
:10353000084602F005B80000DA4700200249087288
:10354000084601F0FDBF0000DA4700202DE9F041F8
:103550000F4606464FF0FF340025DFF83C8012E0AE
:10356000705D082102F002FB84EA006408204146F5
:10357000002C02DA81EA440400E06400401E10F0EE
:10358000FF00F5D16D1CBD42EADB2021204602F090
:10359000EDFAC043BDE8F081B71DC1042DE9F0414B
:1035A0000E4617462021C04302F0E0FA04460025EB
:1035B000DFF83C8012E0705D082102F0D7FA84EA5F
:1035C000006408204146002C02DA81EA440400E04D
:1035D0006400401E10F0FF00F5D16D1CBD42EADB17
:1035E0002021204602F0C2FAC043BDE8F08100006D
:1035F000B71DC10470B514460D460646B2F5806F7E
:1036000007D240F2DD120AA10020FFF7A2FC02203F
:1036100070BD00F029FD08B1102070BD2A4621467A
:10362000304600F0BDFE0028F7D0202070BD00001D
:103630002E2E5C2E2E5C2E2E5C736F757263655C75
:103640006461706C696E6B5C647261672D6E2D6471
:10365000726F705C6961705F666C6173685F696EE0
:1036600074662E6300000000C10600F00F0000D455
:1036700009307047002070470120704710B50023C3
:103680001A4600F0D3FA002800D0012010BD10B572
:1036900005F0CEFB012800D0002010BD2DE9F0413F
:1036A000154E144D4FF000643078012806D040F2DA
:1036B000371212A10020FFF74CFC09E0B078022776
:1036C00048B140F23D120DA10020FFF742FC3770D7
:1036D0000220BDE8F081204600F02CF810B13770D0
:1036E0002220F6E704F58064AC42F4D30120B070E8
:1036F0000020EEE700BC0008F80000202E2E5C2E13
:103700002E5C2E2E5C736F757263655C6461706CE9
:10371000696E6B5C647261672D6E2D64726F705C94
:103720006961705F666C6173685F696E74662E6351
:103730000000000070B5204E04463078012805D006
:10374000FF221EA10020FFF704FC18E04FF4806068
:10375000B4FBF0F100FB1141022511B140F2071258
:1037600008E0F17869B1D6E902121144A14208D00B
:103770004FF4877211A10020FFF7EBFB3570022098
:1037800070BD1C4A1C49944201D38C4211D30121C3
:10379000F170C6E90240204601F0AAF9262803D0BC
:1037A0000028EDD0357070BD204600F05DFC00288B
:1037B000F9D03570212070BDF80000202E2E5C2E2F
:1037C0002E5C2E2E5C736F757263655C6461706C29
:1037D000696E6B5C647261672D6E2D64726F705CD4
:1037E0006961705F666C6173685F696E74662E6391
:1037F0000000000000C0000800FC01084FF48060D9
:103800007047000010B5282804D2064951F820005E
:10381000002805D1F72204A10020FFF79AFB0AA097
:1038200010BD0000AC9901082E2E5C2E2E5C2E2EB1
:103830005C736F757263655C6461706C696E6B5C00
:103840006572726F722E6300000000000146012055
:10385000282901D20148405C704700002000002068
:103860002DE9F04789460446804600E0641C207834
:10387000402802D00028F9D163E06078622847D060
:1038800012DC522853D008DC422841D0442848D0CA
:10389000482840D04D2817D133E054283ED0552831
:1038A00032D0562810D13FE0722840D006DC642880
:1038B00037D068282FD06D2806D122E074282DD06B
:1038C000752821D076282FD020A52046F8F724FD92
:1038D00007462846F8F720FD0646A019C11908EB4F
:1038E0000902891E91422BD2BA1EA11CF8F7D6FC00
:1038F000324629462046F8F7D1FC20780028B6D178
:103900001FE000F097FF01E000F09CFF0546DCE7B8
:1039100000F052FFFAE700F089FFF7E700F08EFFB2
:10392000F4E700F07FFFF1E700F094FFEEE70948CD
:1039300090F82A0010B1074D2A35C6E706A5C4E75E
:103940003C44A4EB0800BDE8F08700004552524F0C
:103950005200000000A2010868747470733A2F2F9F
:103960006D6265642E6F72672F6465766963652F7B
:103970003F636F64653D40553F76657273696F6E56
:103980003D40563F7461726765745F69643D4054A1
:10399000000000002DE9F043A3B0884681461E4692
:1039A0001746802102A82A9DF8F79FFC002002AC50
:1039B00003E02154401C7F2802D2295C0029F8D161
:1039C00080212046FFF74CFFCDE9004033463A46C0
:1039D0004146484605F03CF923B0BDE8F083704706
:1039E0002DE9F0411E4615460C46074605F084FDBC
:1039F0002C4890F8201003290FD0022C0FD004B3CC
:103A0000012C0AD10168A94207D190F82210A9B36C
:103A100000214A1E016082608161BDE8F08100687A
:103A2000A842FAD1304605F0CDFA0446304605F0FA
:103A3000CBFA0646384603F075F80346224631466F
:103A400017E0384603F06EF80328E6D0304605F05C
:103A5000B7FA8007E1D4384603F064F807463046E9
:103A600005F0B0FA0446304605F0AEFA01463B4692
:103A700022462846BDE8F04104F0B0BA28220A499F
:103A80000848F8F70BFC03F005FF08488178012986
:103A900003D14178022900D18170BDE8F04103F0E3
:103AA00001BF000004310020B09A01082401002069
:103AB0002DE9F0411D4E0446174696F8220088462F
:103AC000550260B92946404602F0E8FF032802D0BB
:103AD000214604F02DFA96F8220000280FD07068D5
:103AE000A0420CD8F068A0420BD008D93069401C25
:103AF00000D134613069A04200D204463461BDE88F
:103B0000F081F0692A461044F061E019F06096F8FF
:103B1000230020B1BDE8F041002004F0AFBA4146D7
:103B20002046BDE8F04104F09FB9000004310020B8
:103B3000F0B518A185B0096804910278002104ABA2
:103B40005C5C944224D0491C0329F9D312A10022C1
:103B500091E878006F46815C8DE87800A1F1610CF6
:103B6000BCF1190F14D9202901D2052910D14FF029
:103B7000000C17F80CE08E450AD00CF1010CBCF1DA
:103B8000100FF6D3521C0B2AE5D3012005B0F0BD6F
:103B90000020FBE7E5002000222A2B2C2E2F3A3BA9
:103BA0003C3D3E3F5B5C5D7C0348006908B1012001
:103BB00070470020FCE7000000A2010870B50D4D21
:103BC00000202C7874B100212970A97809B100F087
:103BD0009DFB022C05D06978032902D0002800D172
:103BE000252070BD40F26B1203A10020FFF7B1F950
:103BF000022070BDC80000202E2E5C2E2E5C2E2EC2
:103C00005C736F757263655C6461706C696E6B5C2C
:103C1000647261672D6E2D64726F705C666C617387
:103C2000685F6465636F6465722E630070B51C46DF
:103C30000546302901D3012000E00020472212A1CF
:103C4000FFF787F9286A696A1C4E0CB900223271A5
:103C50001B4A91420AD11B49884201D1022070BD02
:103C60001849FC3988420CD1012070BD284605F066
:103C700069F818B11CB90120307100E00CB10320C3
:103C800070BD002070BD00002E2E5C2E2E5C2E2EEE
:103C90005C736F757263655C6461706C696E6B5C9C
:103CA000647261672D6E2D64726F705C666C6173F7
:103CB000685F6465636F6465722E6300C8000020EE
:103CC000089996978F9E939B2DE9F05F4FF0000423
:103CD000DDF828B05FEA030A904689460746254684
:103CE00011D05FEA0B000ED00020CAF80000064693
:103CF000CBF80000FFF7BEFC80B12948022F06D0A8
:103D0000032F04D032E0712243E0064618E0B8F1F8
:103D1000000FFAD08145F8D01B2428E0FFF7ACFC57
:103D200020B3012F02D0032F0CD01FE04FF0006111
:103D3000B8F1000F03D0894501D01A2417E00E46D0
:103D400018480FE01848006980B10C3003E0816822
:103D5000012909D0143001680029F8D141680029EF
:103D6000F5D11248056802E00668FAE71C24FFF75F
:103D700073FA08B9012F03D024B12046BDE8F09FA3
:103D80001C24FAE725B1CAF80060CBF80050F4E72C
:103D9000B82207A10020FFF7DCF80220EEE70000C0
:103DA00000C00008AC9A010800A20108709A01083E
:103DB0002E2E5C2E2E5C2E2E5C736F757263655CEE
:103DC0006461706C696E6B5C647261672D6E2D64EA
:103DD000726F705C666C6173685F6465636F646565
:103DE000722E630030B5154C00236178012904D090
:103DF000022904D003291FD103E0114B17E0114B16
:103E000015E02179C1B110490969A9B10C3107E068
:103E1000844204D84C68844201D34B6806E01431D4
:103E20000C68002CF4D14D68002DF1D123B1104461
:103E3000984201D3012030BD002030BDC8000020D1
:103E400000BC000800FC010800A2010810B50C4CE1
:103E5000207830B1DA220BA10020FFF77AF8022097
:103E600010BDFF2230211448F8F738FA01202070E5
:103E700000206070A060E0602061A070E07010BD64
:103E8000C80000202E2E5C2E2E5C2E2E5C736F75CB
:103E90007263655C6461706C696E6B5C64726167AF
:103EA0002D6E2D64726F705C666C6173685F646503
:103EB000636F6465722E6300AC2600202DE9F0412B
:103EC00016460F4605460024FFF7D6FB50B1032DDA
:103ED00008D10648006928B131463846FFF75CF83A
:103EE00000B11D242046BDE8F081000000A20108B9
:103EF0002DE9FE4F06464D488946154601780129B1
:103F000007D0EF224AA10020FFF723F80220BDE8E6
:103F1000FE8FC1784FF0010A19B9C660066180F8BA
:103F200003A0804680780327002869D1D8F81010B4
:103F300042468E4201D1012000E000202944C8F809
:103F4000101048B39068C0F13004AC4200D92C4640
:103F5000444A494610442246F8F7A0F9D8F8080028
:103F60002D1B2044A1442644C8F80800302839D32A
:103F7000444602D14FF0010001E04FF0000040F252
:103F800011122BA1FEF7E5FFD4E9021201233548F7
:103F9000FFF74CFE607001E088F8017001A8009006
:103FA00002AB0122444698F80100D8F80C10FFF744
:103FB0008BFE08BBFFF758F928B12A496078A26840
:103FC000FFF77CFFC0B9A0784FF49A7280F001002F
:103FD00017A1FEF7BEFF019800F030F960B984F830
:103FE00002A002E098F8020098B144461D49D4E9C5
:103FF000022000F087F808B1277088E7A07840B168
:104000002A464946304600F07DF810B188F8007025
:104010007DE72A4649463046FFF7E4FE0028ECD00B
:10402000022188F80010132071E70000C80000206A
:104030002E2E5C2E2E5C2E2E5C736F757263655C6B
:104040006461706C696E6B5C647261672D6E2D6467
:10405000726F705C666C6173685F6465636F6465E2
:10406000722E6300AC26002010B5EFF3108472B6F8
:10407000F9F7A8F984F3108810BD0000FEB5184EBA
:10408000054672787468AA4226D0002772B194F867
:104090003800800700D5F5B900970197029761684D
:1040A000002304F1180002F0D9FD38B19DB194F855
:1040B0003800800704D5707810B10CE00C20FEBDEC
:1040C000CDE9005702972168002304F11800F26837
:1040D00002F0C4FD10B175700020FEBD0B20FEBDC6
:1040E0008C00002001444FF40032A0F10060491E12
:1040F000904205D2A1F10061914201D201207047A6
:10410000002070472DE9F0473D4E054600247078A9
:1041100017468846012807D07B223AA10020FEF7E7
:1041200018FF0220BDE8F087F0784FF0020A50B97E
:10413000284602F095FB040002D086F801A05CE05E
:104140000120F0707561B068B5FBF0F100FB115112
:104150006A1A7169B1FBF0F300FB1310081A82426E
:1041600004D0284600F026F90400E6D13069B5FBFA
:10417000F0F100FB11516A1A7169B1FBF0F300FB19
:104180001310081A824204D0284602F069FB04008A
:10419000D3D1B1464E46D6E901010844A84207D81A
:1041A000284600F007F9040002D089F801A024E0B5
:1041B0000FB3D6E903010844A84204D8284602F008
:1041C0004FFB0400F1D17068B168B146281A0E1A8D
:1041D000B74200D23E461849324608444146F8F7F5
:1041E0005DF836B1002089F802003544B044BF1BA9
:1041F000D0E70120F7E7C9F81450204692E7000005
:10420000DC0000202E2E5C2E2E5C2E2E5C736F7533
:104210007263655C6461706C696E6B5C647261672B
:104220002D6E2D64726F705C666C6173685F6D617A
:104230006E616765722E6300DC26002070B51F4D2D
:104240000446687808B1472226E024B3606810B3BA
:10425000A06800B3E068F0B12069E0B16069D0B156
:10426000A069C0B1E069B0B1FF224FF48061144889
:10427000F8F734F80126AE700020E8706860A86096
:10428000E8602861C5E9050420688047040008D17A
:10429000287838B110E04D220AA10020FEF759FE1F
:1042A000022070BDA86900698047040004D0A86995
:1042B00040688047204670BD6E70FBE7DC00002040
:1042C000DC2600202E2E5C2E2E5C2E2E5C736F754D
:1042D0007263655C6461706C696E6B5C647261676B
:1042E0002D6E2D64726F705C666C6173685F6D61BA
:1042F0006E616765722E630010B50446FFF7C2F861
:104300000148047010BD0000DC00002070B5154CA1
:104310000025607810B1012807D00AE0CC2212A154
:104320000020FEF716FE022070BD002000F042F8CB
:104330000546A069406880470646FF224FF4806129
:104340001648F7F7CBFF0120A0700021E1706160F3
:10435000A160E1602161616161700EB1304670BDA4
:10436000284670BDDC0000202E2E5C2E2E5C2E2EEA
:104370005C736F757263655C6461706C696E6B5CB5
:10438000647261672D6E2D64726F705C666C617310
:10439000685F6D616E616765722E6300DC260020C8
:1043A00010B5EFF3108472B6FAF7BEF984F31088F3
:1043B00010BD000070B50E4E05460024B07840B91F
:1043C000B0690C498368D6E9010298470446012088
:1043D000B070FF220748B168F7F780FFB068B5FBFF
:1043E000F0F100FB1150281A7060204670BD0000EB
:1043F000DC000020DC2600200748006948B10648A0
:104400000069D0F89C0120B103480069D0F89C01F4
:1044100070470148001DFBE700A20108074800693A
:1044200048B106480069B0F8A00120B1034800690E
:10443000B0F8A001704701484088FBE700A20108DE
:104440000022034611461046184700000E4910B5D9
:1044500009690E4B0C3109E0824206D84A68824253
:1044600003D30868D860086910BD14310A68002AAF
:10447000F2D14C68002CEFD198680028F4D0016884
:10448000D960006910BD000000A201088C00002066
:10449000002070470248006840F30000401C70474D
:1044A000080C01402DE9F041534886B0816941F084
:1044B00004018161816901F004010491816941F085
:1044C00008018161816901F008010491816941F06D
:1044D00010018161816901F010010491816941F04D
:1044E00020018161816901F020010491816941F01D
:1044F00001018161816901F0010104913F494A682C
:1045000022F0E06242F000724A60816941F00401E9
:10451000816180694FF4004700F00400049038483E
:1045200007600124DFF8D880CDE900740325A8F1E5
:104530001408694640460395F9F7D4F9012256025A
:1045400031464046F9F7B2FACDE900646946404683
:104550000395F9F7C7F9012231464046F9F7A6FA63
:10456000CDE90064694640460395F9F7BBF901229D
:1045700031464046F9F79AFACDE90064694640466B
:104580000395F9F7AFF9012231464046F9F78EFA63
:10459000CDE90064694640460395F9F7A3F9194E41
:1045A000012211463046F9F781FA1120CDE9004089
:1045B000694630460294F9F795F9002239463046AB
:1045C000F9F774FACDE90074694630460395F9F7B6
:1045D00089F9200200900220019003956946404627
:1045E000F9F780F900F064FD07480490401E04903C
:1045F000FCD106B0BDE8F08100100240000001408F
:1046000014080140000C014040420F0070470000B8
:1046100028B100224FF400710248F9F747BA01228D
:10462000F8E700000008014028B100224FF40071B3
:104630000248F9F73BBA0122F8E700000008014000
:1046400028B100224FF400710248F9F72FBA012275
:10465000F8E700000008014010B50E4CE07978B989
:10466000FFF716FF48B10C480068C0698047002872
:104670000FD103F005FB01200AE0E079002808D003
:10468000FFF706FF002804D1022003F0F9FA00200A
:10469000E07110BD68000020709A01082DE9F04318
:1046A00085B081460D481D4616468846DDE90C4119
:1046B0000DC802AF87E80D00B81C04F0A2FA002074
:1046C000CDE900478DF812002B4632464146484658
:1046D00002F08AFA05B0BDE8F0830000789B01087B
:1046E000092800D927303030C0B270471CB501AA64
:1046F00069460A48F8F7F6FC002807D001984028D8
:1047000005DD332206A10020FEF723FC1CBD40225C
:104710000020009904F04EF91CBD0000284900203B
:104720002E2E5C2E2E5C2E2E5C736F757263655C74
:104730007573625C6869645C757362645F757365E8
:10474000725F6869642E630070B5174C00204BF6E9
:10475000FC356060A0604FF00066E060294630469E
:10476000FFF7C0FC20B129463046FEF7EFFE60603F
:104770000E4D0F4E29463046FFF7B4FC20B12946B6
:104780003046FEF7E3FEA0600A4E4FF480652946EE
:104790003046FFF7A7FC002804D029463046FEF734
:1047A000D5FEE06070BD000048000020FC3B010029
:1047B00000C0000800FC01080048704758000020B5
:1047C00010B50C210948FFF78DFC00280AD04FF0E6
:1047D0000060074A016A914203D1406A0549884254
:1047E00001D0002010BD012010BD000020000008F5
:1047F000939D939B0899969710B5FFF7E1FF0028CA
:1048000002D04FF00060806A10BD0000014840688F
:104810007047000048000020014880687047000091
:1048200048000020004870473825002000487047A5
:10483000F624002000487047E92400200048704713
:104840001725002000487047B82400200048704712
:1048500041250020004870476200002070B5FFF736
:1048600073FF204801F002F901F074FF1D48312167
:104870002030F7F73AFD1B481B492030F7F740FD81
:1048800019491848491D2030F7F73AFD15495E319E
:10489000A1F13E00F7F734FD1249A031A1F18000EB
:1048A000F7F72EFD0F4800242030F7F735FD0D4AAD
:1048B000C1B20220A93200EB4100107003205070F9
:1048C00002200023A2F1890508E02E5D1654401C49
:1048D000C0B21354401C641CC0B2E4B28C42F4D386
:1048E00070BD0000982400205800002010B5124C24
:1048F000207830B1622211A10020FEF72AFB0220AD
:1049000010BD002211461046F9F7C5FE08B11E2061
:1049100010BD00206070A070E070A060E0602071A9
:1049200020616061A0614FF480611248F7F7DDFCFF
:1049300001202070002010BDF80000202E2E5C2EDB
:104940002E5C2E2E5C736F757263655C6461706C97
:10495000696E6B5C647261672D6E2D64726F705C42
:104960006961705F666C6173685F696E74662E63FF
:1049700000000000DC2A002070B50E4D28680028D9
:1049800016D10024FFF74AFD0B4A08E029B1098837
:10499000814202D152F8240009E0641CE4B252F8CA
:1049A00024104B1CF2D12868002801D1034828604C
:1049B00070BD0000500300205403002084A20108B1
:1049C00010B5002305E0DC0021FA04F4C4545B1C9C
:1049D000DBB29342F7D310BD2DE9F047DFF8CC806E
:1049E00004468A4698F800002F4D17464FF00061A4
:1049F000012808D040F279122DA10020FEF7A9FA73
:104A00000220BDE8F08789464C4501D3AC4201D372
:104A10002320F6E7FEF730FEB0B32E1B301FB8425E
:104A200001D93A4600E0321F5146D8F81800FEF787
:104A3000B5FD0146C8F818002B48844209D22B481E
:104A4000A4F1006420443A465146F7F727FC0020C1
:104A5000D7E7E019A84225D10AEB0600454610F831
:104A6000023C30F8042DC07863F31F4242EA006034
:104A7000814201D02720C4E7524639462046FFF73D
:104A80008FFC10B12020BCE70CE04FF48062174986
:104A90004846FEF7AFFD0446FFF756FE012068705A
:104AA0002046AEE72620ACE700BC0008F800002056
:104AB0002E2E5C2E2E5C2E2E5C736F757263655CE1
:104AC0006461706C696E6B5C647261672D6E2D64DD
:104AD000726F705C6961705F666C6173685F696E4C
:104AE00074662E630000000000040008DC2A002029
:104AF00070B513490446114809784FF00065012943
:104B000007D040F2BB120FA10020FEF722FA0220CC
:104B100070BDAC4201D3844201D3232070BDFEF7A7
:104B2000ABFD48B1AC4207D12846BDE870404FF418
:104B300080621249FEF75EBD262070BD00BC0008F1
:104B4000F80000202E2E5C2E2E5C2E2E5C736F75CE
:104B50007263655C6461706C696E6B5C64726167E2
:104B60002D6E2D64726F705C6961705F666C61732D
:104B7000685F696E74662E630000000000C0000864
:104B80000246084810B500EB810050F8040C0028DC
:104B900006D0114601F0FEFABDE8104001F0EABA75
:104BA00010BD00003C47002008490748086001F09C
:104BB00021FD00F0B5F900221146054800F0F8F992
:104BC00000F0B4F9FEE7000000C0000808ED00E0C6
:104BD000254C0108024901224A7008717047000003
:104BE00068000020024901220A70C8707047000066
:104BF00068000020024901228A7048717047000055
:104C00006800002002484FF40061006900F0AAB972
:104C10006800002002480421006900F0A3B90000E8
:104C2000680000204FF00008474646461625FEF76C
:104C30002BFB00F0B7F9DFF85CB2CBF81000FFF700
:104C400031FC4046FFF7F0FC3846FFF7E1FC304608
:104C5000FFF7F6FCF8F7FAF98F4C2088012800D00E
:104C600000204FF495728DA1FEF773F9E06E00B14C
:104C70008047FFF781FE9648006810B1C06800B118
:104C80008047207B800702D5012002F025FA207B97
:104C9000C00702D00120FFF72FFBFFF7DFFDFEF773
:104CA00080F903F027FFFEF791FB00285CD000207D
:104CB00004F0A0FA002003F03DFE012100238BF850
:104CC00008104FF00B091A46824800F097F90321AB
:104CD00000F09CF94FF0000A4FF0FF32002140F63F
:104CE0003F2000F051F984B2A00507D59BF80600DB
:104CF00010B1012000F006F9FCF784FD600702D531
:104D0000022002F0BDFFE00613D5032002F0B8FF39
:104D10000020FFF77BFC002003F00CFE0020FFF7D3
:104D200083FC0020FFF774FC0020FFF789FCFEF7EE
:104D300035F9A00602D5032002F0A2FF200501D517
:104D4000FEF760F9200701D5FEF725F9E00741D00D
:104D50005A2004F07BFA9BF8080006283AD2DFE8D4
:104D600000F02D0E2D1D39050120A1E78BF808A0BC
:104D70000020FFF74BFC002003F0DCFD2AE0B9F136
:104D8000000F04D0A9F101005FEA000922D101203F
:104D900003F0D0FD03218BF808101AE003F0C2FDE8
:104DA00018B10120FFF732FC0BE00DB16D1E11D1DF
:104DB0000120FFF72BFC8BF808A00BE003F0B2FDFD
:104DC00018B102208BF8080004E08BF808A04FF01F
:104DD0000B091625A0077FF57FAFFFF73DFCFEF717
:104DE000D9F89BF800005C4658B1E078012825D03E
:104DF000022823D04FF0000884F800A04046FFF7B7
:104E000013FCA07850B16079012827D0022825D062
:104E1000002684F802A03046FFF712FC60780028D4
:104E20003FF45AAF2079012826D0022824D0002749
:104E300084F801A03846FFF7EBFB4DE7B8F1010F0E
:104E400001D0012100E000215FEA0108D6D101284C
:104E5000D4D184F800A084F803A0CFE7012E01D0BC
:104E6000012600E00026002ED5D10128D3D184F8F8
:104E700002A084F805A0CEE7012F01D0012700E0B1
:104E80000027002FD6D10128D4D184F801A084F8BE
:104E900004A0CFE76800002000A201082E2E5C2E9F
:104EA0002E5C2E2E5C736F757263655C6461706C32
:104EB000696E6B5C696E746572666163655C6D6179
:104EC000696E5F696E746572666163652E6300006A
:104ED00050030020357E01080149887170470000A9
:104EE00068000020FEF7B2BF10B5044640F2011181
:104EF000F7F7FBF900F052FE00202070BDE81040EB
:104F0000FEF7A4BF80B2DFF808C000DF00207047C2
:104F1000095D0108DFF804C000DF7047F164010893
:104F200001490020086070472403002000207047DA
:104F300089B2DFF808C000DF002070479D600108DB
:104F40000248DFF80CC000DF0048704748450020E9
:104F5000DD5F0108DFF808C000DF002070470000B7
:104F6000ED5F010810B50C460146EFF30380C00663
:104F7000A0B202D0FFF704FE02E0DFF808C000DFB5
:104F8000204610BD695D010891B280B20022DFF8B1
:104F90000CC000DFDFF808C000DF7047C95D010802
:104FA000115D0108DFF804C000DF7047E565010806
:104FB00070B50D4C06460025206860B100231A46E6
:104FC0000B213046DFF824C000DF05462068401C76
:104FD0002060284670BDF7F79BF8054A0549304622
:104FE000DFF814C000DFF1E7240300206965010841
:104FF000A04100200A20030061630108024A014623
:105000000020516070470000240300200548002361
:10501000054A816048F60B010448DFF814C000DF40
:105020000020704724030020C0440020FD640108D4
:1050300069650108012805D0022805D003280BD096
:10504000C72202E0BB2200E0BF2204A10020FDF73E
:1050500080FFFAF71FFAFEE7C322F6E72E2E5C2E3A
:105060002E5C2E2E5C736F757263655C72746F7349
:105070005C5254585F436F6E6669672E6300000090
:10508000FEE70000074801684FF0E0204161002181
:105090008161072101610448016841F07F4101609D
:1050A00040177047D8A1010820ED00E07047704715
:1050B00070B58EB00CA907A8F8F74CFE0B98B0F5A8
:1050C000005F05D0B0F5205F23D0B0F5405F22D05F
:1050D00001202549274D00240968B1FBF0F0234940
:1050E000B0FBF1F62248C5E90004761EC5E9036469
:1050F0002148AC606C61816941F400618161806923
:1051000000F400600D902846F9F723FA28B15222E6
:1051100023E00220DDE70420DBE71648F9F735FA43
:1051200008B1582219E07020CDE9000402940394DC
:1051300004940594002269460E480694F9F7A1F9F3
:1051400008B1652209E02968700848630021094810
:10515000F9F738FA002804D06C2208A10020FDF7E6
:10516000F8FE0EB070BD00005801002000127A0059
:10517000002C0140303A0020001002402E2E5C2E00
:105180002E5C2E2E5C736F757263655C6869635F5D
:1051900068616C5C73746D33325C73746D3332664A
:1051A00031303378625C6770696F2E6300000000F5
:1051B0002DE9FF5F8B46044600EB0B08109D8C48E1
:1051C0004FF0000AC5F800A000791F4628B12078EA
:1051D0003A2871D1864981F804A0854EDFF81492EF
:1051E000F078002818D086F803A099F8002009F17B
:1051F00004011846F7F752F899F8000029680744A7
:1052000008442860F068010CB9F801000904014362
:1052100099F800000844F060CFE020780A2829D0EF
:105220000D28FCD03A281BD0317800297CD0FEF71D
:105230001BFA00F00F02707819F800301A4309F8D1
:105240000020401CC2B2727099F800008646401DD2
:1052500082423AD3674A0021084613785B1D10E06A
:1052600025216448F7F741F886F800A086F801A0E8
:1052700086F802A0A0E012F800C0401C6144C9B248
:10528000C0B28342F7D809B104269AE0B07800286A
:105290001BD10120B070B9F80100494642BAA9F803
:1052A000012099F8030004285ED006DC70B10128C3
:1052B0003ED002287CD13DE082E00A2802D00D28B1
:1052C00076D103E0888840BAF08071E0F08838B188
:1052D000494B1B88984203D0484B1B88984224D1E5
:1052E000F068030C1B041343834204D00120F070C8
:1052F0000226641C65E0894686F803A07246091DF3
:105300003846F6F7CBFF99F80000296807440844AF
:105310002860F068B9F801106FF30F00084399F89E
:1053200000100844F06043E039E00120307147E0AC
:10533000012646E029680E98FF22411A3846F6F702
:10534000CDFF2868F168091A0F9801600298A8EB50
:105350000401ABEB0101016099F8041099F8050014
:10536000090341EA001015E029680E98FF22411A4E
:105370003846F6F7B3FF2868F168091A0F980160FC
:105380000298A8EB0401ABEB01010160B9F804003D
:1053900040BA0004F060022004B0BDE8F09F7178CC
:1053A000252923D2FEF760F97278000109F802007E
:1053B0003078D8B100203070641C44457FF42DAFA4
:1053C000002629680E98FF22411A3846F6F786FF14
:1053D00007482968C068411A0F9801600298A8EB35
:1053E0000401ABEB010101603046D5E70120E2E7A3
:1053F00014010020DC2E00201E0100201C010020D2
:1054000070B5012A12D0022A10D0002301248C404A
:105410000F268D00082911D3203D4168AE40B143CD
:1054200041604168AB400B4343600FE00823EDE768
:10543000046170BD022AFCD1446170BD0168AE40B8
:10544000B14301600168AB400B430360012AF1D115
:10545000EEE770B5012A12D0022A10D000230124F1
:105460008C400F268D00082911D3203D4168AE40A5
:10547000B14341604168AB400B4343600FE00823F8
:10548000EDE7046170BD022AFCD1446170BD016882
:10549000AE40B14301600168AB400B430360012A99
:1054A000F1D1EEE710B50F2303248A00082909D3B0
:1054B000203A4168934099434160416894400C43CD
:1054C000446010BD016893409943016001689440B5
:1054D0002143016010BD10B50F2303248A00082961
:1054E00009D3203A41689340994341604168944010
:1054F0000C43446010BD016893409943016001680A
:1055000094402143016010BD10B50F2307248A0089
:10551000082909D3203A4168934099434160416882
:1055200094400C43446010BD01689340994301606E
:10553000016894402143016010BD022002F0A0BB2D
:105540007FB50C4D04462846FEF78EFD002810D18D
:10555000FF2210216846F6F7C1FE206800906068BF
:1055600001902089ADF808006A4610212846FEF710
:1055700017FF7FBD00FC01082DE9F05FDFF8008117
:105580000446DFF8F89098F8000015468B4601288D
:1055900005D0A2223BA10020FDF7DBFC3FE04FF449
:1055A0008060B4FBF0F300FB1343014602260BB10D
:1055B000AB222EE00A46954204D3B5FBF0F302FB82
:1055C000135008B1B22224E0B4FBF1F002FB10400A
:1055D0002844884201D9B9221BE098F8020078B922
:1055E00098F8030050B1D8F80800844204D3D8F8E2
:1055F0000C100844A04203D8C7220AE0C12208E0E8
:1056000098F8040070B1D8E904010844A04209D018
:10561000CF221CA10020FDF79CFC88F8006002202E
:10562000BDE8F09F25486719844202D2244887428A
:1056300017D84FF0010A88F804A02A465946204698
:10564000C8E90445FFF7C8F9262804D00028E7D0A8
:1056500088F80060E4E75A4629462046FEF7A0FE97
:1056600018B188F800602020DAE74F4503D3FFF730
:105670006BF888F801A00020D2E7000000BC000809
:10568000F80000202E2E5C2E2E5C2E2E5C736F7583
:105690007263655C6461706C696E6B5C6472616797
:1056A0002D6E2D64726F705C6961705F666C6173E2
:1056B000685F696E74662E630000000000FC0108DC
:1056C00000C000084FF480607047000070B51446B9
:1056D0000E46054620444FF48061B1EB402F07D2BF
:1056E00040F263220AA10020FDF733FC002070BDC8
:1056F0004FF400713046F6F7F8FD35B911481249FC
:10570000006942013046F6F7C9FD600270BD000035
:105710002E2E5C2E2E5C2E2E5C736F757263655C74
:105720006461706C696E6B5C647261672D6E2D6470
:10573000726F705C7669727475616C5F66732E63EC
:10574000000000003C0100203036002010B50B4660
:105750004FF4007408B1002010BD224602491846DB
:10576000F6F79CFD204610BD703300202DE9F04F68
:105770008A46410287B000234FEA422B1D4606931A
:10578000029130B1BAF1000F03D0002007B0BDE89C
:10579000F08F344C2078012841D0022841D00026D7
:1057A00031A0009059465046029A03F075FA074618
:1057B000304931A0CDE900013B4659465046029A96
:1057C00001F012FA074461882DA0CDE900013B46A3
:1057D00059465046029A02F017FEC4194EB12AA04B
:1057E000CDE90006234659465046029A01F0FCF9DD
:1057F000044406A8FDF7F0FD060030D0069870B30B
:1058000023A00090234659465046029A03F044FADA
:10581000044403AF4FF00A084FF4007919E01FA6C3
:10582000BEE721A6BCE723A003AB07C883E80700B7
:10583000069850F825106D1CEDB203A803F0E1F9AD
:10584000CDE90078234659465046029A03F000FA03
:105850000444B54203D204F10A004845E3D320468C
:1058600094E70000340100204173736572740D0ADF
:10587000000000002C31002046696C65000000002B
:105880004C696E6500000000536F7572636500001F
:1058900048657864756D70730D0A0000426F6F740F
:1058A0006C6F6164657200004170706C6963617453
:1058B000696F6E0000000000000000000D0A00008B
:1058C00030B413460C464202204630BC590202F066
:1058D000EFBD00002DE9FE4F044640028A464FEA24
:1058E000422B0026029003F0A9FC0546FDF78AFF33
:1058F00007462846FDF7AAFF05462CB1BAF1000F6E
:1059000002D00020BDE8FE8F20A0CDE9000733467D
:1059100059465046029A01F067F904461DA00090CE
:10592000234659465046029A03F0B6F9002604442D
:1059300001274FF00208DFF8649019E04FB918A171
:10594000CDE90018234659465046029A03F080F9E3
:105950000444E8070AD059F8260000902346594627
:105960005046029A03F098F9044400276D08761C0B
:105970000DB1052EE2D30BA1CDE9001823465946FF
:105980005046029A03F064F92044BBE76572726FD7
:1059900072000000747970653A200000649B010871
:1059A0002C2000000D0A0000F8B5460255020F46F3
:1059B000002310B10FB10020F8BD0D480090324611
:1059C0002946384603F068F904460AA000902346A9
:1059D000324629463846FDF7DDFF044406A0009014
:1059E000234632462946384603F056F92044F8BD8E
:1059F00060AD01084052000022293B0D0A3C2F7384
:105A000063726970743E0D0A3C2F626F64793E0DBB
:105A10000A3C2F68746D6C3E0D0A00002DE9F041C0
:105A2000094C06460D462046F6F776FC074645B17A
:105A300016B10020BDE8F081024621462846F6F75F
:105A40002DFC3846F6E7000088AC010810B50B467F
:105A50004FF4007408B1002010BD224602491846D8
:105A6000F6F71CFC204610BD7031002006490B687B
:105A7000091D0A68091D09680360C0E901214FF08A
:105A8000A531C16070470000E8F7FF1F10B5084658
:105A900054022146F6F729FC204610BD70B5244D6E
:105AA0004FF0FF346878A978884201D0012000E0E7
:105AB000002040F2F9121FA1FDF74BFA6878022886
:105AC00003D0C0B101281AD022E027484FF4FA745D
:105AD00090F82000E0B101280AD0022818D003284D
:105AE00016D040F20B2213A10020FDF732FA0FE08E
:105AF00044F620640CE0A878022808D008E0A878D2
:105B0000022801D018B103E040F6C41400E00024DC
:105B1000601C05D140F21B2206A1FDF71AFA0024F1
:105B2000A868A04201D9012070BD002070BD00000E
:105B3000240100202E2E5C2E2E5C2E2E5C736F75A1
:105B40007263655C6461706C696E6B5C64726167E2
:105B50002D6E2D64726F705C7666735F6D616E6121
:105B60006765722E630000000431002070B52029A3
:105B700003D000231A4601260CE090FAA0F070BD75
:105B8000C40704D08D1A6D1E06FA05F4234340089D
:105B9000521CD2B28A42F3D3184670BD10B52521EB
:105BA0000648F6F7A2FB06480021C160017041706B
:105BB0008170C170C180017110BD0000DC2E002019
:105BC0001401002070B505460E460846F6F7A4FB02
:105BD000401C3C2801D93C2003E03046F6F79CFBF2
:105BE000401C0446024631462846F6F757FB002083
:105BF00085F83B00E0B270BD0146EFF3108000F085
:105C0000010272B6086808B103680B60002A00D16F
:105C100062B6704770B50D46002812D04FF6FF717E
:105C2000084C884204D222680146104600F0D4FA9B
:105C300020684570044800F0F8F8BDE8704000F0B6
:105C400087BB70BD3803002054450020704700001A
:105C500070B51A4EF06800282ED0B08A401EB0826F
:105C6000002523E0A06838B161684160606810B128
:105C7000A16881606560A56010482146183800F071
:105C8000CFFAA08AB0826078042804D10C49E08A57
:105C900009880844A0820120607084F82000E06830
:105CA000F060E06808B10661E5602561B08A00280F
:105CB00002D1F468002CD5D170BD00006C450020E5
:105CC0004003002070B504000FD00D4DA1780126CF
:105CD0002868827891420CD900F0BEFA2868467094
:105CE0002046BDE8704000F033BB064800F09DF848
:105CF000F7E766702146BDE87040024800F090BAB0
:105D000038030020544500200321FFF783BF000023
:105D100001480068408B70473803002010B50446E6
:105D2000008B084320836278618B062A16D0052AEF
:105D300017D1084215D001EA00026283884320830C
:105D4000204600F0ADFA01206070022084F82000A7
:105D50002146BDE81040034800F062BA31EA000273
:105D6000ECD010BD54450020024670B5154800EB3C
:105D7000810050F8044C002C22D0208B104320834B
:105D80006178658B062918D0052919D1284217D0CA
:105D900005EA00016183A8432083204600F080FAD1
:105DA000208BA843208301206070022084F820000B
:105DB0002046BDE87040FFF785BF35EA0001EAD014
:105DC00070BD00003C47002070B503460C480D46EE
:105DD0000468208B42B133EA000101D0062109E0BA
:105DE00098432083022070BD10EA030101D0618333
:105DF000F6E7052163832846FFF70CFF012070BDFD
:105E000038030020814202D342688A4201D801202F
:105E10007047EFF3108212F0010F72B603680B6047
:105E2000016000D162B6002070470146406800233F
:105E300042684A600A78022A05D0012A03D0032A60
:105E400001D04360704742680AB19160436083604B
:105E50007047000070B504460020154620700122EE
:105E60006270A1706060A060E0602061A082E0824A
:105E70002083608384F8200084F82100608C18B9A6
:105E80000448FFF7B9FEA06229462046BDE87040ED
:105E900000F004B8804600207047000010B5428C26
:105EA000920803D10E4A1288C2F38D02836A03EB73
:105EB00082035A0700D51B1F4FF0807243E902127C
:105EC00000221446403B43F82240521C0E2AFAD3CB
:105ED000C2691A624362C162806A0249016010BDF0
:105EE000D4A10108A52E5AE20349044A0968C882D0
:105EF0001288104488827047380300204003002035
:105F00000748016807488A8A0088CB8A101A1A4411
:105F100080B28A82010402D40421FFF77BBE70475D
:105F200038030020400300202DE9F041044640687A
:105F30000F46002620B16078022818D0A08980B3CF
:105F4000A089E189884241D2208904EB8000076161
:105F500072B6A089401CA08162B62089401C80B224
:105F60002081E189884200D12681BDE8F0816670F8
:105F70002046FFF75AFF80F820602189054604EB90
:105F80008101C069086172B6A089401CA08162B617
:105F90002089401C80B22081E18988420BD1268172
:105FA00009E0FFE72046FFF740FF0546C0690421EE
:105FB000076085F8201001206870284600F070F90D
:105FC0002946BDE8F041044800F02AB9BDE8F04197
:105FD0000320FFF72FB80000544500200321017073
:105FE0000021417041804160816070472DE9F04798
:105FF0000446408820B1274EA1683268914202D001
:10600000FF20BDE8F087401E0004000C60803ED1F8
:1060100031686078DFF88080887061684FF000092F
:10602000012739B32046FFF700FF0546052085F814
:106030002000284600F034F96780A560A8786070D9
:106040003168D8F804008A788078824201D32846E3
:106050000AE0114800F0E4F829460F4800F0E0F8A3
:10606000306847706F7010E0FFF72CFE316881F8E0
:1060700020900CE0D8F804108A783168824206D962
:10608000054800F0CDF8306847700020ECE70020AC
:10609000B7E70000380300205445002070B5184DC4
:1060A0000E4604464188286839B1A168814208D16A
:1060B0006088401C6080002070BDA06080786070A7
:1060C000F6E776B162788078824203D28870A06861
:1060D00000F0CCF8606830B12046296800F0A0F8E4
:1060E00008E0012070BD28686060296800204860D1
:1060F0002868846009213046FFF78CFDF1E7000035
:106100003803002070B518480121026851700068FA
:1061100000F0A2F8154D6C7812E005EBC401486858
:106120000278C2B1012A1BD000F0E6F8E878641CBE
:10613000844200D1002472B6A878401EA87062B6CE
:10614000A8780028E9D16C700948FFF76EFEBDE819
:10615000704000F0FDB8098989B2FFF7DFFDE5E77F
:106160008968FFF7E1FEE1E73803002018470020C7
:10617000544500200548017811B101214170704754
:1061800003494FF080500860704700003003002042
:1061900004ED00E0F0B40F4FBC1CFE783D4672B633
:1061A000BA78B24207D2521C22702A78531CB342EA
:1061B00000D100232B7062B6FB78934205D907EB20
:1061C000C202C2E90101F0BC7047F0BC0220FEF738
:1061D00031BF000018470020104A10B5D368ABB19A
:1061E00013469B8A03E08CB12246A48A2344D468D8
:1061F0008B42F8D3C460D0600261C46804B12061EE
:10620000591A8182908A401A908210BD0024C4607D
:10621000D060C91A02619182848210BD6C45002051
:1062200030B502780024022A03D0012A01D0032AC3
:1062300000D101248B7800E01046426812B19578B5
:106240009D42F9D24A6041601CB102B19160886000
:1062500030BD0020FBE7000003494A68426000228D
:1062600082604860704700005445002010B5836884
:1062700004462BB9607801280ED1084B03E09B68D7
:1062800018780028FBD0204600F01EF82146BDE813
:1062900010401846FFF7C4BF10BD00005445002051
:1062A00010B5016900290ED0C268CA60C368002217
:1062B0003BB18B8A848A23448B82C3681961C26094
:1062C00000E08A82026110BD816839B142684A608B
:1062D0004168002901D0806888607047054906E060
:1062E0004A68824202D140684860704711460029DE
:1062F000F6D170475445002010B5416879B1FFF7D9
:1063000094FD0446FFF7CCFF01206070032084F861
:1063100020002146BDE810400348FFF781BF4188B7
:10632000491C418010BD000054450020064800680B
:10633000D0E90910814203D300680449884202D0A1
:106340000120FEF777BE704738030020A52E5AE2E1
:106350000249486002214170704700003803002064
:106360002DE9F0471646414A8146884600200546F9
:106370003D49128802E041F82050401C9042FAD377
:106380003B48302201883B48FCF7C0FD3A48008872
:1063900080B240F00042394801683948FCF7B6FD48
:1063A00038480822018838480068FCF7AFFD374CB0
:1063B000FF27374AE770658400212046FFF74AFD32
:1063C000344804210170456033480170C56005619F
:1063D0008582606A2030F5F795FE304831490460C7
:1063E000022060702E48057045700978C170FFF773
:1063F00053FD2D48016841F47F01016000683906B2
:1064000001EA00202849C0431439B0FA80F0096835
:10641000C0F10800C1F30221814200DB481C22497F
:10642000091F0B686FF08072824063F317020A60E5
:10643000FEF728FE1D49002808600DDB00F1E02171
:1064400081F8007400F01F0201219140401180008A
:1064500000F1E020C0F80011324641464846BDE850
:10646000F047002300F080B83C470020D2A101088B
:10647000E8A10108B4450020D4A10108ECA101085D
:1064800080460020F2A101084C0300208445002032
:1064900081500108544500206C450020380300203D
:1064A00018470020F0A1010820ED00E0340300208F
:1064B0000C4810B50268012151700068FFF7CCFE4E
:1064C000FFF7C4FB08480168491C0160FFF7C0FBE7
:1064D00000F02AF80548FFF7A8FCBDE81040FFF7D8
:1064E00037BF00003803002040030020544500203F
:1064F000014800687047000040030020074CDFF8A7
:1065000020C0208980B200DFDFF818C000DF61689A
:106510000029F9D000208847F6E700002403002076
:10652000E95E0108015F010870B50D4D286800287B
:1065300015D0A8880B4E401EA8800AE0E088FEF720
:10654000B6FDA088A8802068286021463068FFF743
:1065500059FCA888002802D12C68002CEED170BD0F
:10656000440300204C0300202DE9F0411E4617464D
:1065700080460C4611F0FF0F00D14C1C1548FFF768
:106580003BFB051E23D0200AAF626884E1B242467D
:106590002846EE61FFF75EFC104901240E48098889
:1065A00005E000EB840252F8042C1AB1641C8C4202
:1065B000F7D9002400EB840040F8045CEC70284616
:1065C000FFF780FB0648006880F820402046BDE8C1
:1065D000F0810000B44500203C470020D2A1010812
:1065E0003803002002480068002800D0C0787047B7
:1065F0003803002030B58FB014210AA8F5F775FED6
:1066000028216846F5F771FEF8F7ECFEF7F76AFA0D
:1066100001250024CDE90A5429460AA8F7F7DAFA39
:1066200020B1402216A10020FCF793FC4FF48030EB
:10663000CDE9005002250294CDE907504FF4E01057
:1066400009906846F7F71AFC20B14C220CA10020F3
:10665000FCF77FFC0F20CDE90A054FF48060CDE9FF
:106660000C4002210AA80E94F7F7B4FA002804D0CF
:10667000572203A10020FCF76CFC0FB030BD0000D6
:106680002E2E5C2E2E5C2E2E5C736F757263655CF5
:106690006869635F68616C5C73746D33325C7374DA
:1066A0006D33326631303378625C73646B2E630015
:1066B00040F20C4398420FD802449A420CD9081A6F
:1066C00090F80C04C0F30111022903D000F003007C
:1066D000022801D0012070470020704740F20C438F
:1066E00098420FD802449A420CD9081A90F80C0428
:1066F000C0F30111022903D000F00300022801D0E9
:10670000012070470020704740F20C4398420FD898
:1067100002449A420CD9081A90F80C04C0F30111F3
:10672000022903D000F00300022801D001207047A5
:10673000002070477CB5DDE906540CB103A400E0ED
:1067400003A4CDE9005400F04FFA7CBD31000000F5
:10675000300000002DE9F04700242646FDF75EFEDC
:10676000DFF8F4900546A0464F4621213B48C9F882
:106770001080F5F7BAFD394821212130F5F7B5FD34
:10678000364809214230F5F7B0FD87F81480334FC1
:10679000A7F15E0AB8195AF8241002F032FA641C04
:1067A0003044E4B2C6B2042CF4D307F806800024C7
:1067B0002A4F26462137A7F16F0A38195AF82610B2
:1067C00002F01FFA761C2044F6B2C4B2042EF4D3B1
:1067D00007F80480214C4646423420464F46D9F8FB
:1067E000001002F00EFAC0B22654FDF705FE006854
:1067F0003861194810300671280BFDF771FF164CEF
:1068000015342070C5F30320FDF76AFF6070FCF7B4
:10681000DDFD01281AD0FDF7C7F9B8B1C5F30310A3
:10682000FDF75EFFA07005F00F00FDF759FFE07067
:10683000094826711A30302101703221417035210A
:1068400081703821C1700671BDE8F087082040EAE8
:10685000151000F00F00E3E748000020F6240020A8
:106860002DE9F041364E0746B06941693846884700
:106870000546B069816938468847044635B12CB170
:106880004FF4806845450AD8012009E040F23512EE
:106890002CA10020FCF75DFB0220BDE8F081002068
:1068A0004FF49D7227A1FCF754FBB8FBF5F105FBF3
:1068B000118048B1002040F23B1222A1FCF749FBB5
:1068C000AC4203D3012002E00120F4E700204FF4A2
:1068D0009E721CA1FCF73DFBB4FBF5F005FB1040DC
:1068E000C0B1002040F23D1216A1FCF732FBB7FB0D
:1068F000F4F004FB1070381AC6E9030470604445D4
:1069000000D34446B460B169096A29B188470400DC
:106910000AD101E00120E5E7307850B1B069C168E3
:10692000F0688847040004D0B0694068804720467A
:10693000B3E7FF221048B168F5F7D0FC0020ACE7C0
:10694000DC0000202E2E5C2E2E5C2E2E5C736F75CC
:106950007263655C6461706C696E6B5C64726167C4
:106960002D6E2D64726F705C666C6173685F6D6113
:106970006E616765722E6300DC26002010B5EFF3B0
:10698000108272B6074C084BD96844F821000B20DE
:10699000491CB1FBF0F400FB141082F31088D8609E
:1069A00010BD0000744100201003002010B5094CF8
:1069B000207840B100F08AF86068C16806488847CE
:1069C0000021217010BDC02204A10020FCF7C1FAF3
:1069D000022010BD9C000020A82500202E2E5C2E39
:1069E0002E5C2E2E5C736F757263655C6461706CD7
:1069F000696E6B5C647261672D6E2D64726F705C82
:106A000066696C655F73747265616D2E630000006A
:106A100070B5134C0546207808B1852202E0022D9E
:106A200006D38B220FA10020FCF793FA022070BD41
:106A3000FEF7B8FAA0604FF482711748F5F755FCDD
:106A40000120207006480C3000EB051060604168A2
:106A5000114888470028EAD00321217070BD00004A
:106A60009C0000202E2E5C2E2E5C2E2E5C736F75EB
:106A70007263655C6461706C696E6B5C64726167A3
:106A80002D6E2D64726F705C66696C655F737472D5
:106A900065616D2E63000000A82500202DE9F041FE
:106AA000094D0E460746002405EB041031460268E6
:106AB0003846904710B12046BDE8F081641CE4B22E
:106AC000022CF1D30320F7E7A800002010B5FEF751
:106AD00069FA06498968884201D1012000E0002056
:106AE000BDE81040622202A1FCF733BA9C000020EE
:106AF0002E2E5C2E2E5C2E2E5C736F757263655C81
:106B00006461706C696E6B5C647261672D6E2D647C
:106B1000726F705C66696C655F73747265616D2E0F
:106B20006300000010B500F1080103220C4607A025
:106B3000F5F706FC002806D00322214604A0F5F74D
:106B4000FFFB08B1032010BD012010BD42494E00DB
:106B50004845580070B5154D06460C462878012862
:106B600006D0A42212A10020FCF7F3F9022070BD88
:106B7000FFF7ACFF6868224631468368194898479A
:106B80000446132806D0142C06D02CB103202870FC
:106B9000204670BD0220FAE72878012800D00020A6
:106BA000B22203A1FCF7D5F9F2E700009C00002017
:106BB0002E2E5C2E2E5C2E2E5C736F757263655CC0
:106BC0006461706C696E6B5C647261672D6E2D64BC
:106BD000726F705C66696C655F73747265616D2E4F
:106BE00063000000A82500202DE9FC478246DDE96E
:106BF0000A0700901C4690468946504602F04CF821
:106C0000054602260EA0CDE9000663194246494614
:106C1000504602F01DF80544631942464946504665
:106C2000009702F039F8054406A0CDE90006631983
:106C300042464946504602F00BF82844BDE8FC871E
:106C40003A2000000D0A000010B51E21002000F0BF
:106C50008BFD002800D0012010BD00002DE9F04779
:106C600092B00D46DDE91A9804461E4617464421A7
:106C70006846DDF870A0F5F738FBCDE90076CDE980
:106C8000029860680990A0680D902068CDE90E0513
:106C90004FF080701090684600F01CFD00281DD059
:106CA000144DDFF85480002411A9404600F0F0F99B
:106CB00098B11198800314D56946002000F036F988
:106CC00000280BD00D49404600F0A2FD002805D059
:106CD0000098BAF1010F08D050B1002012B0BDE801
:106CE000F087641CAC42DFD3F7E7B9198842F4D1CE
:106CF0000120F3E740420F00F0ED00E003005FA049
:106D000010B5044600F0B2FF002801D104F07F4026
:106D100010BD10B5F6F79AF9F7F7E2FC012010BDA7
:106D20002DE9F8430020411E0090324864260427D4
:106D300001600024DFF8C080416011E084B10121CE
:106D4000002000F011FD012000F0D2F90220FEF732
:106D5000D9F8002000F0CCF90220FEF7D3F8002487
:106D6000FFF7D7FFD8F8000010B1806800B1804766
:106D7000F7F793FCA0B3FFF767FF88B30021082063
:106D800000F0F2FC60B34FF0A041042000F0ECFCF6
:106D900030B300254FF0204909E06946042000F097
:106DA0001FF9F0B1009939EA010002D06D1CB5421B
:106DB000F3DBB54217D0012C15D01049042000F0A8
:106DC000D3FC68B1D8F8000010B1006900B1804769
:106DD0000021082000F0C8FC10B10120BDE8F883B4
:106DE00001E00124E5E77F1E01247FB2002FA5DC2E
:106DF0000020F3E78400002050030020000F005023
:106E000010B5094C00220D212046FEF722FB00227E
:106E10000E212046FEF71DFB00220C212046FEF726
:106E200018FB012010BD0000000C014038B50C46D5
:106E30000546FFF765FF05F0F00240EA0201082071
:106E400000F092FC002822D005F00C05ED1C6946EC
:106E5000284600F077FB6946284600F073FB0022C5
:106E600022609DF8031042EA016121609DF8022032
:106E700041EA024121609DF8012041EA022121609E
:106E80009DF8002011432160012800D0002038BD6A
:106E9000F8B50D46044662B396081749002000F085
:106EA00061FB002826D00527042221466846FDF70D
:106EB00087FD6946384600F045FB012819D10F27A8
:106EC0000021384600F03EFB012812D10024761E36
:106ED00007E02946384600F035FB012809D1641C3B
:106EE0002D1DB442F5D30E20294600F02BFB0128BE
:106EF00000D00020F8BD00005200002338B50D4638
:106F000004460949002000F02DFB00280BD06946FB
:106F1000204600F035F8002805D0A007C10E0098E3
:106F2000C8402870012038BD500000232DE9F041F1
:106F30000E46014600246425104800F069FC002834
:106F400010D00E4F3F1F3146384600F0A1F8002800
:106F500008D03068C00302D4641CAC42F3DBAC42FE
:106F600002D10020BDE8F08104483146001D00F048
:106F70008FF80028F6D00120F4E70000F4ED00E0DF
:106F80001CB50C460146042201A8FDF719FD052099
:106F900001A900F0D7FA012820D10F20694600F09E
:106FA000D1FA01281AD10E20694600F0CBFA00224E
:106FB00022609DF8031042EA016121609DF80220E1
:106FC00041EA024121609DF8012041EA022121604D
:106FD0009DF8002011432160012800D000201CBD35
:106FE00038B50C4600F00C006946801C00F0AAFA87
:106FF000002222609DF8031042EA016121609DF8A1
:10700000022041EA024121609DF8012041EA02216B
:1070100021609DF8002011432160012800D000204C
:1070200038BD2DE9F04114460F46054608E03946C3
:107030002846FFF763FF002827D0641E6D1C7F1CC5
:1070400014B3A807F3D111E0C5F30900C0F58066B9
:10705000B44201D224F00306324639462846FFF7EF
:1070600017FF002811D035443744A41B032CEBD85C
:1070700008E039462846FFF741FF002805D0641E86
:107080006D1C7F1C002CF4D10120BDE8F0810000B4
:1070900070B50C4605460749002000F063FA002849
:1070A00006D021462846FFF76BFF002800D00120BC
:1070B00070BD0000520000231CB500206A46FF216D
:1070C0001154401CC0B20828FAD311463320F7F7F8
:1070D00059FF01201CBD00000149087070470000E5
:1070E0007C00002001494860704700007C000020BF
:1070F0000C4908B5096829B1C96919B101B05DF831
:1071000004EB0847012148B1074801600748009097
:1071100004226946064800F045FB08BD0248001FEE
:10712000016008BD50030020140C01400400FA0562
:107130000CED00E02DE9F041144F05004FF4005430
:107140004FF4804616D0FFF7EBFD1149042000F004
:1071500009FA00280CD001210C2000F003FA0028C5
:1071600006D0396F09B1284688470A48046006608E
:10717000BDE8F0810748001F04600660396F0029F0
:10718000F6D02846BDE8F0410847000000A20108FB
:1071900044050040140C01402DE9FC41164F174DE9
:1071A00004004FF080784FF0227618D0FFF7B8FD3A
:1071B00069463846FFF73AFE0098B04201D10121F6
:1071C00015E00F480190042201A90E4800F0EAFAE8
:1071D000296F002901D020468847BDE8FC81694617
:1071E0003846FFF723FE0098B042F1D10021404617
:1071F00000F0B8F9ECE70000FC00000100A2010873
:107200000400FA050CED00E0002803D00249034811
:1072100000F0FEBA704700000400FA050CED00E033
:10722000F8B502240646062801D0FFF772FD4E4944
:107230004E4D4F1C082E74D2DFE806F00415085A94
:107240005C748A910120FFF753FF88E00120FFF76B
:107250004FFF0220FDF756FE0020FFF749FF0220F6
:10726000FDF750FE79E0FFF75BFD002878D0404E37
:10727000307801280BD00FE0641E64B2002C70DD62
:107280000120FFF735FF0220FDF73CFE0020FFF74D
:107290002FFF0220FDF736FE3946284600F0B8FAE7
:1072A0000028E9D0314C01210C34204600F0B0FA1E
:1072B000002855D0307828B90120FFF719FF0220A7
:1072C000FDF720FE0020FFF713FF0220FDF71AFE56
:1072D00069462846FFF7DCFE002841D0009880036D
:1072E000F6D50021204600F093FA002838D036E089
:1072F0002846F8E7F7F7D1F9002831D0FFF7A4FCCA
:1073000000282DD00021082000F02EFA002827D0D8
:107310004FF0A041042000F027FA002820D0394681
:10732000E6E71EE0FFF7FCFC002819D00E492846CE
:10733000C91C00F06DFA002812D069462846FFF7F4
:10734000A7FE00280CD000988003F6D507E007E0E0
:10735000284600F05DFA002802D0FFF751FD012019
:10736000F8BD0020F8BD000000005FA0F0ED00E0D7
:107370007C000020F8B502240546062801D0FFF75E
:10738000C8FC6C492A46CE1C6B4D082A7ED2DFE829
:1073900002F00442089A9CB4C9C70120FFF7A8FE76
:1073A000BEE00120FFF7A4FE0220FDF7ABFD0020A8
:1073B000FFF79EFE0220FDF7A5FDFFF7B1FC0028B8
:1073C0007ED069460420FFF70BFE002878D0009895
:1073D00020F08041042000F0C7F9002870D06946F1
:1073E0000420FFF7FDFD00286AD000980028F6DB96
:1073F00020F08051042000F0B7F9002860D06946E1
:107400000420FFF7EDFD00285AD000988000F6D444
:10741000FFF7F6FC84E0FFF783FC002850D00FE074
:10742000641E64B2002C31DD0120FFF761FE0220F2
:10743000FDF768FD0020FFF75BFE0220FDF762FD0F
:107440003146284600F0E4F90028E9D0694628468C
:10745000FFF71EFE002864D000988003F6D5364C56
:1074600001210C34204600F0D3F9002859D0324EC7
:107470006946E43E3046FFF70BFE002851D00098E5
:1074800000F4E0612D484068014300E050E02C48E2
:107490000143304600F0BCF9002842D00220FDF73D
:1074A00031FD69462846FFF7F3FD002839D00098E2
:1074B0008003F6D50021204600F0AAF9002800E05C
:1074C0002FE02ED02CE02846F6E7F7F7E6F8002864
:1074D00027D0FFF7B9FB002823D00021082000F0B7
:1074E00043F900281DD04FF0A041042000F03CF9E2
:1074F000002816D00F49491CE5E7FFF711FC0028CA
:107500000FD03146284600F083F9002809D069469B
:107510002846FFF7BDFD002803D000988003F6D56C
:107520000120F8BD284600F073F90028F9D06FE774
:107530000020F8BD00005FA0F0ED00E07C0000201E
:107540000000FA0570B50D4606460024294630466F
:10755000F7F79CF9022803D1641CE4B2642CF5D33C
:1075600070BD000038B50D460446FFF7C9FB04F0B6
:10757000F00240EA0201082000F0F6F8002805D0E9
:1075800034B90E484168A94201D1012038BD456097
:1075900004F00C04042229466846641CFDF710FA26
:1075A00069462046FFF7CEFF012805D10E200021B5
:1075B000FFF7C8FF0128E9D0002038BD8400002073
:1075C000F8B50D4604462AB3960813490020FFF784
:1075D000C9FF00281FD00527042221466846FDF771
:1075E000EFF969463846FFF7ADFF012812D10D27A4
:1075F000002407E029463846FFF7A4FF012809D1F7
:10760000641C2D1DB442F5D30E200021FFF79AFF14
:10761000012800D00020F8BD5200002370B50C46B0
:10762000054608490020FFF79DFF002809D0A8075C
:10763000C00E04FA00F1284600F02CF8002800D013
:10764000012070BD5000002373B506460024642558
:107650000F48019900F0DCF8002813D00C4846F4DC
:107660008031001F00F0D4F800280BD0084E083EEF
:1076700001A93046FFF70CFD002803D00198C00394
:1076800001D501207CBD641CAC42F1DB00207CBD37
:10769000F8ED00E038B50C46014604226846FDF7D7
:1076A0008FF905206946FFF74DFF012810D104220C
:1076B00021466846FDF784F90D206946FFF742FF31
:1076C000012805D10E200021FFF73CFF012800D042
:1076D000002038BD38B505460021082000F044F8E8
:1076E00000283AD00024204655F82410FFF7ACFFBC
:1076F000002832D0641C042CF5D30920696AFFF7F6
:10770000A3FF002829D00D24204655F82410FFF7A8
:107710009BFF002821D0641C102CF5D31020296C6D
:10772000FFF792FF002818D00E4C0D49204600F0BC
:107730006FF8002811D00A492046891E00F068F829
:1077400000280AD069460420FFF74AFC002804D02C
:10775000009810F0A00F01D0002038BD012038BDE6
:107760000B005FA0F0ED00E0F8B50D4E04460D46AD
:10777000082802D13068A84210D004F00C07042277
:107780006846FDF71DF969463846FFF7DBFE01281C
:1077900001D00020F8BD082C00D135600120F8BDD3
:1077A000840000202DE9F04114460D46064608E00D
:1077B00029783046FFF732FF002827D0641E6D1C61
:1077C000761C14B3B007F3D111E0C6F30900C0F57D
:1077D0008067BC4201D224F003073A46294630466E
:1077E000FFF7EEFE002811D03E443D44E41B032C7D
:1077F000EBD808E029783046FFF710FF002805D0C5
:10780000641E6D1C761C002CF4D10120BDE8F081B3
:1078100070B50C46054607490020FFF7A3FE002877
:1078200006D021462846FFF735FF002800D001206A
:1078300070BD00005200002310B5FDF7B3FB0749EF
:107840004968884201D1012000E00020BDE81040D5
:1078500040F2691202A1FBF77CBB0000240100206A
:107860002E2E5C2E2E5C2E2E5C736F757263655C03
:107870006461706C696E6B5C647261672D6E2D64FF
:10788000726F705C7666735F6D616E616765722E94
:107890006300000002480021C068FDF749BB0000FA
:1078A000240100200148C068FDF754BB24010020DA
:1078B0000120FFF71DBC0120FFF71ABC10B5012005
:1078C000FFF716FC0520FDF71DFB0020FFF710FC5D
:1078D000BDE810400520FDF715BB10B50120FFF7EE
:1078E00007FC0220FDF70EFB0020FFF701FCBDE8BE
:1078F00010400220FDF706BB02480078012800D0A6
:10790000002070478C00002002480078012800D039
:1079100000207047F8000020FEB51C4E34697CB38F
:1079200000250C341DE0FCF791FD18B190F83800EB
:10793000400715D4206800F059F900281FD1012014
:10794000FCF79CFB05001AD10090019002901048B2
:1079500000231A46406881681830FFF77FF980B12C
:10796000143420680028DED161680029DBD1306939
:1079700090F8A20110B100F075F805462846FEBD4A
:1079800001E01020FBE70120F9E7000000A2010858
:107990008C0000203EB505461348006908B3134823
:1079A000446844B1284600F023F8B5FBF0F100FB31
:1079B0001150A0B901E002203EBD0120FCF75EFBA2
:1079C0000028F9D10090019002900346E1682A4610
:1079D00004F11800FFF742F908B100203EBD0F2066
:1079E0003EBD01203EBD000000A201088C00002029
:1079F0000E4910B50A69BAB1916879B1491E0DD422
:107A0000526802EBC1031B68834205D8042000EBD7
:107A1000C1001044006810BD491EF2D54FF4C67273
:107A200003A10020FBF795FA002010BD00A2010879
:107A30002E2E5C2E2E5C2E2E5C736F757263655C31
:107A40006461706C696E6B5C696E746572666163AB
:107A5000655C7461726765745F666C6173682E63E0
:107A60000000000070B5114D2869E0B1104C0020F5
:107A700060706060012000F003F910B128690C30DB
:107A800007E0072070BD017AC90701D0A06006E0B9
:107A9000143001680029F6D141680029F3D1012092
:107AA0002070002070BD012070BD000000A2010800
:107AB0008C0000202DE9FF5F81463E48164688462F
:107AC0000069002874D03C48456885B13B4800688F
:107AD00028B143691BB14846984701280BD00220C2
:107AE000FCF7CCFA4FF0000A002801D13BE002205D
:107AF00004B0BDE8F09F0D20FAE76C6BB44200D9EA
:107B00003446686A22464146FFF74CFE78B3686AFD
:107B1000CDE9000ACDF808A005F1180057462969FB
:107B200023464A468346FFF799F808B3FBF794FBD0
:107B3000B0B1686988B30320FCF7A0FA0028D7D158
:107B400095F83800C00700D00120696ACDE9001718
:107B50000290696923464A465846FFF77FF8D0B13C
:107B6000A144A044361B002EC7D10020C0E716E078
:107B70001120BDE7102C01D2274600E010273A461D
:107B800069464846FFF74DFA48B13A4669464046CD
:107B9000F4F7C9FB28B11220AAE706E008E00A20A2
:107BA000A6E7F61BB944B844E41B002CDBD0E1E7A0
:107BB00001209DE700A201088C0000205003002056
:107BC00070B505460848006900280BD04FF4807452
:107BD0002846FFF70DFFA04203D22846FFF708FF13
:107BE0000446204670BD000000A2010870B5FCF7F5
:107BF0002DFC040011D00B4D6868A0420BD0002072
:107C0000FCF73CFA002807D1E26A216BA06AFFF773
:107C1000C9FD20B16C60002070BD092070BD082036
:107C200070BD00008C0000200E4810B50069B0B196
:107C30000020FCF723FA002810D1FBF705FB08B160
:107C4000022000E0012000F01BF8072000F018F8E7
:107C5000054900200870FFF7D3F8002010BD01206F
:107C600010BD000000A201088C000020034800683D
:107C700010B1806A002800D1002070475003002016
:107C800070B5134C0546616F01B188471148016812
:107C9000E1B18A691AB12846BDE87040104788787A
:107CA000012803D0022806D0012070BD2846BDE877
:107CB0007040FFF7B5BAA06F08B9486808B1FFF780
:107CC00011FA2846BDE87040FFF754BB002070BD94
:107CD00000A2010850030020FFF7A2BA38B5694698
:107CE0001948FFF7A3F8002804D00098B0F5E01F6A
:107CF00001D0002038BD4FF0807569462846FFF757
:107D000095F80028F6D0009840071BD50120FFF712
:107D1000EFF92C1D01212046FFF724FC0028E9D0B3
:107D200069462846FFF782F80028E3D00098C0078C
:107D3000F6D069462046FFF779F80028DAD0009897
:107D40000028F6D1012038BDFC00000138B5694695
:107D50001A48FFF76BF8002805D00098A0F5E0114D
:107D6000203901D0002038BD4FF080756946284683
:107D7000FFF75CF80028F6D0009840071BD50120DB
:107D8000FFF7B6F92C1D01212046FFF7EBFB002879
:107D9000E9D069462846FFF749F80028E3D0009863
:107DA000C007F6D069462046FFF740F80028DAD031
:107DB00000980028F6D1012038BD0000FC00000129
:107DC00038B569461648FFF731F8002827D04FF03C
:107DD000807569462846FFF729F800281FD00098CB
:107DE00040071BD50120FFF783F92C1D01212046F8
:107DF000FFF7B8FB002812D069462846FFF716F8AF
:107E000000280CD00098C007F6D069462046FFF73E
:107E10000DF8002803D000980028F6D1012038BDC5
:107E2000FC000001884203D3904201D80120704732
:107E30000020704710B50B4C02212069FDF792F825
:107E4000E0680321B0FBF1F201FB1201401CE0608D
:107E5000002905D12069BDE810400121FDF782B855
:107E600010BD0000680000202DE9F041224D1646AB
:107E70000C4695F8230038B1BDE8F0414FF430725C
:107E80001EA10020FBF765B8F00522D000204FF4BA
:107E900031721AA1FBF75DF895F8210040F2C52276
:107EA00016A1FBF756F831462046FEF753FE012790
:107EB00004464FF0000813280DD0142C17D085F875
:107EC00024806869304468612046BDE8F04100F0D4
:107ED000D5B80120DBE7FEF769FD85F8218085F83C
:107EE0002370044685F82470FBF75AF8E9E700246C
:107EF00085F82470E5E70000043100202E2E5C2E6A
:107F00002E5C2E2E5C736F757263655C6461706CA1
:107F1000696E6B5C647261672D6E2D64726F705C4C
:107F20007666735F6D616E616765722E6300000037
:107F300070B51C4D06460C4695F82100002811D05E
:107F4000002040F2852218A1FBF703F8601C00D046
:107F5000012040F2862214A1FAF7FBFF6868401C5A
:107F600002D002E00120ECE76C6095F827000328BE
:107F700001D185F827606868A04203D195F82700F1
:107F8000B04201D0032008E03046FEF741FD20B9A1
:107F900045F80C4F01216975A975BDE8704000F0E6
:107FA0006DB80000043100202E2E5C2E2E5C2E2E8B
:107FB0005C736F757263655C6461706C696E6B5C39
:107FC000647261672D6E2D64726F705C7666735F8C
:107FD0006D616E616765722E6300000030B4194CEC
:107FE00094F82050032D02D025683DB107E030BC45
:107FF00040F2352214A10020FAF7ABBF2060A06840
:10800000401C00D1A16094F82700032801D184F816
:108010002730A069904205D9E069904202D90AB19F
:1080200003200CE0481C02D0A0688842F8D1032B42
:1080300003D094F827009842F2D10020A26130BC0E
:1080400000F01CB8043100202E2E5C2E2E5C2E2E4B
:108050005C736F757263655C6461706C696E6B5C98
:10806000647261672D6E2D64726F705C7666735FEB
:108070006D616E616765722E630000002DE9F04747
:108080000446132803D0142C01D0012000E0002066
:108090004FF43A7243A1FAF75CFF4F4D95F8200078
:1080A00003280CD0296891B1D5E9060282420ED38B
:1080B00068B1D5E90102904209D1012008E0BDE88C
:1080C000F0474FF43B7237A10020FAF742BF00207F
:1080D00085F8250095F8269019B995F827100329F9
:1080E00001D0012100E00021884620B195F824103C
:1080F00009B1012600E0002695F8231011B108B15E
:10810000012000E00020824628690027401C10D092
:108110006868401C00D0012040F20A3221A1FAF721
:1081200018FF69682869401A69694002814200D9CC
:108130000127032014B185F820001DE0B9F1000FDC
:1081400009D00FB10624F6E7B8F1000FF3D0002EE6
:10815000F1D10424EFE7BAF1000FECD10EB1022007
:1081600003E0B8F1000F03D0012085F8200012E0F1
:1081700095F8200003280BD195F8210030B1FEF7C7
:1081800015FC002185F8211004B904461348047039
:10819000B9F1000F03D1BDE8F04701F03DB8BDE8EB
:1081A000F08700002E2E5C2E2E5C2E2E5C736F75D9
:1081B0007263655C6461706C696E6B5C647261674C
:1081C0002D6E2D64726F705C7666735F6D616E618B
:1081D0006765722E63000000043100202401002036
:1081E0002DE9F041254886B00168254A114001601B
:1081F000FBF710F82348C16941F40031C161C1693E
:1082000001F400310491816941F0040181618069C8
:10821000022600F0040004900420CDE90006DFF8F7
:1082200068800325694603954046F5F75BFB082007
:108230000027CDE90007012469464046CDE9024503
:10824000F5F750FBCDE9004769464046CDE90245C8
:10825000F5F748FB002202214046F5F727FCCDE95F
:108260000064694640460395F5F73CFB074940200A
:10827000C1F8000106B00120BDE8F0810C440040C7
:108280005FFFFFEF001002400008014004E000E043
:108290000A4601460148FAF78FBF0000D83C00208B
:1082A00070B5064D2C68064820402860FAF7B2FFEA
:1082B0000348203004402C60012070BD0C44004075
:1082C0005FFFFFEF70B590B0044640216846F4F7B9
:1082D0000CF82F4800902F4B6179002259714FF410
:1082E000C0604FF4806501291AD002291AD0049287
:1082F00001B15A71A17999714FF40056022913D036
:10830000012913D0039201B19A71082119710499BE
:10831000814201D0A9420DD14FF4805002900AE071
:108320000490E7E70495E5E70396EEE7022103965C
:108330009971EAE70292DA7106922068186001905A
:10834000134C0C200C340590206813490840206021
:10835000FAF760FF6846F6F74DF9A0B10020C42295
:108360000EA1FAF7F6FD6846F6F762F968B100204B
:10837000C6220AA1FAF7EDFD2068154908432060DE
:1083800010B0012070BD0120E9E70120F0E70000F6
:10839000004400405C0100205FFFFFEF2E2E5C2EAA
:1083A0002E5C2E2E5C736F757263655C6869635F0B
:1083B00068616C5C73746D33325C73746D333266F8
:1083C00031303378625C756172742E630000000096
:1083D00020000010704700000A4610B5014604480E
:1083E000FAF701FF03490A68034B1A430A6010BDFC
:1083F000C83A00200C440040800000100148FAF701
:108400003BBE0000C83A00202DE9F04186B00F467F
:10841000DDE90C4180461D46164602A800F050FCDE
:1084200002A900220A54CDE900412B4632463946C2
:108430004046FEF7D9FB06B0BDE8F08110B50D4C03
:10844000207830B100202070FAF7AEFC40B11F2038
:1084500010BD832208A10020FAF77BFD022010BD89
:10846000607810B9FBF706F908B1002010BD25208F
:1084700010BD0000F80000202E2E5C2E2E5C2E2E4B
:108480005C736F757263655C6461706C696E6B5C64
:10849000647261672D6E2D64726F705C6961705FCC
:1084A000666C6173685F696E74662E63000000001D
:1084B0002DE9FF4107466448009015460E4600230B
:1084C000384600F0E9FB044660A0009023462A46A7
:1084D00031463846FBF75EFA044460A0009023461C
:1084E0002A4631463846FBF755FA0444FAF7ACFE03
:1084F0005EA1CDE9001023462A4631463846FEF7F4
:1085000019F90444FAF7A8FE5BA1CDE9001023464F
:108510002A4631463846FEF70DF90444FAF7ACFE18
:108520005AA1CDE9001023462A4631463846FEF7C7
:1085300001F90444FAF798FE59A1CDE90010234649
:108540002A4631463846FEF7F5F80444FAF75AFF52
:108550005BA1CDE9001023462A4631463846FEF796
:10856000E9F804445AA0009023462A46314638468A
:1085700000F092FB04445DA0009023462A46314659
:108580003846FBF707FA0444FCF71AF9F8B15DA086
:108590002346D0E90010CDE902105CA000902A46E5
:1085A0003146384600F078FB0444FCF725F90146D3
:1085B000042202A800F0AEFB062102A8CDE90001CA
:1085C00023462A463146384600F042FB04445548CB
:1085D000009023462A463146384600F05DFB0444AD
:1085E000FCF7EEF858B1FCF711F94FA1CDE90010F6
:1085F00023462A4631463846FCF750F80444FCF737
:108600000BF94DA1CDE9001023462A4631463846E4
:10861000FCF744F84C4904444CA049682346CDE992
:1086200000012A4631463846FFF7EEFE04444BA0CF
:10863000009023462A4631463846FBF7ABF904B092
:108640002044BDE8F081000028AC0108556E697136
:1086500075652049443A2040550D0A004849432099
:1086600049443A2040440D0A000000004175746FEF
:1086700020526573657400004175746F6D61746993
:108680006F6E20616C6C6F77656400004F76657269
:10869000666C6F7720646574656374696F6E000043
:1086A000496E636F6D70617469626C6520696D619C
:1086B000676520646574656374696F6E000000000F
:1086C000506167652065726173696E670000000024
:1086D0004461706C696E6B204D6F64653A20496E21
:1086E000746572666163650D0A000000496E746509
:1086F00072666163652056657273696F6E3A2040D9
:10870000560D0A00000000000D0A0000426F6F7451
:108710006C6F616465722056657273696F6E3A2082
:1087200000000000F4AC0108426F6F746C6F61646C
:108730006572204352430000496E7465726661633E
:1087400065204352430000003401002052656D6FE4
:10875000756E7420636F756E7400000055524C3A4C
:108760002040520D0A00000010B5064C044860601D
:10877000002060800448F4F7D7FC0120207010BD71
:10878000324100209C030020E44700202DE9F04303
:108790004AA0DFF82481D0E9001291B0007AC8F82D
:1087A0000010C8F80420002588F808000926FAF708
:1087B0000DFE454F01286FD0FBF7F6F900286BD06E
:1087C0007D712E46012508F1090418223FA1684653
:1087D000F3F764FD172269462046F3F75FFDA670A4
:1087E000202600F095F93D706C1C7C70C146B044A9
:1087F00044223C496846AC1CF3F750FD40464222F7
:108800006946F3F74BFD88F8025008F1080088F834
:108810000A5085766D1CC57688F82D504236F8F7DB
:10882000F7F93C71651C09EB060814222EA1684675
:10883000F3F734FD404612226946F3F72FFD88F81E
:108840000240123600F000F92CA2BD71D2E90034CA
:1088500009EB0600127A03604460027285701A48C0
:10886000691C0C3009368573B9700C4609EB060596
:10887000182225A16846F3F711FD172269462846FC
:10888000F3F70CFD1048AC700C3080F8AE4011B01E
:10889000BDE8F043FFF768BF38890749401E3881BB
:1088A00008717D204880002088F87D001C480188E0
:1088B0001739018097E70000E83E00200902940084
:1088C00006010080FA000000640100200904000095
:1088D0000208065008070582024000000705020250
:1088E0004000000090A101080904000000030000FE
:1088F00006092100010001222100000009040000F6
:1089000000FF0300070000000904000002FF000050
:108910000907050102400000070581024000000030
:108920006E01002002484078002800D001207047E6
:10893000E4030020F8F7CCBA002070477CB51C4651
:10894000154601281CD10CB1012C19D101AA694688
:108950000C48F4F7C7FB70B1019A402A05DD50229C
:1089600009A10020FAF7F5FA0AE028460099F3F782
:1089700095FC40207CBD012C02D10D4901200870DE
:1089800000207CBD284900202E2E5C2E2E5C2E2E31
:108990005C736F757263655C7573625C6869645C57
:1089A000757362645F757365725F6869642E6300D6
:1089B000640400202DE9F04107461D481646008852
:1089C000824202DD0020BDE8F0811A4800780028CC
:1089D000F9D0194C01224FF00008E26000E098B194
:1089E0006288002AFBD1154D3246681C2F70F3F7C0
:1089F00055FC6561A4F80480668011480078012860
:108A00000BD86D1C65610BE0C4F80C80C4F81480B1
:108A1000A4F80480A4F80280D4E76088401C608039
:108A20000020F8F72FFD074800F807800120CAE76B
:108A3000A89F0108E503002008040020F03F002063
:108A4000A69F01080803002002490120087002487F
:108A5000F4F76ABB64040020284900200020704716
:108A60007047000038B501241D461146022813D175
:108A7000002D11D0087807280BD06B462A461048E5
:108A8000F4F7FCFA90B10098FFF7E8FF012804D052
:108A900004E00C490120087038BD00240A4D2878F4
:108AA00048B1FBF723FE0020287004E0862207A1CE
:108AB0000020FAF74EFA2046FCF794F838BD000083
:108AC0002849002000000020640400202E2E5C2E87
:108AD0002E5C2E2E5C736F757263655C7573625CC1
:108AE0006869645C757362645F757365725F6869F9
:108AF000642E6300054910B50020C870FFF746FEDC
:108B0000F9F70EFDBDE81040F8F7FEBEE4030020C3
:108B100010B5FCF747FA074C60600020FCF710FA2C
:108B2000E060FAF73FFA002060700349A070A0608F
:108B3000086010BD240100203004002070B51446E8
:108B40000D460646FEF778FE074B1868002809D048
:108B50000120FCF74FF8224629463046BDE8704018
:108B600000F0E4BB70BD000030040020704700003E
:108B70002DE9F04115460E460746FEF75DFE10480A
:108B8000006800281AD00F490F4C0020886094F824
:108B90002000032812D00120FCF72CF82A46314689
:108BA000384600F065FD94F82000032806D02A46D8
:108BB00031463846BDE8F041FAF77ABFBDE8F081AA
:108BC00030040020240100200431002006484FF02A
:108BD000011201780548C180002101704170C0E98F
:108BE0000221016170470000989F0108E403002002
:108BF00010B5EFF3108472B6FAF7A4FB84F3108873
:108C000010BD70B50D460446090E00F013F8064677
:108C1000A019C5F3074100F00DF80644A019C5F3EB
:108C2000072100F007F80644E9B2A01900F002F8A5
:108C3000304470BD054A02EB111301F00F011B789F
:108C40000370515C4170022070470000749A010863
:108C50002DE9F0411446DDE906E55FEA000C18D085
:108C60005F19A74215D32144994212D3002006462A
:108C70002A46A34202D2E01A121A00E01E1B8F42BB
:108C800001D9791A521A0EEB00010CEB0600F3F72A
:108C900005FB2846BDE8F0812DE9FC418046089C93
:108CA0001D4616460F462046F3F736FBCDE9004039
:108CB0002B46324639464046FFF7CAFFBDE8FC81E5
:108CC000F0B50646002002460B460A2504E0B3FB39
:108CD000F5F3401C42F10002002BF8D150EA0203E8
:108CE00001D10120002200231F460EE0B1FBF5F464
:108CF00005FB1414B1FBF5F13034B0EB030CBCF1FF
:108D0000010C03F1010306F80C401C1A77EB020476
:108D1000ECD3F0BD2DE9F04115460E460746FFF7AE
:108D2000CFFF0446A8420AD2302229463846F3F73C
:108D3000D5FA281B38443146FFF7C2FF2846BDE864
:108D4000F0810000074910B5096831B1096A21B105
:108D50008847002800D0012010BDBDE8104000F079
:108D600003B80000500300202DE9F0471C490646D7
:108D70000C698CB304250027D6F800808946D434CA
:108D800006E062684046FFF74DF801281FD0143412
:108D900021680029F5D160680028F2D1E7B116E01A
:108DA0007019D9F810400027D0F800800C3406E084
:108DB00062684046FFF736F8012807D0143421686E
:108DC0000029F5D160680028F2D12FB12D1D0C2D9E
:108DD000E6D90120BDE8F087FFE70020FAE70000B0
:108DE00000A201087FB507A201463CCA8DE83C00FD
:108DF00010226846F3F797FA10B1002004B070BD56
:108E00000120FBE7999996963FCC66FCC033CC03D2
:108E1000E5DC31624178F02905D181789F2902D1C2
:108E2000C078E52801D0002070470120704700007D
:108E30000B49096811B1496A01B1084701783A291B
:108E40000AD1007A302809D0322807D0332805D03B
:108E5000342803D0352801D0002070470120704706
:108E600050030020002070472DE9FF5F994692468D
:108E70008B460098FAF75CFE40F295123CA1FAF797
:108E800068F848490026484DB1F80B00497B484333
:108E900009EB0001491EB1FBF0F7B9F1000F19D041
:108EA0000024A7F10108EE6809E0E968481C82B2D5
:108EB0003E4800F0D5FCE868401C641CE86044456E
:108EC000F3D34FF6FF723948E96800F0C9FCE8684F
:108ED000401CE8602869202802D34FF4D5721CE0BA
:108EE0003349202201EB4014401C286131492046BF
:108EF000F3F7D4F900980168216041686160018945
:108F00002181807AA072C4F81C90300CA082668304
:108F1000A968102909D34FF4DC7215A10020FAF7D3
:108F200018F8002004B0BDE8F09F214B01EB410090
:108F3000C03B214A43F8202003EB80021F4E5660BD
:108F4000BBF1000F01D043F820B0BAF1000F01D0FF
:108F5000C2F804A01348491CB0F80B30407B4343CF
:108F60007B439360A9602878401C28702046D9E78D
:108F70002E2E5C2E2E5C2E2E5C736F757263655CDC
:108F80006461706C696E6B5C647261672D6E2D64D8
:108F9000726F705C7669727475616C5F66732E6354
:108FA00000000000703100203C01002070330020E0
:108FB00030360020D49D01088D5A01089999010886
:108FC000C07A7047C0697047C16961B1074A084BF0
:108FD000408BB2F80B105B69527BB3FBF1F1801E42
:108FE00000FB021070474FF0FF30704770310020D7
:108FF0003C010020C17270470A4910B50846B1F81B
:109000001340B0F80B000CB90C6A0CB1444306E0F5
:10901000002440F2891204A12046F9F79AFF204665
:1090200010BD0000703100202E2E5C2E2E5C2E2EE6
:109030005C736F757263655C6461706C696E6B5CA8
:10904000647261672D6E2D64726F705C76697274E4
:1090500075616C5F66732E63000000002DE9F041BE
:109060000F4680464FF4007631464E48F3F73DF9FF
:1090700031464D48F3F739F94C4C0025C0214C4896
:10908000E560F3F732F94A487100C030F3F72DF983
:10909000256125704748C4E90105324646494148E3
:1090A0006561F3F7FBF83F4E07F5803740F62D0278
:1090B000B6F80B00717BB7FBF0F04A43B0EB420F00
:1090C00009D24FF4AB723DA10020F9F742FF707B4B
:1090D00041F25A010DE04FF691725143814209D29B
:1090E00040F2591235A10020F9F733FF707B4FF69B
:1090F00091714843B0F5803F03D3A6F81350306216
:1091000002E0A6F813003562717B3022B0FBF1F06B
:1091100040F2FF1101EB4000C0F34F27F7823449C2
:109120002348F3F7BBF8224978024861086204201B
:109130006561A060002000EB400201EB82026369E0
:109140009268401C1A4462610428F4D34FF6F87206
:1091500029461548E56000F083FBE1684FF6FF7291
:10916000491C1148E16000F07BFBE0682049401C8D
:10917000C4E903050E4D2022C03528463031F3F7EF
:109180008DF8D8F800102960D8F804106960B8F894
:109190000810298198F80A00A87201202061BDE812
:1091A000F081000070310020703300203C0100206D
:1091B00070350020DF390108849B01082E2E5C2EBB
:1091C0002E5C2E2E5C736F757263655C6461706CCF
:1091D000696E6B5C647261672D6E2D64726F705C7A
:1091E0007669727475616C5F66732E6300000000AF
:1091F000849D010810B50446FEF74CFB05493CB1BF
:10920000887808B902208870BDE81040FEF74ABB94
:109210000020F8E72401002010B5FEF73BFBF9F72A
:109220001FFF28B904484178022901D1012181702A
:10923000BDE81040FEF736BB2401002010B5FEF754
:10924000FBFA0148007810BD240100202DE9F0410F
:109250000446FEF7F1FAFEF71DFBF9F701FF80B1B6
:10926000FCF71CFC214A4EF660239168994201D21A
:109270002144916028B1947855785470012C06D11E
:1092800003E0BDE8F041FEF70DBB02209070002620
:109290009660FEF707FB0127CDB1012D17D0022DF7
:1092A00015D1134D95F82000032804D085F82670B9
:1092B0000020FEF7E3FE95F82000032812D00020DE
:1092C00040F211120BA1F9F744FE00F0F9F8164D27
:1092D00054B1012C08D0022C02D1F9F763FE2F60A3
:1092E000BDE8F0810120EBE72E60F9E724010020C2
:1092F000043100202E2E5C2E2E5C2E2E5C736F759A
:109300007263655C6461706C696E6B5C64726167EA
:109310002D6E2D64726F705C7666735F6D616E6129
:109320006765722E63000000300400202DE9F047CD
:109330008A4604461546002651025046F2F7D5FFEC
:10934000DFF84890002006EB460209EB82018442D8
:10935000896800EB512188460ED38C420CD2A8EBD1
:109360000407AF4200D32F4659F82230201A3A465C
:10937000514698473C44ED1B002D04D0761CF6B2B4
:109380004046102EDFD3BDE8F08700007035002086
:1093900001494860704700003C0100201CB52E4C7C
:1093A000E07F10B104F11F0000E02CA04FF08061BD
:1093B000FFF754FE2C48FBF743F80346207D10B11D
:1093C0002548143000E029A000222749FFF74CFD72
:1093D0002948FBF735F803460022274927A0FFF765
:1093E00043FDFFF72BFF40B12748FBF729F8034661
:1093F0000022254925A0FFF737FD274B41219A1C64
:109400002648F9F7ADFF58B12548FBF719F8034690
:10941000002223492348FFF727FD0021FFF7EAFD3B
:109420004FF00060019020480090FAF725F978B1DC
:10943000DDE900104FF48062F2F775FF40B91B4878
:10944000FAF7FEFF03460022184919A0FFF70CFDAA
:1094500000F034F81CBD000000A201084441504C4B
:10946000494E4B2020202000A95901084D42454477
:109470002020202048544D00C15801084445544143
:10948000494C532054585400D55801084641494C82
:109490002020202054585400340100202C3100207A
:1094A0006D570108D89A010800C000081D5A01082C
:1094B0004E4545445F424C205458540070470000CC
:1094C00010B5FAF7D7F820B1FFF7B8FE08B9F5F7ED
:1094D000E1FFFAF7D1F840B1F9F78CFF18B9F9F7C5
:1094E00075FF012801D1F5F7D5FF02484168491CF5
:1094F000416010BD34010020F8B50C46074600F06D
:10950000B3F8002856D1FAF7C5FF10B9FAF7C0FF33
:1095100000B1012018B9F9F79FFE00284AD0022CAB
:1095200048D074B1012C45D10B2241493846F2F79D
:10953000FAFE00283ED1FFF75BFBBDE8F840FFF7DD
:109540006BBE01208DF80000851E6946384600F08C
:109550008DF8002864D1364E00240C360B2256F8C4
:1095600034103846F2F7DFFE10B906EBC400057977
:10957000641C102CF2D3681C4FF0000418D0102D7E
:1095800048D2DFE805F008104D182325292B2F318C
:1095900035373B3D4143FAF76FF8002840D00120B2
:1095A000F9F76AFF3CE0E22222A10020F9F7D1FCA2
:1095B0008DF80040F8BD2B4C20680068804720687B
:1095C0000069804720684068804729E0012000E06A
:1095D0000020F9F79BFF23E0012000E00020F9F7CD
:1095E0009DFF1DE0012000E00020F9F7A7FF17E034
:1095F000002000E00120F9F739FF11E0012000E030
:109600000020F9F793FF0BE0012000E00020F9F7BC
:1096100039FF05E04FF4887206A10020F9F799FCA4
:109620009DF800000028C5D0FFF7F6FDF8BD00004A
:10963000D89A01082E2E5C2E2E5C2E2E5C736F7530
:109640007263655C6461706C696E6B5C64726167A7
:109650002D6E2D64726F705C7666735F75736572C4
:109660002E630000709A01080020704700207047A8
:109670002DE9F05F0446002615468B463046DFF89C
:109680005090DFF850A01CE006EB460209EB820286
:109690008442916800EB512188460DD38C420BD255
:1096A000A8EB0407AF4200D32F465368201A3A466E
:1096B000594698473C44ED1B002D06D0761C404689
:1096C000F6B2DAF808108E42DED3BDE8F09F000053
:1096D000703500203C010020FEB5044690F83000B3
:1096E00015460F46302801D3606B31E0C0F13006DB
:1096F000AE4200D3164620443246F2F7CFFD94F82E
:1097000030003044C1B284F83010302901D200203A
:10971000FEBD00233744AD1B1A462046FAF786FAF1
:1097200008B302A90022009101AB1146FAF7CCFA66
:109730000028EDD10198606394F830202146FAF7B3
:10974000D7FB0028E4D194F83010606B08446063C4
:109750002A463946FAF7CCFB0028D9D1606B284459
:1097600060631420FEBD1C20FEBD00002DE9F84FF3
:10977000894681184FF48063B3EB412F07D2BDE8CF
:10978000F84F4FF41F7227A10020F9F7E2BB410206
:109790004B0951024FEA511B00912F4901EB431A2B
:1097A00010B100262D4F33E00126FBE709EB4614EC
:1097B0000AEB4615202221462846F2F7B4FD30B3C5
:1097C000214628460B22F2F7AEFD78B100208046F4
:1097D000D7F804C023462A4620460221E0472078D5
:1097E000E52805D0B8F1000F07D010E00120EEE722
:1097F0002A4623461046012107E02046FAF798F949
:1098000028B123462A46184600217C68A047761CCA
:109810005E45CBD350464946009ABDE8F84FF2F773
:109820003DBD00002E2E5C2E2E5C2E2E5C736F75BF
:109830007263655C6461706C696E6B5C64726167B5
:109840002D6E2D64726F705C7669727475616C5FD9
:1098500066732E6300000000303600203C010020BB
:1098600030B44B00012404EB4101B1F5007F06D375
:1098700030BC40F2391204A10020F9F76ABBC2548F
:10988000120A425430BC70472E2E5C2E2E5C2E2EB7
:109890005C736F757263655C6461706C696E6B5C40
:1098A000647261672D6E2D64726F705C766972747C
:1098B00075616C5F66732E63000000002DE9F04750
:1098C00086B0002416460F460546039404940DF115
:1098D00010080DF10C094FF4807A0594CDF800A022
:1098E000CDE901986B1C05AA31463846FBF760FCB0
:1098F00068B1022813D001281DD0042825D00528DE
:1099000001D00628EAD1052821D0012020E0049AC0
:1099100022B3691C0398FAF7EBFA04461EE0049A96
:109920002AB1691C0398FAF7E3FA040016D10598E6
:10993000361A0744D2E7049A22B1691C0398FAF751
:10994000D7FA044654B9132408E0152406E0002091
:109950004FF4B07203A1F9F7FCFA162406B02046C2
:10996000BDE8F0872E2E5C2E2E5C2E2E5C736F755C
:109970007263655C6461706C696E6B5C6472616774
:109980002D6E2D64726F705C66696C655F737472A6
:1099900065616D2E630000007047322E312E30005D
:1099A00053544152545F424C414354009CAB010814
:1099B00058AB010838AB0108FCAB010844A801080A
:1099C00000AB01085CA8010818AA010870AA0108E8
:1099D000B8AB0108C4AA0108CCA90108F0A9010884
:1099E0003CAA010870AB0108F8A80108CCA801083E
:1099F000A4A8010828A90108A4AA0108E0AB01084D
:109A0000D8A5010898A501085CA5010858A9010876
:109A1000D4A7010830A70108F8A6010820A601086C
:109A200008A80108FCA4010830A50108D0A4010879
:109A300070A40108A0A4010890A7010870A601085D
:109A4000ACA6010824AC01086CA70108657A0108DE
:109A5000297C0108B57A010895790108197901086E
:109A6000C17B0108F1790108F9780108ED7B010853
:109A70004C9A010830313233343536373839616227
:109A80006364656600000000ED4801083D8401083C
:109A900079550108353701089D360108C55601087A
:109AA000FD3701080979010800000000889A0108C3
:109AB00000000000FFFFFFFFFFFFFFFFFFFFFFFFB2
:109AC000FFFFFFFF0000000000000000000000009A
:109AD0000000000000000003415353455254202071
:109AE00054585400A099010800000000B4AE0108C9
:109AF00001000000C0AE010802000000A8AE01088D
:109B0000030000009CAE01080400000090AE0108B4
:109B10000500000054AE01080600000078AE010800
:109B20000700000048AE0108080000006CAE010804
:109B30000900000030AE01080A0000003CAE010838
:109B40000B00000060AE01080C00000084AE0108AC
:109B50000D000000CCAE01080E000000D8AE0108D8
:109B60000F000000F0AE01080CAF0108FCAE0108C8
:109B700004AF0108E4AE01083078000000000000E6
:109B800000000000EB3C904D53443053342E310024
:109B900002080100022000501FF80100010001002E
:109BA0000000000000000000000029741902274492
:109BB00041504C494E4B2D444E4446415431362081
:109BC0002020FAB8C0070520018ED0BC0010B8C014
:109BD000078ED8BE6D00E80B00EBFEB40EB700B3E5
:109BE00007CD10C38A044608C07405E8EDFFEBF406
:109BF000C3504C454153452052454D4F5645205486
:109C000048452041524D204D424544204441504C4E
:109C1000494E4B2055534220444556494345204127
:109C20004E44205245424F4F5420544845205359EA
:109C30005354454D2E2E000000000000000000008F
:109C40000000000000000000000000000000000014
:109C50000000000000000000000000000000000004
:109C600000000000000000000000000000000000F4
:109C700000000000000000000000000000000000E4
:109C800000000000000000000000000000000000D4
:109C900000000000000000000000000000000000C4
:109CA00000000000000000000000000000000000B4
:109CB00000000000000000000000000000000000A4
:109CC0000000000000000000000000000000000094
:109CD0000000000000000000000000000000000084
:109CE0000000000000000000000000000000000074
:109CF0000000000000000000000000000000000064
:109D00000000000000000000000000000000000053
:109D10000000000000000000000000000000000043
:109D20000000000000000000000000000000000033
:109D30000000000000000000000000000000000023
:109D40000000000000000000000000000000000013
:109D50000000000000000000000000000000000003
:109D600000000000000000000000000000000000F3
:109D700000000000000000000000000000000000E3
:109D8000000055AA4D5A01089999010800020000E7
:109D90004D57010899990108000000004D5701082E
:109DA0009999010800000000CD5601086D9701083F
:109DB0000004000000000000000000000000002877
:109DC00000000000000000000000418EBB320000D7
:109DD0000000000000000000000000000000000182
:109DE00000000000764876480000DC8376480000DA
:109DF00000000000010B010000000000B178010824
:109E000000000000DD7C0108B166010800000000D0
:109E10000000000000000000000000000000000042
:109E2000020B010000000000B778010800000000EC
:109E30004D7D0108DD660108000000000000000003
:109E4000000000000000000000000000030B020002
:109E500001000000BD7801083B550108000000002A
:109E600000000000000000000000000000000000F2
:109E700000000000000000000136020004000000A5
:109E800000000000000000000000000000000000D2
:109E90000000000035710108000000000000000013
:109EA0000000000002360200040000000000000074
:109EB00000000000000000000000000000000000A2
:109EC000997101080000000000000000000000007F
:109ED000040B010000000000000000000000000072
:109EE000C17D0108096701080000000000000000B2
:109EF000000000000000000000000000017C0100E4
:109F00000000000000000000000000000000000051
:109F1000000000000000000009720108E58D010842
:109F200000000000000000000175000000000000BB
:109F30000000000000000000000000000000000021
:109F4000D97C010800000000158E0108658E01080B
:109F500000000000015C020004000000DB78010842
:109F600000000000000000000000000000000000F1
:109F700000000000000000000000000000000000E1
:109F800000000000000000000102030406070809A9
:109F90000000000001020304000001400000010075
:109FA000400040004000010040000202400000026A
:109FB0004000040440004000100010002120010176
:109FC0004000000240000000F92B010800000000E2
:109FD00000000000072C010800000000690F0108C4
:109FE0005D090108E91B0108CF0B0108B10B01084D
:109FF0000000000000000000000000000000000061
:10A000000000000000000000000000000000000050
:10A01000000000000000000000000000CD0E01085C
:10A0200000000000000000000600FF0901A101156A
:10A030000026FF007508954009018102954009013D
:10A04000910295010901B102C00021001201100224
:10A05000EF020140280D040200010102030100008B
:10A06000050F3900021810050038B60834A909A0F8
:10A07000478BFDA0768815B665000121001C1005F0
:10A0800000DF60DDD88945C74C9CD2659D9E648AFF
:10A090009F000003064A012000000403090408038E
:10A0A000410072006D0024034400410050004C0048
:10A0B00069006E006B00200043004D005300490012
:10A0C00053002D004400410050001A0330003000BE
:10A0D00030003100410030003000300030003000EE
:10A0E0003000300022036D00620065006400200033
:10A0F000530065007200690061006C002000500090
:10A100006F007200740022036D006200650064003D
:10A110002000530065007200690061006C0020009F
:10A1200050006F00720074001A0343004D0053008A
:10A13000490053002D0044004100500020007600EB
:10A1400031002403570065006200550053004200AF
:10A150003A00200043004D005300490053002D00F9
:10A1600044004100500010035500530042005F00BE
:10A170004D00530043001A0343004D0053004900B3
:10A1800053002D00440041005000200076003200B2
:10A19000080B00020202010409040000010202018E
:10A1A000040524001001052401030204240206050D
:10A1B00024060000070583031000200904000002A4
:10A1C0000A000005070504021000000705840210BC
:10A1D00000000400880004017FFC0A000100000068
:10A1E0001027000000000000CC00000098000000D4
:10A1F0000400000000000000000001010100000058
:10A20000010000003030303000000000000000008D
:10A21000000000004D4245442020202048544D4479
:10A2200041504C494E4B2020202068747470733A82
:10A230002F2F6D6265642E6F72672F646576696378
:10A24000652F3F636F64653D40553F766572736966
:10A250006F6E3D40563F7461726765745F69643D1F
:10A26000405400000000000000000000000000005A
:10A2700000000000000000000000000000000000DE
:10A2800000000000010001000000000000000000CC
:10A2900000000000000000000000000000000000BE
:10A2A00000000000000000000000000000000000AE
:10A2B0000200020001000000000000000000000099
:10A2C000000000000000000000000000000000008E
:10A2D0000000000000000000000000000300020079
:10A2E000040000000000000000000000000000006A
:10A2F000000000000000000000000000000000005E
:10A30000000000000000000000000000000000004D
:10A31000000000000000000000000000000000003D
:10A32000000000000000000000000000000000002D
:10A33000000000000000000000000000000000001D
:10A34000000000000000000000000000000000000D
:10A3500000000000000000000000000000000000FD
:10A3600000000000000000000000000000000000ED
:10A3700000000000000000000000000000000000DD
:10A3800000000000000000000000000000000000CD
:10A3900000000000000000000000000000000000BD
:10A3A00000000000000000000000000000000000AD
:10A3B000000000000000000000000000000000009D
:10A3C000000000000000000000000000000000008D
:10A3D000000000000000000000000000000000007D
:10A3E00000000000030202023906000000380140AC
:10A3F00000A24A040000000020A4010800000000A0
:10A4000000000000000000002200220025000000E3
:10A4100028A4010830A40108404A0020544A002022
:10A42000000801400A00000044000240010400004E
:10A430005800024001050000A108010821F80008A9
:10A4400089F8000815F9000895F80008ADF800082B
:10A45000A1F80008C5F8000861F8000839F80008FC
:10A4600015F8000855F80008B9F800082DF800089C
:10A47000496E206170706C69636174696F6E2070E1
:10A48000726F6772616D6D696E6720736563746F5B
:10A4900072206572617365206661696C65642E0067
:10A4A000496E206170706C69636174696F6E2070B1
:10A4B000726F6772616D6D696E67206D6173732075
:10A4C0006572617365206661696C65642E000000C9
:10A4D000496E206170706C69636174696F6E207081
:10A4E000726F6772616D6D696E67207772697465EE
:10A4F000206661696C65642E00000000496E206171
:10A5000070706C69636174696F6E2070726F6772CE
:10A51000616D6D696E6720696E697469616C697AD5
:10A520006174696F6E206661696C65642E0000005D
:10A53000496E206170706C69636174696F6E207020
:10A54000726F6772616D6D696E6720756E696E6995
:10A5500074206661696C65642E0000005468652093
:10A560006865782066696C652063616E6E6F742023
:10A5700062652070726F6772616D6D65642E204C2C
:10A580006F676963206661696C757265206F6363CC
:10A5900075727265642E00005468652068657820C5
:10A5A00066696C652063616E6E6F742062652064FD
:10A5B00065636F6465642E20506172736572206CF0
:10A5C0006F676963206661696C757265206F63638C
:10A5D00075727265642E0000546865206865782085
:10A5E00066696C652063616E6E6F742062652064BD
:10A5F00065636F6465642E20436865636B73756D76
:10A600002063616C63756C6174696F6E206661694B
:10A610006C757265206F636375727265642E0000DD
:10A62000546865206170706C69636174696F6E2035
:10A6300066696C6520666F726D6174206973207540
:10A640006E6B6E6F776E20616E642063616E6E6FED
:10A65000742062652070617273656420616E642F7E
:10A660006F722070726F6365737365642E000000F3
:10A67000496E206170706C69636174696F6E2070DF
:10A68000726F6772616D6D696E67206E6F74207393
:10A690007570706F72746564206F6E207468697372
:10A6A000206465766963652E00000000496E2061B4
:10A6B00070706C69636174696F6E2070726F67721D
:10A6C000616D6D696E67206661696C6564206265A5
:10A6D0006361757365207468652075706461746565
:10A6E0002073656E742077617320696E636F6D707F
:10A6F0006C6574652E000000546865207374617287
:10A7000074696E67206164647265737320666F722A
:10A710002074686520696E74657266616365207572
:10A7200070646174652069732077726F6E672E00A4
:10A73000546865207374617274696E672061646423
:10A740007265737320666F722074686520626F6F24
:10A75000746C6F61646572207570646174652069E2
:10A76000732077726F6E672E0000000054686520BA
:10A77000626F6F746C6F6164657220435243206432
:10A780006964206E6F7420706173732E0000000086
:10A79000496E206170706C69636174696F6E2070BE
:10A7A000726F6772616D6D696E672061626F72743E
:10A7B00065642064756520746F20616E206F757408
:10A7C000206F6620626F756E6473206164647265C9
:10A7D00073732E00546865206865782066696C651F
:10A7E000206F6666736574206C6F616420616464B9
:10A7F00072657373206973206E6F7420636F727259
:10A800006563742E00000000546865206170706CF0
:10A8100069636174696F6E20696D61676520697332
:10A82000206E6F7420636F6D70617469626C652057
:10A830007769746820746865207461726765742E26
:10A8400000000000546865207472616E7366657262
:10A850002074696D6564206F75742E0046696C659F
:10A860002073656E74206F7574206F66206F72643C
:10A8700065722062792050432E205461726765749E
:10A88000206D69676874206E6F7420626520707235
:10A890006F6772616D6D656420636F72726563745A
:10A8A0006C792E00466C61736820616C676F726909
:10A8B00074686D20777269746520636F6D6D616E69
:10A8C00064204641494C555245000000466C617376
:10A8D0006820616C676F726974686D20657261735E
:10A8E0006520616C6C20636F6D6D616E6420464104
:10A8F000494C555245000000466C61736820616CFC
:10A90000676F726974686D20657261736520736525
:10A9100063746F7220636F6D6D616E642046414990
:10A920004C55524500000000466C61736820616C14
:10A93000676F726974686D207772697465207665D7
:10A940007269667920636F6D6D616E64204641495E
:10A950004C55524500000000546865206865782019
:10A9600066696C6520796F752064726F70706564BC
:10A970002069736E277420636F6D70617469626CF7
:10A980006520776974682074686973206D6F6465E9
:10A99000206F72206465766963652E2041726520A0
:10A9A000796F7520696E204D41494E54454E414E98
:10A9B0004345206D6F64653F205365652048454CD5
:10A9C00050204641512E48544D0000004661696CAC
:10A9D000656420746F20696E697469616C697A6559
:10A9E0002074686520746172676574204D4355005A
:10A9F0004661696C656420746F20756E696E697458
:10AA000069616C697A652074686520746172676534
:10AA100074204D43550000004661696C65642074E4
:10AA20006F2072657365742F68616C74207468653B
:10AA300020746172676574204D43550050726F67D2
:10AA400072616D6D696E672061626F727465643AE0
:10AA500020696D61676520776F756C64206C6F632A
:10AA60006B20746172676574204D435500000000CF
:10AA70004661696C656420746F20646F776E6C6FDB
:10AA8000616420666C61736820616C676F726974C1
:10AA9000686D20746F20746172676574204D435532
:10AAA00000000000456E64206F662073747265615B
:10AAB0006D20686173206265656E207265616368F0
:10AAC000656400004661696C656420746F20646F82
:10AAD000776E6C6F61642074686520666C61736862
:10AAE000206461746120636F6E74656E747320748A
:10AAF0006F2062652070726F6772616D6D656400B2
:10AB0000506F737369626C65206D69736D617463F6
:10AB100068206265747765656E2066696C65207370
:10AB2000697A6520616E642073697A652070726F3E
:10AB30006772616D6D656400416E20696E74657247
:10AB40006E616C206572726F7220686173206F6332
:10AB50006375727265640000416E206572726F7277
:10AB600020686173206F6363757272656400000012
:10AB70004661696C656420746F20756E6C6F636BE1
:10AB800020746172676574204D435520666F722092
:10AB900070726F6772616D6D696E67004F7065727C
:10ABA0006174696F6E207761732073756363657379
:10ABB0007366756C00000000466C61736820616C00
:10ABC000676F726974686D206D697373696E672051
:10ABD000666F72206120726567696F6E0000000009
:10ABE000456E64206F662073747265616D206973B1
:10ABF00020756E6B6E6F776E00000000416E2065F1
:10AC000072726F72206F636375727265642064750F
:10AC100072696E6720746865207472616E73666510
:10AC2000720000000000000023204441504C696E77
:10AC30006B204669726D77617265202D20736565A2
:10AC40002068747470733A2F2F6461706C696E6B36
:10AC50002E696F0D0A4275696C642049443A20766A
:10AC6000303235372D31382D67363963613631331F
:10AC700032202861726D63632C206C6F63616C20DD
:10AC80006D6F6473290D0A004120626F6F746C6FE1
:10AC900061646572207570646174652077617320EA
:10ACA000737461727465642062757420756E61627C
:10ACB0006C6520746F20636F6D706C6574652E0D0C
:10ACC0000A52656C6F61642074686520626F6F74EE
:10ACD0006C6F6164657220746F2066697820746897
:10ACE0006973206572726F72206D65737361676539
:10ACF0002E0D0A00476974205348413A20363963C3
:10AD000061363133326234653263393932316664E7
:10AD10003238343033343861316565383464623503
:10AD200032343763300D0A4C6F63616C204D6F64B1
:10AD3000733A20310D0A55534220496E746572668C
:10AD4000616365733A204D53442C204344432C20C7
:10AD50004849442C205765625553420D0A000000B3
:10AD60003C21646F63747970652068746D6C3E0D6E
:10AD70000A3C212D2D206D62656420506C61746643
:10AD80006F726D205765627369746520616E64200F
:10AD900041757468656E7469636174696F6E205380
:10ADA000686F7274637574202D2D3E0D0A3C6874B3
:10ADB0006D6C3E0D0A3C686561643E0D0A3C6D6534
:10ADC000746120636861727365743D227574662DC9
:10ADD00038223E0D0A3C7469746C653E6D62656490
:10ADE00020576562736974652053686F7274637568
:10ADF000743C2F7469746C653E0D0A3C2F68656164
:10AE0000643E0D0A3C626F64793E0D0A3C736372C6
:10AE10006970743E0D0A77696E646F772E6C6F638C
:10AE20006174696F6E2E7265706C616365282200B3
:10AE30004D53445F4F4E2020434647004D53445FDF
:10AE40004F464620434647004F56464C5F4F4E20E4
:10AE5000434647004155544F5F4F4E2043464700FD
:10AE6000434F4D505F4F4E20434647004F56464C90
:10AE70005F4F4646434647004155544F5F4F464655
:10AE800043464700434F4D505F4F464643464700B9
:10AE9000484152445F525354434647004155544F32
:10AEA0005F525354434647004552415345202020AA
:10AEB00041435400415353455254202041435400D0
:10AEC000524546524553482041435400504147455E
:10AED0005F4F4E2041435400504147455F4F464627
:10AEE00041435400696E74657266616365000000D9
:10AEF000696E7465726E616C000000007573657236
:10AF00000000000074617267657400007472616E05
:10AF10007369656E740000004D4245442020202076
:10AF20005646532020202020202020202020202092
:10AF3000302E310054AF01080000002078040000DA
:10AF400084C30008C8B0010878040020004A00004B
:10AF50002C2E010801213808010102060202080115
:10AF60003A04063F010106060604017A10010D1F8E
:10AF7000089996974A02120102270418127D360199
:10AF800008E54E0108D9960108413201088F101AD0
:10AF9000E9101EBD9801084510019126A24A0480BF
:10AFA00025A9991206126B520A1C03064AB33202F3
:10AFB00012A012141203A757494E5553421284127D
:10AFC000041207122A12441265127612691A6308D3
:10AFD0001249126E1A7408127212663A61121247FE
:10AFE0001A5516124432731250127B123912321251
:10AFF00043124512361A340412321A2D1212431A11
:10B0000037023A2D121A461C29141A33021A420A20
:10B0100012331A31203A422612351A4102291812E7
:10B0200039527D0950A01A430C3A4264296E1A44E1
:10B03000823A328E298C29A01A360C5A2D881A365B
:10B040000A3A310C3A451C29043A33CC5A36A0212D
:10B05000402D18AF01082C03016F732E6D626564DB
:10B060002E636F6D2F7765627573622F6C616E64EE
:10B07000696E672D706167652F3F6269643DCA1311
:10B080002C011A1260023C401E84A20108B0041A6E
:10B09000DC04180EF49D0108209E010808A3010895
:10B0A00034041A4C0C1AD0041A78041AA4041AFC9A
:10B0B000041E289F010854041A60201A8C041AB830
:10B0C000041AFF0101DC0000FFFFFFFFFFFFFFFF8D
:10B0D000FFFFFFFFFFFFFFFFFFFFFFFFFFFFFFFF80
:10B0E000FFFFFFFFFFFFFFFFFFFFFFFFFFFFFFFF70
:10B0F000FFFFFFFFFFFFFFFFFFFFFFFFFFFFFFFF60
:10B10000FFFFFFFFFFFFFFFFFFFFFFFFFFFFFFFF4F
:10FBF000FFFFFFFFFFFFFFFFFFFFFFFF7DCA8EA29A
:00000001FF
